{
	"contracts/MultilevelTransfer_flattened.sol": {
		"Tokenplay": {
			"abi": [
				{
					"inputs": [
						{
							"internalType": "address",
							"name": "_ERC20address",
							"type": "address"
						}
					],
					"stateMutability": "nonpayable",
					"type": "constructor"
				},
				{
					"inputs": [],
					"name": "admins",
					"outputs": [
						{
							"internalType": "address",
							"name": "",
							"type": "address"
						}
					],
					"stateMutability": "view",
					"type": "function"
				},
				{
					"inputs": [],
					"name": "getparent",
					"outputs": [
						{
							"internalType": "address",
							"name": "",
							"type": "address"
						}
					],
					"stateMutability": "view",
					"type": "function"
				},
				{
					"inputs": [],
					"name": "inter",
					"outputs": [
						{
							"internalType": "contract InterfaceERC20",
							"name": "",
							"type": "address"
						}
					],
					"stateMutability": "view",
					"type": "function"
				},
				{
					"inputs": [],
					"name": "join",
					"outputs": [],
					"stateMutability": "nonpayable",
					"type": "function"
				},
				{
					"inputs": [],
					"name": "parent",
					"outputs": [
						{
							"internalType": "address",
							"name": "",
							"type": "address"
						}
					],
					"stateMutability": "view",
					"type": "function"
				},
				{
					"inputs": [],
					"name": "random",
					"outputs": [
						{
							"internalType": "uint256",
							"name": "",
							"type": "uint256"
						}
					],
					"stateMutability": "view",
					"type": "function"
				},
				{
					"inputs": [
						{
							"internalType": "address",
							"name": "",
							"type": "address"
						}
					],
					"name": "staker",
					"outputs": [
						{
							"internalType": "uint256",
							"name": "tokenid",
							"type": "uint256"
						},
						{
							"internalType": "address",
							"name": "referrer",
							"type": "address"
						},
						{
							"internalType": "bool",
							"name": "setreferrer",
							"type": "bool"
						},
						{
							"internalType": "bool",
							"name": "activeUser",
							"type": "bool"
						}
					],
					"stateMutability": "view",
					"type": "function"
				},
				{
					"inputs": [],
					"name": "tokenId",
					"outputs": [],
					"stateMutability": "nonpayable",
					"type": "function"
				}
			],
			"devdoc": {
				"kind": "dev",
				"methods": {},
				"version": 1
			},
			"evm": {
				"assembly": "    /* \"contracts/MultilevelTransfer_flattened.sol\":350:3006  contract Tokenplay {... */\n  mstore(0x40, 0x80)\n    /* \"contracts/MultilevelTransfer_flattened.sol\":415:416  0 */\n  0x00\n    /* \"contracts/MultilevelTransfer_flattened.sol\":402:416  uint count = 0 */\n  0x01\n  sstore\n    /* \"contracts/MultilevelTransfer_flattened.sol\":702:983  constructor(address _ERC20address) {... */\n  callvalue\n  dup1\n  iszero\n  tag_1\n  jumpi\n  0x00\n  dup1\n  revert\ntag_1:\n  pop\n  mload(0x40)\n  sub(codesize, bytecodeSize)\n  dup1\n  bytecodeSize\n  dup4\n  codecopy\n  dup2\n  add\n  0x40\n  dup2\n  swap1\n  mstore\n  tag_2\n  swap2\n  tag_3\n  jump\t// in\ntag_2:\n    /* \"contracts/MultilevelTransfer_flattened.sol\":788:793  inter */\n  0x04\n    /* \"contracts/MultilevelTransfer_flattened.sol\":788:825  inter = InterfaceERC20(_ERC20address) */\n  dup1\n  sload\n  sub(shl(0xa0, 0x01), 0x01)\n  dup4\n  dup2\n  and\n  not(sub(shl(0xa0, 0x01), 0x01))\n  swap3\n  dup4\n  and\n  or\n  dup4\n  sstore\n  0x00\n    /* \"contracts/MultilevelTransfer_flattened.sol\":835:854  admins = msg.sender */\n  dup1\n  sload\n  swap1\n  swap3\n  and\n    /* \"contracts/MultilevelTransfer_flattened.sol\":844:854  msg.sender */\n  caller\n    /* \"contracts/MultilevelTransfer_flattened.sol\":835:854  admins = msg.sender */\n  swap1\n  dup2\n  or\n  dup4\n  sstore\n    /* \"contracts/MultilevelTransfer_flattened.sol\":864:882  staker[msg.sender] */\n  dup1\n  dup4\n  mstore\n    /* \"contracts/MultilevelTransfer_flattened.sol\":864:870  staker */\n  0x05\n    /* \"contracts/MultilevelTransfer_flattened.sol\":864:882  staker[msg.sender] */\n  0x20\n  mstore\n  0x40\n  dup1\n  dup5\n  keccak256\n  0x01\n    /* \"contracts/MultilevelTransfer_flattened.sol\":864:893  staker[msg.sender].activeUser */\n  swap1\n  dup2\n  add\n    /* \"contracts/MultilevelTransfer_flattened.sol\":864:900  staker[msg.sender].activeUser = true */\n  dup1\n  sload\n  not(shl(0xa8, 0xff))\n  and\n  shl(0xa8, 0x01)\n  or\n  swap1\n  sstore\n    /* \"contracts/MultilevelTransfer_flattened.sol\":910:916  parent */\n  0x02\n    /* \"contracts/MultilevelTransfer_flattened.sol\":910:929  parent = msg.sender */\n  dup1\n  sload\n    /* \"contracts/MultilevelTransfer_flattened.sol\":788:825  inter = InterfaceERC20(_ERC20address) */\n  0x0100\n    /* \"contracts/MultilevelTransfer_flattened.sol\":910:929  parent = msg.sender */\n  swap1\n  swap5\n  mul\n  not(sub(shl(0xa8, 0x01), 0x0100))\n  swap1\n  swap5\n  and\n  swap4\n  swap1\n  swap4\n  or\n  swap1\n  swap3\n  sstore\n    /* \"contracts/MultilevelTransfer_flattened.sol\":939:948  count = 1 */\n  swap1\n  dup1\n  sstore\n    /* \"contracts/MultilevelTransfer_flattened.sol\":958:963  inter */\n  dup4\n  sload\n    /* \"contracts/MultilevelTransfer_flattened.sol\":969:975  admins */\n  swap3\n  sload\n    /* \"contracts/MultilevelTransfer_flattened.sol\":958:976  inter.mint(admins) */\n  swap1\n  mload\n  shl(0xe1, 0x35313c21)\n  dup2\n  mstore\n    /* \"contracts/MultilevelTransfer_flattened.sol\":969:975  admins */\n  swap1\n  dup3\n  and\n    /* \"contracts/MultilevelTransfer_flattened.sol\":958:976  inter.mint(admins) */\n  swap4\n  dup2\n  add\n    /* \"#utility.yul\":455:506   */\n  swap4\n  swap1\n  swap4\n  mstore\n    /* \"contracts/MultilevelTransfer_flattened.sol\":958:963  inter */\n  and\n  swap1\n    /* \"contracts/MultilevelTransfer_flattened.sol\":958:968  inter.mint */\n  0x6a627842\n  swap1\n    /* \"#utility.yul\":428:446   */\n  0x24\n  add\n    /* \"contracts/MultilevelTransfer_flattened.sol\":958:976  inter.mint(admins) */\n  0x00\n  mload(0x40)\n  dup1\n  dup4\n  sub\n  dup2\n  0x00\n  dup8\n  dup1\n  extcodesize\n  iszero\n  dup1\n  iszero\n  tag_8\n  jumpi\n  0x00\n  dup1\n  revert\ntag_8:\n  pop\n  gas\n  call\n  iszero\n  dup1\n  iszero\n  tag_10\n  jumpi\n  returndatasize\n  0x00\n  dup1\n  returndatacopy\n  revert(0x00, returndatasize)\ntag_10:\n  pop\n  pop\n  pop\n  pop\n    /* \"contracts/MultilevelTransfer_flattened.sol\":702:983  constructor(address _ERC20address) {... */\n  pop\n    /* \"contracts/MultilevelTransfer_flattened.sol\":350:3006  contract Tokenplay {... */\n  jump(tag_12)\n    /* \"#utility.yul\":14:304   */\ntag_3:\n    /* \"#utility.yul\":84:90   */\n  0x00\n    /* \"#utility.yul\":137:139   */\n  0x20\n    /* \"#utility.yul\":125:134   */\n  dup3\n    /* \"#utility.yul\":116:123   */\n  dup5\n    /* \"#utility.yul\":112:135   */\n  sub\n    /* \"#utility.yul\":108:140   */\n  slt\n    /* \"#utility.yul\":105:157   */\n  iszero\n  tag_14\n  jumpi\n    /* \"#utility.yul\":153:154   */\n  0x00\n    /* \"#utility.yul\":150:151   */\n  dup1\n    /* \"#utility.yul\":143:155   */\n  revert\n    /* \"#utility.yul\":105:157   */\ntag_14:\n    /* \"#utility.yul\":179:195   */\n  dup2\n  mload\n  sub(shl(0xa0, 0x01), 0x01)\n    /* \"#utility.yul\":224:255   */\n  dup2\n  and\n    /* \"#utility.yul\":214:256   */\n  dup2\n  eq\n    /* \"#utility.yul\":204:274   */\n  tag_15\n  jumpi\n    /* \"#utility.yul\":270:271   */\n  0x00\n    /* \"#utility.yul\":267:268   */\n  dup1\n    /* \"#utility.yul\":260:272   */\n  revert\n    /* \"#utility.yul\":204:274   */\ntag_15:\n    /* \"#utility.yul\":293:298   */\n  swap4\n    /* \"#utility.yul\":14:304   */\n  swap3\n  pop\n  pop\n  pop\n  jump\t// out\n    /* \"#utility.yul\":309:512   */\ntag_12:\n    /* \"contracts/MultilevelTransfer_flattened.sol\":350:3006  contract Tokenplay {... */\n  dataSize(sub_0)\n  dup1\n  dataOffset(sub_0)\n  0x00\n  codecopy\n  0x00\n  return\nstop\n\nsub_0: assembly {\n        /* \"contracts/MultilevelTransfer_flattened.sol\":350:3006  contract Tokenplay {... */\n      mstore(0x40, 0x80)\n      callvalue\n      dup1\n      iszero\n      tag_1\n      jumpi\n      0x00\n      dup1\n      revert\n    tag_1:\n      pop\n      jumpi(tag_2, lt(calldatasize, 0x04))\n      shr(0xe0, calldataload(0x00))\n      dup1\n      0x82e4eda4\n      gt\n      tag_11\n      jumpi\n      dup1\n      0x82e4eda4\n      eq\n      tag_7\n      jumpi\n      dup1\n      0xa5de3619\n      eq\n      tag_8\n      jumpi\n      dup1\n      0xb688a363\n      eq\n      tag_9\n      jumpi\n      dup1\n      0xf13ad725\n      eq\n      tag_10\n      jumpi\n      0x00\n      dup1\n      revert\n    tag_11:\n      dup1\n      0x17d70f7c\n      eq\n      tag_3\n      jumpi\n      dup1\n      0x255d45d8\n      eq\n      tag_4\n      jumpi\n      dup1\n      0x5ec01e4d\n      eq\n      tag_5\n      jumpi\n      dup1\n      0x60f96a8f\n      eq\n      tag_6\n      jumpi\n    tag_2:\n      0x00\n      dup1\n      revert\n        /* \"contracts/MultilevelTransfer_flattened.sol\":1362:1622  function tokenId() public {... */\n    tag_3:\n      tag_12\n      tag_13\n      jump\t// in\n    tag_12:\n      stop\n        /* \"contracts/MultilevelTransfer_flattened.sol\":2756:2869  function getparent() public view activeUser returns (address) {... */\n    tag_4:\n      tag_14\n      tag_15\n      jump\t// in\n    tag_14:\n      mload(0x40)\n      sub(shl(0xa0, 0x01), 0x01)\n        /* \"#utility.yul\":178:210   */\n      swap1\n      swap2\n      and\n        /* \"#utility.yul\":160:211   */\n      dup2\n      mstore\n        /* \"#utility.yul\":148:150   */\n      0x20\n        /* \"#utility.yul\":133:151   */\n      add\n        /* \"contracts/MultilevelTransfer_flattened.sol\":2756:2869  function getparent() public view activeUser returns (address) {... */\n    tag_16:\n      mload(0x40)\n      dup1\n      swap2\n      sub\n      swap1\n      return\n        /* \"contracts/MultilevelTransfer_flattened.sol\":472:490  uint public random */\n    tag_5:\n      tag_18\n      sload(0x03)\n      dup2\n      jump\n    tag_18:\n      mload(0x40)\n        /* \"#utility.yul\":368:393   */\n      swap1\n      dup2\n      mstore\n        /* \"#utility.yul\":356:358   */\n      0x20\n        /* \"#utility.yul\":341:359   */\n      add\n        /* \"contracts/MultilevelTransfer_flattened.sol\":472:490  uint public random */\n      tag_16\n        /* \"#utility.yul\":222:399   */\n      jump\n        /* \"contracts/MultilevelTransfer_flattened.sol\":445:466  address public parent */\n    tag_6:\n      sload(0x02)\n      tag_14\n      swap1\n      0x0100\n      swap1\n      div\n      sub(shl(0xa0, 0x01), 0x01)\n      and\n      dup2\n      jump\n        /* \"contracts/MultilevelTransfer_flattened.sol\":530:570  mapping(address => Staker) public staker */\n    tag_7:\n      tag_25\n      tag_26\n      calldatasize\n      0x04\n      tag_27\n      jump\t// in\n    tag_26:\n      mstore(0x20, 0x05)\n      0x00\n      swap1\n      dup2\n      mstore\n      0x40\n      swap1\n      keccak256\n      dup1\n      sload\n      0x01\n      swap1\n      swap2\n      add\n      sload\n      sub(shl(0xa0, 0x01), 0x01)\n      dup2\n      and\n      swap1\n      0xff\n      shl(0xa0, 0x01)\n      dup3\n      div\n      dup2\n      and\n      swap2\n      shl(0xa8, 0x01)\n      swap1\n      div\n      and\n      dup5\n      jump\n    tag_25:\n      0x40\n      dup1\n      mload\n        /* \"#utility.yul\":914:939   */\n      swap5\n      dup6\n      mstore\n      sub(shl(0xa0, 0x01), 0x01)\n        /* \"#utility.yul\":975:1007   */\n      swap1\n      swap4\n      and\n        /* \"#utility.yul\":970:972   */\n      0x20\n        /* \"#utility.yul\":955:973   */\n      dup6\n      add\n        /* \"#utility.yul\":948:1008   */\n      mstore\n        /* \"#utility.yul\":1051:1065   */\n      swap1\n      iszero\n        /* \"#utility.yul\":1044:1066   */\n      iszero\n        /* \"#utility.yul\":1024:1042   */\n      swap2\n      dup4\n      add\n        /* \"#utility.yul\":1017:1067   */\n      swap2\n      swap1\n      swap2\n      mstore\n        /* \"#utility.yul\":1110:1124   */\n      iszero\n        /* \"#utility.yul\":1103:1125   */\n      iszero\n        /* \"#utility.yul\":1098:1100   */\n      0x60\n        /* \"#utility.yul\":1083:1101   */\n      dup3\n      add\n        /* \"#utility.yul\":1076:1126   */\n      mstore\n        /* \"#utility.yul\":901:904   */\n      0x80\n        /* \"#utility.yul\":886:905   */\n      add\n        /* \"contracts/MultilevelTransfer_flattened.sol\":530:570  mapping(address => Staker) public staker */\n      tag_16\n        /* \"#utility.yul\":695:1132   */\n      jump\n        /* \"contracts/MultilevelTransfer_flattened.sol\":375:396  address public admins */\n    tag_8:\n      sload(0x00)\n      tag_14\n      swap1\n      sub(shl(0xa0, 0x01), 0x01)\n      and\n      dup2\n      jump\n        /* \"contracts/MultilevelTransfer_flattened.sol\":1662:2249  function join() public {... */\n    tag_9:\n      tag_12\n      tag_35\n      jump\t// in\n        /* \"contracts/MultilevelTransfer_flattened.sol\":496:523  InterfaceERC20 public inter */\n    tag_10:\n      sload(0x04)\n      tag_14\n      swap1\n      sub(shl(0xa0, 0x01), 0x01)\n      and\n      dup2\n      jump\n        /* \"contracts/MultilevelTransfer_flattened.sol\":1362:1622  function tokenId() public {... */\n    tag_13:\n        /* \"contracts/MultilevelTransfer_flattened.sol\":1414:1424  msg.sender */\n      caller\n        /* \"contracts/MultilevelTransfer_flattened.sol\":1407:1425  staker[msg.sender] */\n      0x00\n      swap1\n      dup2\n      mstore\n        /* \"contracts/MultilevelTransfer_flattened.sol\":1407:1413  staker */\n      0x05\n        /* \"contracts/MultilevelTransfer_flattened.sol\":1407:1425  staker[msg.sender] */\n      0x20\n      mstore\n      0x40\n      swap1\n      keccak256\n        /* \"contracts/MultilevelTransfer_flattened.sol\":1407:1436  staker[msg.sender].activeUser */\n      0x01\n      add\n      sload\n      shl(0xa8, 0x01)\n      swap1\n      div\n      0xff\n      and\n        /* \"contracts/MultilevelTransfer_flattened.sol\":1406:1436  !staker[msg.sender].activeUser */\n      iszero\n        /* \"contracts/MultilevelTransfer_flattened.sol\":1398:1459  require(!staker[msg.sender].activeUser, \"user already exist\") */\n      tag_41\n      jumpi\n      mload(0x40)\n      shl(0xe5, 0x461bcd)\n      dup2\n      mstore\n        /* \"#utility.yul\":1568:1570   */\n      0x20\n        /* \"contracts/MultilevelTransfer_flattened.sol\":1398:1459  require(!staker[msg.sender].activeUser, \"user already exist\") */\n      0x04\n      dup3\n      add\n        /* \"#utility.yul\":1550:1571   */\n      mstore\n        /* \"#utility.yul\":1607:1609   */\n      0x12\n        /* \"#utility.yul\":1587:1605   */\n      0x24\n      dup3\n      add\n        /* \"#utility.yul\":1580:1610   */\n      mstore\n      shl(0x72, 0x1d5cd95c88185b1c9958591e48195e1a5cdd)\n        /* \"#utility.yul\":1626:1644   */\n      0x44\n      dup3\n      add\n        /* \"#utility.yul\":1619:1667   */\n      mstore\n        /* \"#utility.yul\":1684:1702   */\n      0x64\n      add\n        /* \"contracts/MultilevelTransfer_flattened.sol\":1398:1459  require(!staker[msg.sender].activeUser, \"user already exist\") */\n    tag_42:\n      mload(0x40)\n      dup1\n      swap2\n      sub\n      swap1\n      revert\n    tag_41:\n        /* \"contracts/MultilevelTransfer_flattened.sol\":1552:1558  random */\n      sload(0x03)\n        /* \"contracts/MultilevelTransfer_flattened.sol\":1506:1559  abi.encodePacked(msg.sender, block.timestamp, random) */\n      mload(0x40)\n      not(0xffffffffffffffffffffffff)\n        /* \"contracts/MultilevelTransfer_flattened.sol\":1523:1533  msg.sender */\n      caller\n        /* \"#utility.yul\":1918:1920   */\n      0x60\n        /* \"#utility.yul\":1914:1929   */\n      shl\n        /* \"#utility.yul\":1910:1963   */\n      and\n        /* \"contracts/MultilevelTransfer_flattened.sol\":1506:1559  abi.encodePacked(msg.sender, block.timestamp, random) */\n      0x20\n      dup3\n      add\n        /* \"#utility.yul\":1898:1964   */\n      mstore\n        /* \"contracts/MultilevelTransfer_flattened.sol\":1535:1550  block.timestamp */\n      timestamp\n        /* \"#utility.yul\":1980:1992   */\n      0x34\n      dup3\n      add\n        /* \"#utility.yul\":1973:2001   */\n      mstore\n        /* \"#utility.yul\":2017:2029   */\n      0x54\n      dup2\n      add\n        /* \"#utility.yul\":2010:2038   */\n      swap2\n      swap1\n      swap2\n      mstore\n        /* \"#utility.yul\":2054:2066   */\n      0x74\n      add\n        /* \"contracts/MultilevelTransfer_flattened.sol\":1506:1559  abi.encodePacked(msg.sender, block.timestamp, random) */\n      0x40\n      dup1\n      mload\n      not(0x1f)\n      dup2\n      dup5\n      sub\n      add\n      dup2\n      mstore\n      swap2\n      dup2\n      mstore\n        /* \"contracts/MultilevelTransfer_flattened.sol\":1496:1560  keccak256(abi.encodePacked(msg.sender, block.timestamp, random)) */\n      dup2\n      mload\n        /* \"contracts/MultilevelTransfer_flattened.sol\":1506:1559  abi.encodePacked(msg.sender, block.timestamp, random) */\n      0x20\n        /* \"contracts/MultilevelTransfer_flattened.sol\":1496:1560  keccak256(abi.encodePacked(msg.sender, block.timestamp, random)) */\n      swap3\n      dup4\n      add\n      keccak256\n        /* \"contracts/MultilevelTransfer_flattened.sol\":1469:1475  random */\n      0x03\n        /* \"contracts/MultilevelTransfer_flattened.sol\":1469:1570  random = uint(... */\n      dup2\n      swap1\n      sstore\n        /* \"contracts/MultilevelTransfer_flattened.sol\":1587:1597  msg.sender */\n      caller\n        /* \"contracts/MultilevelTransfer_flattened.sol\":1478:1570  uint(... */\n      0x00\n        /* \"contracts/MultilevelTransfer_flattened.sol\":1580:1598  staker[msg.sender] */\n      swap1\n      dup2\n      mstore\n        /* \"contracts/MultilevelTransfer_flattened.sol\":1580:1586  staker */\n      0x05\n        /* \"contracts/MultilevelTransfer_flattened.sol\":1580:1598  staker[msg.sender] */\n      swap1\n      swap4\n      mstore\n      swap2\n      keccak256\n        /* \"contracts/MultilevelTransfer_flattened.sol\":1580:1615  staker[msg.sender].tokenid = random */\n      sstore\n        /* \"contracts/MultilevelTransfer_flattened.sol\":1362:1622  function tokenId() public {... */\n      jump\t// out\n        /* \"contracts/MultilevelTransfer_flattened.sol\":2756:2869  function getparent() public view activeUser returns (address) {... */\n    tag_15:\n        /* \"contracts/MultilevelTransfer_flattened.sol\":1275:1285  msg.sender */\n      caller\n        /* \"contracts/MultilevelTransfer_flattened.sol\":2809:2816  address */\n      0x00\n        /* \"contracts/MultilevelTransfer_flattened.sol\":1268:1286  staker[msg.sender] */\n      swap1\n      dup2\n      mstore\n        /* \"contracts/MultilevelTransfer_flattened.sol\":1268:1274  staker */\n      0x05\n        /* \"contracts/MultilevelTransfer_flattened.sol\":1268:1286  staker[msg.sender] */\n      0x20\n      mstore\n      0x40\n      dup2\n      keccak256\n        /* \"contracts/MultilevelTransfer_flattened.sol\":1268:1297  staker[msg.sender].activeUser */\n      0x01\n      add\n      sload\n      shl(0xa8, 0x01)\n      swap1\n      div\n      0xff\n      and\n        /* \"contracts/MultilevelTransfer_flattened.sol\":1260:1298  require(staker[msg.sender].activeUser) */\n      tag_47\n      jumpi\n      0x00\n      dup1\n      revert\n    tag_47:\n      pop\n        /* \"contracts/MultilevelTransfer_flattened.sol\":2842:2852  msg.sender */\n      caller\n        /* \"contracts/MultilevelTransfer_flattened.sol\":2835:2853  staker[msg.sender] */\n      0x00\n      swap1\n      dup2\n      mstore\n        /* \"contracts/MultilevelTransfer_flattened.sol\":2835:2841  staker */\n      0x05\n        /* \"contracts/MultilevelTransfer_flattened.sol\":2835:2853  staker[msg.sender] */\n      0x20\n      mstore\n      0x40\n      swap1\n      keccak256\n        /* \"contracts/MultilevelTransfer_flattened.sol\":2835:2862  staker[msg.sender].referrer */\n      0x01\n      add\n      sload\n      sub(shl(0xa0, 0x01), 0x01)\n      and\n        /* \"contracts/MultilevelTransfer_flattened.sol\":2756:2869  function getparent() public view activeUser returns (address) {... */\n      swap1\n      jump\t// out\n        /* \"contracts/MultilevelTransfer_flattened.sol\":1662:2249  function join() public {... */\n    tag_35:\n        /* \"contracts/MultilevelTransfer_flattened.sol\":1711:1721  msg.sender */\n      caller\n        /* \"contracts/MultilevelTransfer_flattened.sol\":1704:1722  staker[msg.sender] */\n      0x00\n      swap1\n      dup2\n      mstore\n        /* \"contracts/MultilevelTransfer_flattened.sol\":1704:1710  staker */\n      0x05\n        /* \"contracts/MultilevelTransfer_flattened.sol\":1704:1722  staker[msg.sender] */\n      0x20\n      mstore\n      0x40\n      swap1\n      keccak256\n        /* \"contracts/MultilevelTransfer_flattened.sol\":1704:1733  staker[msg.sender].activeUser */\n      0x01\n      add\n      sload\n      shl(0xa8, 0x01)\n      swap1\n      div\n      0xff\n      and\n        /* \"contracts/MultilevelTransfer_flattened.sol\":1703:1733  !staker[msg.sender].activeUser */\n      iszero\n        /* \"contracts/MultilevelTransfer_flattened.sol\":1695:1756  require(!staker[msg.sender].activeUser, \"user already exist\") */\n      tag_50\n      jumpi\n      mload(0x40)\n      shl(0xe5, 0x461bcd)\n      dup2\n      mstore\n        /* \"#utility.yul\":1568:1570   */\n      0x20\n        /* \"contracts/MultilevelTransfer_flattened.sol\":1695:1756  require(!staker[msg.sender].activeUser, \"user already exist\") */\n      0x04\n      dup3\n      add\n        /* \"#utility.yul\":1550:1571   */\n      mstore\n        /* \"#utility.yul\":1607:1609   */\n      0x12\n        /* \"#utility.yul\":1587:1605   */\n      0x24\n      dup3\n      add\n        /* \"#utility.yul\":1580:1610   */\n      mstore\n      shl(0x72, 0x1d5cd95c88185b1c9958591e48195e1a5cdd)\n        /* \"#utility.yul\":1626:1644   */\n      0x44\n      dup3\n      add\n        /* \"#utility.yul\":1619:1667   */\n      mstore\n        /* \"#utility.yul\":1684:1702   */\n      0x64\n      add\n        /* \"contracts/MultilevelTransfer_flattened.sol\":1695:1756  require(!staker[msg.sender].activeUser, \"user already exist\") */\n      tag_42\n        /* \"#utility.yul\":1366:1708   */\n      jump\n        /* \"contracts/MultilevelTransfer_flattened.sol\":1695:1756  require(!staker[msg.sender].activeUser, \"user already exist\") */\n    tag_50:\n        /* \"contracts/MultilevelTransfer_flattened.sol\":1781:1791  msg.sender */\n      caller\n        /* \"contracts/MultilevelTransfer_flattened.sol\":1774:1792  staker[msg.sender] */\n      0x00\n      swap1\n      dup2\n      mstore\n        /* \"contracts/MultilevelTransfer_flattened.sol\":1774:1780  staker */\n      0x05\n        /* \"contracts/MultilevelTransfer_flattened.sol\":1774:1792  staker[msg.sender] */\n      0x20\n      mstore\n      0x40\n      dup2\n      keccak256\n        /* \"contracts/MultilevelTransfer_flattened.sol\":1774:1800  staker[msg.sender].tokenid */\n      sload\n        /* \"contracts/MultilevelTransfer_flattened.sol\":1774:1805  staker[msg.sender].tokenid != 0 */\n      swap1\n      sub\n        /* \"contracts/MultilevelTransfer_flattened.sol\":1766:1829  require(staker[msg.sender].tokenid != 0, \"Not a valid TokenID\") */\n      tag_52\n      jumpi\n      mload(0x40)\n      shl(0xe5, 0x461bcd)\n      dup2\n      mstore\n        /* \"#utility.yul\":2279:2281   */\n      0x20\n        /* \"contracts/MultilevelTransfer_flattened.sol\":1766:1829  require(staker[msg.sender].tokenid != 0, \"Not a valid TokenID\") */\n      0x04\n      dup3\n      add\n        /* \"#utility.yul\":2261:2282   */\n      mstore\n        /* \"#utility.yul\":2318:2320   */\n      0x13\n        /* \"#utility.yul\":2298:2316   */\n      0x24\n      dup3\n      add\n        /* \"#utility.yul\":2291:2321   */\n      mstore\n      shl(0x6a, 0x139bdd0818481d985b1a5908151bdad95b9251)\n        /* \"#utility.yul\":2337:2355   */\n      0x44\n      dup3\n      add\n        /* \"#utility.yul\":2330:2379   */\n      mstore\n        /* \"#utility.yul\":2396:2414   */\n      0x64\n      add\n        /* \"contracts/MultilevelTransfer_flattened.sol\":1766:1829  require(staker[msg.sender].tokenid != 0, \"Not a valid TokenID\") */\n      tag_42\n        /* \"#utility.yul\":2077:2420   */\n      jump\n        /* \"contracts/MultilevelTransfer_flattened.sol\":1766:1829  require(staker[msg.sender].tokenid != 0, \"Not a valid TokenID\") */\n    tag_52:\n        /* \"contracts/MultilevelTransfer_flattened.sol\":1869:1879  msg.sender */\n      caller\n        /* \"contracts/MultilevelTransfer_flattened.sol\":1862:1880  staker[msg.sender] */\n      0x00\n      swap1\n      dup2\n      mstore\n        /* \"contracts/MultilevelTransfer_flattened.sol\":1862:1868  staker */\n      0x05\n        /* \"contracts/MultilevelTransfer_flattened.sol\":1862:1880  staker[msg.sender] */\n      0x20\n      mstore\n      0x40\n      swap1\n      keccak256\n        /* \"contracts/MultilevelTransfer_flattened.sol\":1862:1892  staker[msg.sender].setreferrer */\n      0x01\n      add\n      sload\n      shl(0xa0, 0x01)\n      swap1\n      div\n      0xff\n      and\n        /* \"contracts/MultilevelTransfer_flattened.sol\":1860:1893  !(staker[msg.sender].setreferrer) */\n      iszero\n        /* \"contracts/MultilevelTransfer_flattened.sol\":1839:1955  require(... */\n      tag_55\n      jumpi\n      mload(0x40)\n      shl(0xe5, 0x461bcd)\n      dup2\n      mstore\n        /* \"#utility.yul\":2627:2629   */\n      0x20\n        /* \"contracts/MultilevelTransfer_flattened.sol\":1839:1955  require(... */\n      0x04\n      dup3\n      add\n        /* \"#utility.yul\":2609:2630   */\n      mstore\n        /* \"#utility.yul\":2666:2668   */\n      0x24\n        /* \"#utility.yul\":2646:2664   */\n      dup1\n      dup3\n      add\n        /* \"#utility.yul\":2639:2669   */\n      mstore\n        /* \"#utility.yul\":2705:2739   */\n      0x526566657272657220416c72656164792075736564204f6e6c79203120616c6c\n        /* \"#utility.yul\":2685:2703   */\n      0x44\n      dup3\n      add\n        /* \"#utility.yul\":2678:2740   */\n      mstore\n      shl(0xe2, 0x1bddd959)\n        /* \"#utility.yul\":2756:2774   */\n      0x64\n      dup3\n      add\n        /* \"#utility.yul\":2749:2783   */\n      mstore\n        /* \"#utility.yul\":2800:2819   */\n      0x84\n      add\n        /* \"contracts/MultilevelTransfer_flattened.sol\":1839:1955  require(... */\n      tag_42\n        /* \"#utility.yul\":2425:2825   */\n      jump\n        /* \"contracts/MultilevelTransfer_flattened.sol\":1839:1955  require(... */\n    tag_55:\n        /* \"contracts/MultilevelTransfer_flattened.sol\":1995:2001  parent */\n      sload(0x02)\n        /* \"contracts/MultilevelTransfer_flattened.sol\":1972:1982  msg.sender */\n      caller\n        /* \"contracts/MultilevelTransfer_flattened.sol\":1965:1983  staker[msg.sender] */\n      0x00\n      swap1\n      dup2\n      mstore\n        /* \"contracts/MultilevelTransfer_flattened.sol\":1965:1971  staker */\n      0x05\n        /* \"contracts/MultilevelTransfer_flattened.sol\":1965:1983  staker[msg.sender] */\n      0x20\n      mstore\n      0x40\n      dup2\n      keccak256\n        /* \"contracts/MultilevelTransfer_flattened.sol\":1995:2001  parent */\n      0x01\n        /* \"contracts/MultilevelTransfer_flattened.sol\":1965:1992  staker[msg.sender].referrer */\n      swap1\n      dup2\n      add\n        /* \"contracts/MultilevelTransfer_flattened.sol\":1965:2001  staker[msg.sender].referrer = parent */\n      dup1\n      sload\n        /* \"contracts/MultilevelTransfer_flattened.sol\":1995:2001  parent */\n      0x0100\n      swap1\n      swap5\n      div\n      sub(shl(0xa0, 0x01), 0x01)\n      and\n      not(sub(shl(0xa0, 0x01), 0x01))\n        /* \"contracts/MultilevelTransfer_flattened.sol\":1965:2001  staker[msg.sender].referrer = parent */\n      swap1\n      swap5\n      and\n      swap4\n      swap1\n      swap4\n      or\n      swap1\n      swap3\n      sstore\n        /* \"contracts/MultilevelTransfer_flattened.sol\":2011:2018  count++ */\n      dup2\n      sload\n      swap2\n        /* \"contracts/MultilevelTransfer_flattened.sol\":1995:2001  parent */\n      swap1\n        /* \"contracts/MultilevelTransfer_flattened.sol\":2011:2018  count++ */\n      tag_58\n      dup4\n      tag_59\n      jump\t// in\n    tag_58:\n      swap2\n      swap1\n      pop\n      sstore\n      pop\n        /* \"contracts/MultilevelTransfer_flattened.sol\":2028:2042  bool validUser */\n      0x00\n        /* \"contracts/MultilevelTransfer_flattened.sol\":2045:2079  isValidTransfer(msg.sender, count) */\n      tag_60\n        /* \"contracts/MultilevelTransfer_flattened.sol\":2061:2071  msg.sender */\n      caller\n        /* \"contracts/MultilevelTransfer_flattened.sol\":2073:2078  count */\n      sload(0x01)\n        /* \"contracts/MultilevelTransfer_flattened.sol\":2045:2060  isValidTransfer */\n      tag_61\n        /* \"contracts/MultilevelTransfer_flattened.sol\":2045:2079  isValidTransfer(msg.sender, count) */\n      jump\t// in\n    tag_60:\n        /* \"contracts/MultilevelTransfer_flattened.sol\":2028:2079  bool validUser = isValidTransfer(msg.sender, count) */\n      swap1\n      pop\n        /* \"contracts/MultilevelTransfer_flattened.sol\":2097:2106  validUser */\n      dup1\n        /* \"contracts/MultilevelTransfer_flattened.sol\":2089:2127  require(validUser, \"Not a valid user\") */\n      tag_62\n      jumpi\n      mload(0x40)\n      shl(0xe5, 0x461bcd)\n      dup2\n      mstore\n        /* \"#utility.yul\":3269:3271   */\n      0x20\n        /* \"contracts/MultilevelTransfer_flattened.sol\":2089:2127  require(validUser, \"Not a valid user\") */\n      0x04\n      dup3\n      add\n        /* \"#utility.yul\":3251:3272   */\n      mstore\n        /* \"#utility.yul\":3308:3310   */\n      0x10\n        /* \"#utility.yul\":3288:3306   */\n      0x24\n      dup3\n      add\n        /* \"#utility.yul\":3281:3311   */\n      mstore\n      shl(0x81, 0x2737ba1030903b30b634b2103ab9b2b9)\n        /* \"#utility.yul\":3327:3345   */\n      0x44\n      dup3\n      add\n        /* \"#utility.yul\":3320:3366   */\n      mstore\n        /* \"#utility.yul\":3383:3401   */\n      0x64\n      add\n        /* \"contracts/MultilevelTransfer_flattened.sol\":2089:2127  require(validUser, \"Not a valid user\") */\n      tag_42\n        /* \"#utility.yul\":3067:3407   */\n      jump\n        /* \"contracts/MultilevelTransfer_flattened.sol\":2089:2127  require(validUser, \"Not a valid user\") */\n    tag_62:\n        /* \"contracts/MultilevelTransfer_flattened.sol\":2144:2154  msg.sender */\n      caller\n        /* \"contracts/MultilevelTransfer_flattened.sol\":2137:2155  staker[msg.sender] */\n      0x00\n      swap1\n      dup2\n      mstore\n        /* \"contracts/MultilevelTransfer_flattened.sol\":2137:2143  staker */\n      0x05\n        /* \"contracts/MultilevelTransfer_flattened.sol\":2137:2155  staker[msg.sender] */\n      0x20\n      mstore\n      0x40\n      dup1\n      dup3\n      keccak256\n        /* \"contracts/MultilevelTransfer_flattened.sol\":2169:2173  true */\n      0x01\n        /* \"contracts/MultilevelTransfer_flattened.sol\":2137:2166  staker[msg.sender].activeUser */\n      swap1\n      dup2\n      add\n        /* \"contracts/MultilevelTransfer_flattened.sol\":2137:2173  staker[msg.sender].activeUser = true */\n      dup1\n      sload\n      not(shl(0xa8, 0xff))\n      and\n      shl(0xa8, 0x01)\n      or\n      swap1\n      sstore\n        /* \"contracts/MultilevelTransfer_flattened.sol\":2190:2196  parent */\n      sload(0x02)\n        /* \"contracts/MultilevelTransfer_flattened.sol\":2137:2173  staker[msg.sender].activeUser = true */\n      0x0100\n        /* \"contracts/MultilevelTransfer_flattened.sol\":2190:2196  parent */\n      swap1\n      div\n      sub(shl(0xa0, 0x01), 0x01)\n      and\n        /* \"contracts/MultilevelTransfer_flattened.sol\":2183:2197  staker[parent] */\n      dup4\n      mstore\n      swap2\n      keccak256\n        /* \"contracts/MultilevelTransfer_flattened.sol\":2183:2209  staker[parent].setreferrer */\n      add\n        /* \"contracts/MultilevelTransfer_flattened.sol\":2183:2216  staker[parent].setreferrer = true */\n      dup1\n      sload\n      not(shl(0xa0, 0xff))\n      and\n      shl(0xa0, 0x01)\n      or\n      swap1\n      sstore\n        /* \"contracts/MultilevelTransfer_flattened.sol\":2226:2242  changingParent() */\n      tag_65\n        /* \"contracts/MultilevelTransfer_flattened.sol\":2226:2240  changingParent */\n      tag_66\n        /* \"contracts/MultilevelTransfer_flattened.sol\":2226:2242  changingParent() */\n      jump\t// in\n    tag_65:\n        /* \"contracts/MultilevelTransfer_flattened.sol\":1685:2249  {... */\n      pop\n        /* \"contracts/MultilevelTransfer_flattened.sol\":1662:2249  function join() public {... */\n      jump\t// out\n        /* \"contracts/MultilevelTransfer_flattened.sol\":2255:2750  function isValidTransfer(... */\n    tag_61:\n        /* \"contracts/MultilevelTransfer_flattened.sol\":2371:2376  inter */\n      0x04\n      dup1\n      sload\n        /* \"contracts/MultilevelTransfer_flattened.sol\":2371:2394  inter.findBalance(user) */\n      mload(0x40)\n      shl(0xe5, 0x067dd27f)\n      dup2\n      mstore\n      sub(shl(0xa0, 0x01), 0x01)\n        /* \"#utility.yul\":178:210   */\n      dup6\n      dup2\n      and\n        /* \"contracts/MultilevelTransfer_flattened.sol\":2371:2394  inter.findBalance(user) */\n      swap4\n      dup3\n      add\n        /* \"#utility.yul\":160:211   */\n      swap4\n      swap1\n      swap4\n      mstore\n        /* \"contracts/MultilevelTransfer_flattened.sol\":2347:2351  bool */\n      0x00\n      swap3\n        /* \"contracts/MultilevelTransfer_flattened.sol\":2398:2401  500 */\n      0x01f4\n      swap3\n        /* \"contracts/MultilevelTransfer_flattened.sol\":2371:2376  inter */\n      and\n      swap1\n        /* \"contracts/MultilevelTransfer_flattened.sol\":2371:2388  inter.findBalance */\n      0xcfba4fe0\n      swap1\n        /* \"#utility.yul\":133:151   */\n      0x24\n      add\n        /* \"contracts/MultilevelTransfer_flattened.sol\":2371:2394  inter.findBalance(user) */\n      0x20\n      mload(0x40)\n      dup1\n      dup4\n      sub\n      dup2\n      0x00\n      dup8\n      gas\n      call\n      iszero\n      dup1\n      iszero\n      tag_70\n      jumpi\n      returndatasize\n      0x00\n      dup1\n      returndatacopy\n      revert(0x00, returndatasize)\n    tag_70:\n      pop\n      pop\n      pop\n      pop\n      mload(0x40)\n      returndatasize\n      not(0x1f)\n      0x1f\n      dup3\n      add\n      and\n      dup3\n      add\n      dup1\n      0x40\n      mstore\n      pop\n      dup2\n      add\n      swap1\n      tag_71\n      swap2\n      swap1\n      tag_72\n      jump\t// in\n    tag_71:\n        /* \"contracts/MultilevelTransfer_flattened.sol\":2371:2401  inter.findBalance(user) >= 500 */\n      lt\n      iszero\n        /* \"contracts/MultilevelTransfer_flattened.sol\":2363:2426  require(inter.findBalance(user) >= 500, \"insufficient balance\") */\n      tag_73\n      jumpi\n      mload(0x40)\n      shl(0xe5, 0x461bcd)\n      dup2\n      mstore\n        /* \"#utility.yul\":3803:3805   */\n      0x20\n        /* \"contracts/MultilevelTransfer_flattened.sol\":2363:2426  require(inter.findBalance(user) >= 500, \"insufficient balance\") */\n      0x04\n      dup3\n      add\n        /* \"#utility.yul\":3785:3806   */\n      mstore\n        /* \"#utility.yul\":3842:3844   */\n      0x14\n        /* \"#utility.yul\":3822:3840   */\n      0x24\n      dup3\n      add\n        /* \"#utility.yul\":3815:3845   */\n      mstore\n      shl(0x60, 0x696e73756666696369656e742062616c616e6365)\n        /* \"#utility.yul\":3861:3879   */\n      0x44\n      dup3\n      add\n        /* \"#utility.yul\":3854:3904   */\n      mstore\n        /* \"#utility.yul\":3921:3939   */\n      0x64\n      add\n        /* \"contracts/MultilevelTransfer_flattened.sol\":2363:2426  require(inter.findBalance(user) >= 500, \"insufficient balance\") */\n      tag_42\n        /* \"#utility.yul\":3601:3945   */\n      jump\n        /* \"contracts/MultilevelTransfer_flattened.sol\":2363:2426  require(inter.findBalance(user) >= 500, \"insufficient balance\") */\n    tag_73:\n        /* \"contracts/MultilevelTransfer_flattened.sol\":2450:2451  2 */\n      0x02\n        /* \"contracts/MultilevelTransfer_flattened.sol\":2440:2446  number */\n      dup3\n        /* \"contracts/MultilevelTransfer_flattened.sol\":2440:2451  number <= 2 */\n      gt\n        /* \"contracts/MultilevelTransfer_flattened.sol\":2436:2723  if (number <= 2) {... */\n      tag_76\n      jumpi\n        /* \"contracts/MultilevelTransfer_flattened.sol\":2467:2472  inter */\n      0x04\n      dup1\n      sload\n      sub(shl(0xa0, 0x01), 0x01)\n        /* \"contracts/MultilevelTransfer_flattened.sol\":2488:2500  staker[user] */\n      dup6\n      dup2\n      and\n        /* \"contracts/MultilevelTransfer_flattened.sol\":2467:2472  inter */\n      0x00\n        /* \"contracts/MultilevelTransfer_flattened.sol\":2488:2500  staker[user] */\n      dup2\n      dup2\n      mstore\n        /* \"contracts/MultilevelTransfer_flattened.sol\":2488:2494  staker */\n      0x05\n        /* \"contracts/MultilevelTransfer_flattened.sol\":2488:2500  staker[user] */\n      0x20\n      mstore\n      0x40\n      swap1\n      dup2\n      swap1\n      keccak256\n        /* \"contracts/MultilevelTransfer_flattened.sol\":2467:2472  inter */\n      0x01\n        /* \"contracts/MultilevelTransfer_flattened.sol\":2488:2509  staker[user].referrer */\n      add\n      sload\n        /* \"contracts/MultilevelTransfer_flattened.sol\":2467:2515  inter.transfer(user, staker[user].referrer, 500) */\n      swap1\n      mload\n      shl(0xe3, 0x17d57599)\n      dup2\n      mstore\n      swap5\n      dup6\n      add\n        /* \"#utility.yul\":4200:4234   */\n      swap2\n      swap1\n      swap2\n      mstore\n        /* \"contracts/MultilevelTransfer_flattened.sol\":2488:2509  staker[user].referrer */\n      dup2\n      and\n        /* \"#utility.yul\":4250:4268   */\n      0x24\n      dup5\n      add\n        /* \"#utility.yul\":4243:4286   */\n      mstore\n        /* \"contracts/MultilevelTransfer_flattened.sol\":2511:2514  500 */\n      0x01f4\n        /* \"#utility.yul\":4302:4320   */\n      0x44\n      dup5\n      add\n        /* \"#utility.yul\":4295:4329   */\n      mstore\n        /* \"contracts/MultilevelTransfer_flattened.sol\":2467:2472  inter */\n      and\n      swap1\n        /* \"contracts/MultilevelTransfer_flattened.sol\":2467:2481  inter.transfer */\n      0xbeabacc8\n      swap1\n        /* \"#utility.yul\":4135:4153   */\n      0x64\n      add\n        /* \"contracts/MultilevelTransfer_flattened.sol\":2467:2515  inter.transfer(user, staker[user].referrer, 500) */\n      0x00\n      mload(0x40)\n      dup1\n      dup4\n      sub\n      dup2\n      0x00\n      dup8\n      dup1\n      extcodesize\n      iszero\n      dup1\n      iszero\n      tag_79\n      jumpi\n      0x00\n      dup1\n      revert\n    tag_79:\n      pop\n      gas\n      call\n      iszero\n      dup1\n      iszero\n      tag_81\n      jumpi\n      returndatasize\n      0x00\n      dup1\n      returndatacopy\n      revert(0x00, returndatasize)\n    tag_81:\n      pop\n      pop\n      pop\n      pop\n        /* \"contracts/MultilevelTransfer_flattened.sol\":2436:2723  if (number <= 2) {... */\n      jump(tag_82)\n    tag_76:\n      sub(shl(0xa0, 0x01), 0x01)\n        /* \"contracts/MultilevelTransfer_flattened.sol\":2564:2576  staker[user] */\n      dup4\n      dup2\n      and\n        /* \"contracts/MultilevelTransfer_flattened.sol\":2546:2561  address parent1 */\n      0x00\n        /* \"contracts/MultilevelTransfer_flattened.sol\":2564:2576  staker[user] */\n      dup2\n      dup2\n      mstore\n        /* \"contracts/MultilevelTransfer_flattened.sol\":2564:2570  staker */\n      0x05\n        /* \"contracts/MultilevelTransfer_flattened.sol\":2564:2576  staker[user] */\n      0x20\n      mstore\n      0x40\n      swap1\n      dup2\n      swap1\n      keccak256\n        /* \"contracts/MultilevelTransfer_flattened.sol\":2564:2585  staker[user].referrer */\n      0x01\n      add\n      sload\n        /* \"contracts/MultilevelTransfer_flattened.sol\":2599:2604  inter */\n      0x04\n      dup1\n      sload\n        /* \"contracts/MultilevelTransfer_flattened.sol\":2599:2647  inter.transfer(user, staker[user].referrer, 300) */\n      swap3\n      mload\n      shl(0xe3, 0x17d57599)\n      dup2\n      mstore\n      swap1\n      dup2\n      add\n        /* \"#utility.yul\":4200:4234   */\n      swap4\n      swap1\n      swap4\n      mstore\n        /* \"contracts/MultilevelTransfer_flattened.sol\":2564:2585  staker[user].referrer */\n      dup4\n      and\n        /* \"#utility.yul\":4250:4268   */\n      0x24\n      dup4\n      add\n        /* \"#utility.yul\":4243:4286   */\n      dup2\n      swap1\n      mstore\n        /* \"contracts/MultilevelTransfer_flattened.sol\":2643:2646  300 */\n      0x012c\n        /* \"#utility.yul\":4302:4320   */\n      0x44\n      dup5\n      add\n        /* \"#utility.yul\":4295:4329   */\n      mstore\n        /* \"contracts/MultilevelTransfer_flattened.sol\":2564:2585  staker[user].referrer */\n      swap3\n        /* \"contracts/MultilevelTransfer_flattened.sol\":2599:2604  inter */\n      and\n      swap1\n        /* \"contracts/MultilevelTransfer_flattened.sol\":2599:2613  inter.transfer */\n      0xbeabacc8\n      swap1\n        /* \"#utility.yul\":4135:4153   */\n      0x64\n      add\n        /* \"contracts/MultilevelTransfer_flattened.sol\":2599:2647  inter.transfer(user, staker[user].referrer, 300) */\n      0x00\n      mload(0x40)\n      dup1\n      dup4\n      sub\n      dup2\n      0x00\n      dup8\n      dup1\n      extcodesize\n      iszero\n      dup1\n      iszero\n      tag_85\n      jumpi\n      0x00\n      dup1\n      revert\n    tag_85:\n      pop\n      gas\n      call\n      iszero\n      dup1\n      iszero\n      tag_87\n      jumpi\n      returndatasize\n      0x00\n      dup1\n      returndatacopy\n      revert(0x00, returndatasize)\n    tag_87:\n      pop\n      pop\n        /* \"contracts/MultilevelTransfer_flattened.sol\":2661:2666  inter */\n      0x04\n      dup1\n      sload\n      sub(shl(0xa0, 0x01), 0x01)\n        /* \"contracts/MultilevelTransfer_flattened.sol\":2682:2697  staker[parent1] */\n      dup6\n      dup2\n      and\n        /* \"contracts/MultilevelTransfer_flattened.sol\":2661:2666  inter */\n      0x00\n        /* \"contracts/MultilevelTransfer_flattened.sol\":2682:2697  staker[parent1] */\n      swap1\n      dup2\n      mstore\n        /* \"contracts/MultilevelTransfer_flattened.sol\":2682:2688  staker */\n      0x05\n        /* \"contracts/MultilevelTransfer_flattened.sol\":2682:2697  staker[parent1] */\n      0x20\n      mstore\n      0x40\n      swap1\n      dup2\n      swap1\n      keccak256\n        /* \"contracts/MultilevelTransfer_flattened.sol\":2661:2666  inter */\n      0x01\n        /* \"contracts/MultilevelTransfer_flattened.sol\":2682:2706  staker[parent1].referrer */\n      add\n      sload\n        /* \"contracts/MultilevelTransfer_flattened.sol\":2661:2712  inter.transfer(user, staker[parent1].referrer, 200) */\n      swap1\n      mload\n      shl(0xe3, 0x17d57599)\n      dup2\n      mstore\n        /* \"#utility.yul\":4218:4233   */\n      dup11\n      dup4\n      and\n        /* \"contracts/MultilevelTransfer_flattened.sol\":2661:2712  inter.transfer(user, staker[parent1].referrer, 200) */\n      swap5\n      dup2\n      add\n        /* \"#utility.yul\":4200:4234   */\n      swap5\n      swap1\n      swap5\n      mstore\n        /* \"contracts/MultilevelTransfer_flattened.sol\":2682:2706  staker[parent1].referrer */\n      dup2\n      and\n        /* \"#utility.yul\":4250:4268   */\n      0x24\n      dup5\n      add\n        /* \"#utility.yul\":4243:4286   */\n      mstore\n        /* \"contracts/MultilevelTransfer_flattened.sol\":2708:2711  200 */\n      0xc8\n        /* \"#utility.yul\":4302:4320   */\n      0x44\n      dup5\n      add\n        /* \"#utility.yul\":4295:4329   */\n      mstore\n        /* \"contracts/MultilevelTransfer_flattened.sol\":2661:2666  inter */\n      and\n      swap3\n      pop\n        /* \"contracts/MultilevelTransfer_flattened.sol\":2661:2675  inter.transfer */\n      0xbeabacc8\n      swap2\n      pop\n        /* \"#utility.yul\":4135:4153   */\n      0x64\n      add\n        /* \"contracts/MultilevelTransfer_flattened.sol\":2661:2712  inter.transfer(user, staker[parent1].referrer, 200) */\n      0x00\n      mload(0x40)\n      dup1\n      dup4\n      sub\n      dup2\n      0x00\n      dup8\n      dup1\n      extcodesize\n      iszero\n      dup1\n      iszero\n      tag_90\n      jumpi\n      0x00\n      dup1\n      revert\n    tag_90:\n      pop\n      gas\n      call\n      iszero\n      dup1\n      iszero\n      tag_92\n      jumpi\n      returndatasize\n      0x00\n      dup1\n      returndatacopy\n      revert(0x00, returndatasize)\n    tag_92:\n      pop\n      pop\n      pop\n      pop\n        /* \"contracts/MultilevelTransfer_flattened.sol\":2532:2723  {... */\n      pop\n        /* \"contracts/MultilevelTransfer_flattened.sol\":2436:2723  if (number <= 2) {... */\n    tag_82:\n      pop\n        /* \"contracts/MultilevelTransfer_flattened.sol\":2739:2743  true */\n      0x01\n        /* \"contracts/MultilevelTransfer_flattened.sol\":2255:2750  function isValidTransfer(... */\n      swap3\n      swap2\n      pop\n      pop\n      jump\t// out\n        /* \"contracts/MultilevelTransfer_flattened.sol\":2922:3004  function changingParent() internal activeUser {... */\n    tag_66:\n        /* \"contracts/MultilevelTransfer_flattened.sol\":1275:1285  msg.sender */\n      caller\n        /* \"contracts/MultilevelTransfer_flattened.sol\":1268:1286  staker[msg.sender] */\n      0x00\n      swap1\n      dup2\n      mstore\n        /* \"contracts/MultilevelTransfer_flattened.sol\":1268:1274  staker */\n      0x05\n        /* \"contracts/MultilevelTransfer_flattened.sol\":1268:1286  staker[msg.sender] */\n      0x20\n      mstore\n      0x40\n      swap1\n      keccak256\n        /* \"contracts/MultilevelTransfer_flattened.sol\":1268:1297  staker[msg.sender].activeUser */\n      0x01\n      add\n      sload\n      shl(0xa8, 0x01)\n      swap1\n      div\n      0xff\n      and\n        /* \"contracts/MultilevelTransfer_flattened.sol\":1260:1298  require(staker[msg.sender].activeUser) */\n      tag_94\n      jumpi\n      0x00\n      dup1\n      revert\n    tag_94:\n        /* \"contracts/MultilevelTransfer_flattened.sol\":2978:2984  parent */\n      0x02\n        /* \"contracts/MultilevelTransfer_flattened.sol\":2978:2997  parent = msg.sender */\n      dup1\n      sload\n      not(sub(shl(0xa8, 0x01), 0x0100))\n      and\n        /* \"contracts/MultilevelTransfer_flattened.sol\":2987:2997  msg.sender */\n      caller\n        /* \"contracts/MultilevelTransfer_flattened.sol\":2978:2997  parent = msg.sender */\n      0x0100\n      mul\n      or\n      swap1\n      sstore\n        /* \"contracts/MultilevelTransfer_flattened.sol\":2922:3004  function changingParent() internal activeUser {... */\n      jump\t// out\n        /* \"#utility.yul\":404:690   */\n    tag_27:\n        /* \"#utility.yul\":463:469   */\n      0x00\n        /* \"#utility.yul\":516:518   */\n      0x20\n        /* \"#utility.yul\":504:513   */\n      dup3\n        /* \"#utility.yul\":495:502   */\n      dup5\n        /* \"#utility.yul\":491:514   */\n      sub\n        /* \"#utility.yul\":487:519   */\n      slt\n        /* \"#utility.yul\":484:536   */\n      iszero\n      tag_100\n      jumpi\n        /* \"#utility.yul\":532:533   */\n      0x00\n        /* \"#utility.yul\":529:530   */\n      dup1\n        /* \"#utility.yul\":522:534   */\n      revert\n        /* \"#utility.yul\":484:536   */\n    tag_100:\n        /* \"#utility.yul\":558:581   */\n      dup2\n      calldataload\n      sub(shl(0xa0, 0x01), 0x01)\n        /* \"#utility.yul\":610:641   */\n      dup2\n      and\n        /* \"#utility.yul\":600:642   */\n      dup2\n      eq\n        /* \"#utility.yul\":590:660   */\n      tag_101\n      jumpi\n        /* \"#utility.yul\":656:657   */\n      0x00\n        /* \"#utility.yul\":653:654   */\n      dup1\n        /* \"#utility.yul\":646:658   */\n      revert\n        /* \"#utility.yul\":590:660   */\n    tag_101:\n        /* \"#utility.yul\":679:684   */\n      swap4\n        /* \"#utility.yul\":404:690   */\n      swap3\n      pop\n      pop\n      pop\n      jump\t// out\n        /* \"#utility.yul\":2830:3062   */\n    tag_59:\n        /* \"#utility.yul\":2869:2872   */\n      0x00\n        /* \"#utility.yul\":2890:2907   */\n      0x01\n      dup3\n      add\n        /* \"#utility.yul\":2887:3027   */\n      tag_109\n      jumpi\n        /* \"#utility.yul\":2949:2959   */\n      0x4e487b71\n        /* \"#utility.yul\":2944:2947   */\n      0xe0\n        /* \"#utility.yul\":2940:2960   */\n      shl\n        /* \"#utility.yul\":2937:2938   */\n      0x00\n        /* \"#utility.yul\":2930:2961   */\n      mstore\n        /* \"#utility.yul\":2984:2988   */\n      0x11\n        /* \"#utility.yul\":2981:2982   */\n      0x04\n        /* \"#utility.yul\":2974:2989   */\n      mstore\n        /* \"#utility.yul\":3012:3016   */\n      0x24\n        /* \"#utility.yul\":3009:3010   */\n      0x00\n        /* \"#utility.yul\":3002:3017   */\n      revert\n        /* \"#utility.yul\":2887:3027   */\n    tag_109:\n      pop\n        /* \"#utility.yul\":3054:3055   */\n      0x01\n        /* \"#utility.yul\":3043:3056   */\n      add\n      swap1\n        /* \"#utility.yul\":2830:3062   */\n      jump\t// out\n        /* \"#utility.yul\":3412:3596   */\n    tag_72:\n        /* \"#utility.yul\":3482:3488   */\n      0x00\n        /* \"#utility.yul\":3535:3537   */\n      0x20\n        /* \"#utility.yul\":3523:3532   */\n      dup3\n        /* \"#utility.yul\":3514:3521   */\n      dup5\n        /* \"#utility.yul\":3510:3533   */\n      sub\n        /* \"#utility.yul\":3506:3538   */\n      slt\n        /* \"#utility.yul\":3503:3555   */\n      iszero\n      tag_112\n      jumpi\n        /* \"#utility.yul\":3551:3552   */\n      0x00\n        /* \"#utility.yul\":3548:3549   */\n      dup1\n        /* \"#utility.yul\":3541:3553   */\n      revert\n        /* \"#utility.yul\":3503:3555   */\n    tag_112:\n      pop\n        /* \"#utility.yul\":3574:3590   */\n      mload\n      swap2\n        /* \"#utility.yul\":3412:3596   */\n      swap1\n      pop\n      jump\t// out\n\n    auxdata: 0xa2646970667358221220f91e3c1f8ae6b6746c2364a4595981e157a986cc2cfafb0aca997468d8bf3aa064736f6c63430008140033\n}\n",
				"bytecode": {
					"linkReferences": {},
					"object": "60806040525f600155348015610013575f80fd5b506040516108f93803806108f9833981016040819052610032916100f8565b600480546001600160a01b038381166001600160a01b03199283161783555f8054909216339081178355808352600560205260408084206001908101805460ff60a81b1916600160a81b17905560028054610100909402610100600160a81b0319909416939093179092559080558354925490516335313c2160e11b8152908216938101939093521690636a627842906024015f604051808303815f87803b1580156100dc575f80fd5b505af11580156100ee573d5f803e3d5ffd5b5050505050610125565b5f60208284031215610108575f80fd5b81516001600160a01b038116811461011e575f80fd5b9392505050565b6107c7806101325f395ff3fe608060405234801561000f575f80fd5b5060043610610085575f3560e01c806382e4eda41161005857806382e4eda4146100e7578063a5de36191461015c578063b688a3631461016e578063f13ad72514610176575f80fd5b806317d70f7c14610089578063255d45d8146100935780635ec01e4d146100b857806360f96a8f146100cf575b5f80fd5b610091610189565b005b61009b610247565b6040516001600160a01b0390911681526020015b60405180910390f35b6100c160035481565b6040519081526020016100af565b60025461009b9061010090046001600160a01b031681565b61012c6100f5366004610729565b60056020525f9081526040902080546001909101546001600160a01b0381169060ff600160a01b8204811691600160a81b90041684565b604080519485526001600160a01b03909316602085015290151591830191909152151560608201526080016100af565b5f5461009b906001600160a01b031681565b61009161028a565b60045461009b906001600160a01b031681565b335f90815260056020526040902060010154600160a81b900460ff16156101ec5760405162461bcd60e51b81526020600482015260126024820152711d5cd95c88185b1c9958591e48195e1a5cdd60721b60448201526064015b60405180910390fd5b6003546040516bffffffffffffffffffffffff193360601b166020820152426034820152605481019190915260740160408051601f1981840301815291815281516020928301206003819055335f9081526005909352912055565b335f90815260056020526040812060010154600160a81b900460ff1661026b575f80fd5b50335f908152600560205260409020600101546001600160a01b031690565b335f90815260056020526040902060010154600160a81b900460ff16156102e85760405162461bcd60e51b81526020600482015260126024820152711d5cd95c88185b1c9958591e48195e1a5cdd60721b60448201526064016101e3565b335f90815260056020526040812054900361033b5760405162461bcd60e51b8152602060048201526013602482015272139bdd0818481d985b1a5908151bdad95b9251606a1b60448201526064016101e3565b335f90815260056020526040902060010154600160a01b900460ff16156103b05760405162461bcd60e51b8152602060048201526024808201527f526566657272657220416c72656164792075736564204f6e6c79203120616c6c6044820152631bddd95960e21b60648201526084016101e3565b600254335f908152600560205260408120600190810180546101009094046001600160a01b03166001600160a01b031990941693909317909255815491906103f783610756565b91905055505f610409336001546104a2565b90508061044b5760405162461bcd60e51b815260206004820152601060248201526f2737ba1030903b30b634b2103ab9b2b960811b60448201526064016101e3565b335f908152600560205260408082206001908101805460ff60a81b1916600160a81b17905560025461010090046001600160a01b03168352912001805460ff60a01b1916600160a01b17905561049f6106ec565b50565b6004805460405163067dd27f60e51b81526001600160a01b03858116938201939093525f926101f492169063cfba4fe0906024016020604051808303815f875af11580156104f2573d5f803e3d5ffd5b505050506040513d601f19601f82011682018060405250810190610516919061077a565b101561055b5760405162461bcd60e51b8152602060048201526014602482015273696e73756666696369656e742062616c616e636560601b60448201526064016101e3565b600282116105e457600480546001600160a01b038581165f81815260056020526040908190206001015490516317d5759960e31b815294850191909152811660248401526101f46044840152169063beabacc8906064015f604051808303815f87803b1580156105c9575f80fd5b505af11580156105db573d5f803e3d5ffd5b505050506106e3565b6001600160a01b038381165f8181526005602052604090819020600101546004805492516317d5759960e31b81529081019390935283166024830181905261012c604484015292169063beabacc8906064015f604051808303815f87803b15801561064d575f80fd5b505af115801561065f573d5f803e3d5ffd5b5050600480546001600160a01b038581165f90815260056020526040908190206001015490516317d5759960e31b81528a8316948101949094528116602484015260c8604484015216925063beabacc891506064015f604051808303815f87803b1580156106cb575f80fd5b505af11580156106dd573d5f803e3d5ffd5b50505050505b50600192915050565b335f90815260056020526040902060010154600160a81b900460ff16610710575f80fd5b60028054610100600160a81b0319163361010002179055565b5f60208284031215610739575f80fd5b81356001600160a01b038116811461074f575f80fd5b9392505050565b5f6001820161077357634e487b7160e01b5f52601160045260245ffd5b5060010190565b5f6020828403121561078a575f80fd5b505191905056fea2646970667358221220f91e3c1f8ae6b6746c2364a4595981e157a986cc2cfafb0aca997468d8bf3aa064736f6c63430008140033",
					"opcodes": "PUSH1 0x80 PUSH1 0x40 MSTORE PUSH0 PUSH1 0x1 SSTORE CALLVALUE DUP1 ISZERO PUSH2 0x13 JUMPI PUSH0 DUP1 REVERT JUMPDEST POP PUSH1 0x40 MLOAD PUSH2 0x8F9 CODESIZE SUB DUP1 PUSH2 0x8F9 DUP4 CODECOPY DUP2 ADD PUSH1 0x40 DUP2 SWAP1 MSTORE PUSH2 0x32 SWAP2 PUSH2 0xF8 JUMP JUMPDEST PUSH1 0x4 DUP1 SLOAD PUSH1 0x1 PUSH1 0x1 PUSH1 0xA0 SHL SUB DUP4 DUP2 AND PUSH1 0x1 PUSH1 0x1 PUSH1 0xA0 SHL SUB NOT SWAP3 DUP4 AND OR DUP4 SSTORE PUSH0 DUP1 SLOAD SWAP1 SWAP3 AND CALLER SWAP1 DUP2 OR DUP4 SSTORE DUP1 DUP4 MSTORE PUSH1 0x5 PUSH1 0x20 MSTORE PUSH1 0x40 DUP1 DUP5 KECCAK256 PUSH1 0x1 SWAP1 DUP2 ADD DUP1 SLOAD PUSH1 0xFF PUSH1 0xA8 SHL NOT AND PUSH1 0x1 PUSH1 0xA8 SHL OR SWAP1 SSTORE PUSH1 0x2 DUP1 SLOAD PUSH2 0x100 SWAP1 SWAP5 MUL PUSH2 0x100 PUSH1 0x1 PUSH1 0xA8 SHL SUB NOT SWAP1 SWAP5 AND SWAP4 SWAP1 SWAP4 OR SWAP1 SWAP3 SSTORE SWAP1 DUP1 SSTORE DUP4 SLOAD SWAP3 SLOAD SWAP1 MLOAD PUSH4 0x35313C21 PUSH1 0xE1 SHL DUP2 MSTORE SWAP1 DUP3 AND SWAP4 DUP2 ADD SWAP4 SWAP1 SWAP4 MSTORE AND SWAP1 PUSH4 0x6A627842 SWAP1 PUSH1 0x24 ADD PUSH0 PUSH1 0x40 MLOAD DUP1 DUP4 SUB DUP2 PUSH0 DUP8 DUP1 EXTCODESIZE ISZERO DUP1 ISZERO PUSH2 0xDC JUMPI PUSH0 DUP1 REVERT JUMPDEST POP GAS CALL ISZERO DUP1 ISZERO PUSH2 0xEE JUMPI RETURNDATASIZE PUSH0 DUP1 RETURNDATACOPY RETURNDATASIZE PUSH0 REVERT JUMPDEST POP POP POP POP POP PUSH2 0x125 JUMP JUMPDEST PUSH0 PUSH1 0x20 DUP3 DUP5 SUB SLT ISZERO PUSH2 0x108 JUMPI PUSH0 DUP1 REVERT JUMPDEST DUP2 MLOAD PUSH1 0x1 PUSH1 0x1 PUSH1 0xA0 SHL SUB DUP2 AND DUP2 EQ PUSH2 0x11E JUMPI PUSH0 DUP1 REVERT JUMPDEST SWAP4 SWAP3 POP POP POP JUMP JUMPDEST PUSH2 0x7C7 DUP1 PUSH2 0x132 PUSH0 CODECOPY PUSH0 RETURN INVALID PUSH1 0x80 PUSH1 0x40 MSTORE CALLVALUE DUP1 ISZERO PUSH2 0xF JUMPI PUSH0 DUP1 REVERT JUMPDEST POP PUSH1 0x4 CALLDATASIZE LT PUSH2 0x85 JUMPI PUSH0 CALLDATALOAD PUSH1 0xE0 SHR DUP1 PUSH4 0x82E4EDA4 GT PUSH2 0x58 JUMPI DUP1 PUSH4 0x82E4EDA4 EQ PUSH2 0xE7 JUMPI DUP1 PUSH4 0xA5DE3619 EQ PUSH2 0x15C JUMPI DUP1 PUSH4 0xB688A363 EQ PUSH2 0x16E JUMPI DUP1 PUSH4 0xF13AD725 EQ PUSH2 0x176 JUMPI PUSH0 DUP1 REVERT JUMPDEST DUP1 PUSH4 0x17D70F7C EQ PUSH2 0x89 JUMPI DUP1 PUSH4 0x255D45D8 EQ PUSH2 0x93 JUMPI DUP1 PUSH4 0x5EC01E4D EQ PUSH2 0xB8 JUMPI DUP1 PUSH4 0x60F96A8F EQ PUSH2 0xCF JUMPI JUMPDEST PUSH0 DUP1 REVERT JUMPDEST PUSH2 0x91 PUSH2 0x189 JUMP JUMPDEST STOP JUMPDEST PUSH2 0x9B PUSH2 0x247 JUMP JUMPDEST PUSH1 0x40 MLOAD PUSH1 0x1 PUSH1 0x1 PUSH1 0xA0 SHL SUB SWAP1 SWAP2 AND DUP2 MSTORE PUSH1 0x20 ADD JUMPDEST PUSH1 0x40 MLOAD DUP1 SWAP2 SUB SWAP1 RETURN JUMPDEST PUSH2 0xC1 PUSH1 0x3 SLOAD DUP2 JUMP JUMPDEST PUSH1 0x40 MLOAD SWAP1 DUP2 MSTORE PUSH1 0x20 ADD PUSH2 0xAF JUMP JUMPDEST PUSH1 0x2 SLOAD PUSH2 0x9B SWAP1 PUSH2 0x100 SWAP1 DIV PUSH1 0x1 PUSH1 0x1 PUSH1 0xA0 SHL SUB AND DUP2 JUMP JUMPDEST PUSH2 0x12C PUSH2 0xF5 CALLDATASIZE PUSH1 0x4 PUSH2 0x729 JUMP JUMPDEST PUSH1 0x5 PUSH1 0x20 MSTORE PUSH0 SWAP1 DUP2 MSTORE PUSH1 0x40 SWAP1 KECCAK256 DUP1 SLOAD PUSH1 0x1 SWAP1 SWAP2 ADD SLOAD PUSH1 0x1 PUSH1 0x1 PUSH1 0xA0 SHL SUB DUP2 AND SWAP1 PUSH1 0xFF PUSH1 0x1 PUSH1 0xA0 SHL DUP3 DIV DUP2 AND SWAP2 PUSH1 0x1 PUSH1 0xA8 SHL SWAP1 DIV AND DUP5 JUMP JUMPDEST PUSH1 0x40 DUP1 MLOAD SWAP5 DUP6 MSTORE PUSH1 0x1 PUSH1 0x1 PUSH1 0xA0 SHL SUB SWAP1 SWAP4 AND PUSH1 0x20 DUP6 ADD MSTORE SWAP1 ISZERO ISZERO SWAP2 DUP4 ADD SWAP2 SWAP1 SWAP2 MSTORE ISZERO ISZERO PUSH1 0x60 DUP3 ADD MSTORE PUSH1 0x80 ADD PUSH2 0xAF JUMP JUMPDEST PUSH0 SLOAD PUSH2 0x9B SWAP1 PUSH1 0x1 PUSH1 0x1 PUSH1 0xA0 SHL SUB AND DUP2 JUMP JUMPDEST PUSH2 0x91 PUSH2 0x28A JUMP JUMPDEST PUSH1 0x4 SLOAD PUSH2 0x9B SWAP1 PUSH1 0x1 PUSH1 0x1 PUSH1 0xA0 SHL SUB AND DUP2 JUMP JUMPDEST CALLER PUSH0 SWAP1 DUP2 MSTORE PUSH1 0x5 PUSH1 0x20 MSTORE PUSH1 0x40 SWAP1 KECCAK256 PUSH1 0x1 ADD SLOAD PUSH1 0x1 PUSH1 0xA8 SHL SWAP1 DIV PUSH1 0xFF AND ISZERO PUSH2 0x1EC JUMPI PUSH1 0x40 MLOAD PUSH3 0x461BCD PUSH1 0xE5 SHL DUP2 MSTORE PUSH1 0x20 PUSH1 0x4 DUP3 ADD MSTORE PUSH1 0x12 PUSH1 0x24 DUP3 ADD MSTORE PUSH18 0x1D5CD95C88185B1C9958591E48195E1A5CDD PUSH1 0x72 SHL PUSH1 0x44 DUP3 ADD MSTORE PUSH1 0x64 ADD JUMPDEST PUSH1 0x40 MLOAD DUP1 SWAP2 SUB SWAP1 REVERT JUMPDEST PUSH1 0x3 SLOAD PUSH1 0x40 MLOAD PUSH12 0xFFFFFFFFFFFFFFFFFFFFFFFF NOT CALLER PUSH1 0x60 SHL AND PUSH1 0x20 DUP3 ADD MSTORE TIMESTAMP PUSH1 0x34 DUP3 ADD MSTORE PUSH1 0x54 DUP2 ADD SWAP2 SWAP1 SWAP2 MSTORE PUSH1 0x74 ADD PUSH1 0x40 DUP1 MLOAD PUSH1 0x1F NOT DUP2 DUP5 SUB ADD DUP2 MSTORE SWAP2 DUP2 MSTORE DUP2 MLOAD PUSH1 0x20 SWAP3 DUP4 ADD KECCAK256 PUSH1 0x3 DUP2 SWAP1 SSTORE CALLER PUSH0 SWAP1 DUP2 MSTORE PUSH1 0x5 SWAP1 SWAP4 MSTORE SWAP2 KECCAK256 SSTORE JUMP JUMPDEST CALLER PUSH0 SWAP1 DUP2 MSTORE PUSH1 0x5 PUSH1 0x20 MSTORE PUSH1 0x40 DUP2 KECCAK256 PUSH1 0x1 ADD SLOAD PUSH1 0x1 PUSH1 0xA8 SHL SWAP1 DIV PUSH1 0xFF AND PUSH2 0x26B JUMPI PUSH0 DUP1 REVERT JUMPDEST POP CALLER PUSH0 SWAP1 DUP2 MSTORE PUSH1 0x5 PUSH1 0x20 MSTORE PUSH1 0x40 SWAP1 KECCAK256 PUSH1 0x1 ADD SLOAD PUSH1 0x1 PUSH1 0x1 PUSH1 0xA0 SHL SUB AND SWAP1 JUMP JUMPDEST CALLER PUSH0 SWAP1 DUP2 MSTORE PUSH1 0x5 PUSH1 0x20 MSTORE PUSH1 0x40 SWAP1 KECCAK256 PUSH1 0x1 ADD SLOAD PUSH1 0x1 PUSH1 0xA8 SHL SWAP1 DIV PUSH1 0xFF AND ISZERO PUSH2 0x2E8 JUMPI PUSH1 0x40 MLOAD PUSH3 0x461BCD PUSH1 0xE5 SHL DUP2 MSTORE PUSH1 0x20 PUSH1 0x4 DUP3 ADD MSTORE PUSH1 0x12 PUSH1 0x24 DUP3 ADD MSTORE PUSH18 0x1D5CD95C88185B1C9958591E48195E1A5CDD PUSH1 0x72 SHL PUSH1 0x44 DUP3 ADD MSTORE PUSH1 0x64 ADD PUSH2 0x1E3 JUMP JUMPDEST CALLER PUSH0 SWAP1 DUP2 MSTORE PUSH1 0x5 PUSH1 0x20 MSTORE PUSH1 0x40 DUP2 KECCAK256 SLOAD SWAP1 SUB PUSH2 0x33B JUMPI PUSH1 0x40 MLOAD PUSH3 0x461BCD PUSH1 0xE5 SHL DUP2 MSTORE PUSH1 0x20 PUSH1 0x4 DUP3 ADD MSTORE PUSH1 0x13 PUSH1 0x24 DUP3 ADD MSTORE PUSH19 0x139BDD0818481D985B1A5908151BDAD95B9251 PUSH1 0x6A SHL PUSH1 0x44 DUP3 ADD MSTORE PUSH1 0x64 ADD PUSH2 0x1E3 JUMP JUMPDEST CALLER PUSH0 SWAP1 DUP2 MSTORE PUSH1 0x5 PUSH1 0x20 MSTORE PUSH1 0x40 SWAP1 KECCAK256 PUSH1 0x1 ADD SLOAD PUSH1 0x1 PUSH1 0xA0 SHL SWAP1 DIV PUSH1 0xFF AND ISZERO PUSH2 0x3B0 JUMPI PUSH1 0x40 MLOAD PUSH3 0x461BCD PUSH1 0xE5 SHL DUP2 MSTORE PUSH1 0x20 PUSH1 0x4 DUP3 ADD MSTORE PUSH1 0x24 DUP1 DUP3 ADD MSTORE PUSH32 0x526566657272657220416C72656164792075736564204F6E6C79203120616C6C PUSH1 0x44 DUP3 ADD MSTORE PUSH4 0x1BDDD959 PUSH1 0xE2 SHL PUSH1 0x64 DUP3 ADD MSTORE PUSH1 0x84 ADD PUSH2 0x1E3 JUMP JUMPDEST PUSH1 0x2 SLOAD CALLER PUSH0 SWAP1 DUP2 MSTORE PUSH1 0x5 PUSH1 0x20 MSTORE PUSH1 0x40 DUP2 KECCAK256 PUSH1 0x1 SWAP1 DUP2 ADD DUP1 SLOAD PUSH2 0x100 SWAP1 SWAP5 DIV PUSH1 0x1 PUSH1 0x1 PUSH1 0xA0 SHL SUB AND PUSH1 0x1 PUSH1 0x1 PUSH1 0xA0 SHL SUB NOT SWAP1 SWAP5 AND SWAP4 SWAP1 SWAP4 OR SWAP1 SWAP3 SSTORE DUP2 SLOAD SWAP2 SWAP1 PUSH2 0x3F7 DUP4 PUSH2 0x756 JUMP JUMPDEST SWAP2 SWAP1 POP SSTORE POP PUSH0 PUSH2 0x409 CALLER PUSH1 0x1 SLOAD PUSH2 0x4A2 JUMP JUMPDEST SWAP1 POP DUP1 PUSH2 0x44B JUMPI PUSH1 0x40 MLOAD PUSH3 0x461BCD PUSH1 0xE5 SHL DUP2 MSTORE PUSH1 0x20 PUSH1 0x4 DUP3 ADD MSTORE PUSH1 0x10 PUSH1 0x24 DUP3 ADD MSTORE PUSH16 0x2737BA1030903B30B634B2103AB9B2B9 PUSH1 0x81 SHL PUSH1 0x44 DUP3 ADD MSTORE PUSH1 0x64 ADD PUSH2 0x1E3 JUMP JUMPDEST CALLER PUSH0 SWAP1 DUP2 MSTORE PUSH1 0x5 PUSH1 0x20 MSTORE PUSH1 0x40 DUP1 DUP3 KECCAK256 PUSH1 0x1 SWAP1 DUP2 ADD DUP1 SLOAD PUSH1 0xFF PUSH1 0xA8 SHL NOT AND PUSH1 0x1 PUSH1 0xA8 SHL OR SWAP1 SSTORE PUSH1 0x2 SLOAD PUSH2 0x100 SWAP1 DIV PUSH1 0x1 PUSH1 0x1 PUSH1 0xA0 SHL SUB AND DUP4 MSTORE SWAP2 KECCAK256 ADD DUP1 SLOAD PUSH1 0xFF PUSH1 0xA0 SHL NOT AND PUSH1 0x1 PUSH1 0xA0 SHL OR SWAP1 SSTORE PUSH2 0x49F PUSH2 0x6EC JUMP JUMPDEST POP JUMP JUMPDEST PUSH1 0x4 DUP1 SLOAD PUSH1 0x40 MLOAD PUSH4 0x67DD27F PUSH1 0xE5 SHL DUP2 MSTORE PUSH1 0x1 PUSH1 0x1 PUSH1 0xA0 SHL SUB DUP6 DUP2 AND SWAP4 DUP3 ADD SWAP4 SWAP1 SWAP4 MSTORE PUSH0 SWAP3 PUSH2 0x1F4 SWAP3 AND SWAP1 PUSH4 0xCFBA4FE0 SWAP1 PUSH1 0x24 ADD PUSH1 0x20 PUSH1 0x40 MLOAD DUP1 DUP4 SUB DUP2 PUSH0 DUP8 GAS CALL ISZERO DUP1 ISZERO PUSH2 0x4F2 JUMPI RETURNDATASIZE PUSH0 DUP1 RETURNDATACOPY RETURNDATASIZE PUSH0 REVERT JUMPDEST POP POP POP POP PUSH1 0x40 MLOAD RETURNDATASIZE PUSH1 0x1F NOT PUSH1 0x1F DUP3 ADD AND DUP3 ADD DUP1 PUSH1 0x40 MSTORE POP DUP2 ADD SWAP1 PUSH2 0x516 SWAP2 SWAP1 PUSH2 0x77A JUMP JUMPDEST LT ISZERO PUSH2 0x55B JUMPI PUSH1 0x40 MLOAD PUSH3 0x461BCD PUSH1 0xE5 SHL DUP2 MSTORE PUSH1 0x20 PUSH1 0x4 DUP3 ADD MSTORE PUSH1 0x14 PUSH1 0x24 DUP3 ADD MSTORE PUSH20 0x696E73756666696369656E742062616C616E6365 PUSH1 0x60 SHL PUSH1 0x44 DUP3 ADD MSTORE PUSH1 0x64 ADD PUSH2 0x1E3 JUMP JUMPDEST PUSH1 0x2 DUP3 GT PUSH2 0x5E4 JUMPI PUSH1 0x4 DUP1 SLOAD PUSH1 0x1 PUSH1 0x1 PUSH1 0xA0 SHL SUB DUP6 DUP2 AND PUSH0 DUP2 DUP2 MSTORE PUSH1 0x5 PUSH1 0x20 MSTORE PUSH1 0x40 SWAP1 DUP2 SWAP1 KECCAK256 PUSH1 0x1 ADD SLOAD SWAP1 MLOAD PUSH4 0x17D57599 PUSH1 0xE3 SHL DUP2 MSTORE SWAP5 DUP6 ADD SWAP2 SWAP1 SWAP2 MSTORE DUP2 AND PUSH1 0x24 DUP5 ADD MSTORE PUSH2 0x1F4 PUSH1 0x44 DUP5 ADD MSTORE AND SWAP1 PUSH4 0xBEABACC8 SWAP1 PUSH1 0x64 ADD PUSH0 PUSH1 0x40 MLOAD DUP1 DUP4 SUB DUP2 PUSH0 DUP8 DUP1 EXTCODESIZE ISZERO DUP1 ISZERO PUSH2 0x5C9 JUMPI PUSH0 DUP1 REVERT JUMPDEST POP GAS CALL ISZERO DUP1 ISZERO PUSH2 0x5DB JUMPI RETURNDATASIZE PUSH0 DUP1 RETURNDATACOPY RETURNDATASIZE PUSH0 REVERT JUMPDEST POP POP POP POP PUSH2 0x6E3 JUMP JUMPDEST PUSH1 0x1 PUSH1 0x1 PUSH1 0xA0 SHL SUB DUP4 DUP2 AND PUSH0 DUP2 DUP2 MSTORE PUSH1 0x5 PUSH1 0x20 MSTORE PUSH1 0x40 SWAP1 DUP2 SWAP1 KECCAK256 PUSH1 0x1 ADD SLOAD PUSH1 0x4 DUP1 SLOAD SWAP3 MLOAD PUSH4 0x17D57599 PUSH1 0xE3 SHL DUP2 MSTORE SWAP1 DUP2 ADD SWAP4 SWAP1 SWAP4 MSTORE DUP4 AND PUSH1 0x24 DUP4 ADD DUP2 SWAP1 MSTORE PUSH2 0x12C PUSH1 0x44 DUP5 ADD MSTORE SWAP3 AND SWAP1 PUSH4 0xBEABACC8 SWAP1 PUSH1 0x64 ADD PUSH0 PUSH1 0x40 MLOAD DUP1 DUP4 SUB DUP2 PUSH0 DUP8 DUP1 EXTCODESIZE ISZERO DUP1 ISZERO PUSH2 0x64D JUMPI PUSH0 DUP1 REVERT JUMPDEST POP GAS CALL ISZERO DUP1 ISZERO PUSH2 0x65F JUMPI RETURNDATASIZE PUSH0 DUP1 RETURNDATACOPY RETURNDATASIZE PUSH0 REVERT JUMPDEST POP POP PUSH1 0x4 DUP1 SLOAD PUSH1 0x1 PUSH1 0x1 PUSH1 0xA0 SHL SUB DUP6 DUP2 AND PUSH0 SWAP1 DUP2 MSTORE PUSH1 0x5 PUSH1 0x20 MSTORE PUSH1 0x40 SWAP1 DUP2 SWAP1 KECCAK256 PUSH1 0x1 ADD SLOAD SWAP1 MLOAD PUSH4 0x17D57599 PUSH1 0xE3 SHL DUP2 MSTORE DUP11 DUP4 AND SWAP5 DUP2 ADD SWAP5 SWAP1 SWAP5 MSTORE DUP2 AND PUSH1 0x24 DUP5 ADD MSTORE PUSH1 0xC8 PUSH1 0x44 DUP5 ADD MSTORE AND SWAP3 POP PUSH4 0xBEABACC8 SWAP2 POP PUSH1 0x64 ADD PUSH0 PUSH1 0x40 MLOAD DUP1 DUP4 SUB DUP2 PUSH0 DUP8 DUP1 EXTCODESIZE ISZERO DUP1 ISZERO PUSH2 0x6CB JUMPI PUSH0 DUP1 REVERT JUMPDEST POP GAS CALL ISZERO DUP1 ISZERO PUSH2 0x6DD JUMPI RETURNDATASIZE PUSH0 DUP1 RETURNDATACOPY RETURNDATASIZE PUSH0 REVERT JUMPDEST POP POP POP POP POP JUMPDEST POP PUSH1 0x1 SWAP3 SWAP2 POP POP JUMP JUMPDEST CALLER PUSH0 SWAP1 DUP2 MSTORE PUSH1 0x5 PUSH1 0x20 MSTORE PUSH1 0x40 SWAP1 KECCAK256 PUSH1 0x1 ADD SLOAD PUSH1 0x1 PUSH1 0xA8 SHL SWAP1 DIV PUSH1 0xFF AND PUSH2 0x710 JUMPI PUSH0 DUP1 REVERT JUMPDEST PUSH1 0x2 DUP1 SLOAD PUSH2 0x100 PUSH1 0x1 PUSH1 0xA8 SHL SUB NOT AND CALLER PUSH2 0x100 MUL OR SWAP1 SSTORE JUMP JUMPDEST PUSH0 PUSH1 0x20 DUP3 DUP5 SUB SLT ISZERO PUSH2 0x739 JUMPI PUSH0 DUP1 REVERT JUMPDEST DUP2 CALLDATALOAD PUSH1 0x1 PUSH1 0x1 PUSH1 0xA0 SHL SUB DUP2 AND DUP2 EQ PUSH2 0x74F JUMPI PUSH0 DUP1 REVERT JUMPDEST SWAP4 SWAP3 POP POP POP JUMP JUMPDEST PUSH0 PUSH1 0x1 DUP3 ADD PUSH2 0x773 JUMPI PUSH4 0x4E487B71 PUSH1 0xE0 SHL PUSH0 MSTORE PUSH1 0x11 PUSH1 0x4 MSTORE PUSH1 0x24 PUSH0 REVERT JUMPDEST POP PUSH1 0x1 ADD SWAP1 JUMP JUMPDEST PUSH0 PUSH1 0x20 DUP3 DUP5 SUB SLT ISZERO PUSH2 0x78A JUMPI PUSH0 DUP1 REVERT JUMPDEST POP MLOAD SWAP2 SWAP1 POP JUMP INVALID LOG2 PUSH5 0x6970667358 0x22 SLT KECCAK256 0xF9 0x1E EXTCODECOPY 0x1F DUP11 0xE6 0xB6 PUSH21 0x6C2364A4595981E157A986CC2CFAFB0ACA997468D8 0xBF GASPRICE LOG0 PUSH5 0x736F6C6343 STOP ADDMOD EQ STOP CALLER "
				},
				"gasEstimates": {
					"creation": {
						"codeDepositCost": "398200",
						"executionCost": "infinite",
						"totalCost": "infinite"
					},
					"external": {
						"admins()": "2346",
						"getparent()": "4645",
						"inter()": "2391",
						"join()": "infinite",
						"parent()": "2403",
						"random()": "2339",
						"staker(address)": "4765",
						"tokenId()": "48941"
					},
					"internal": {
						"changingParent()": "26471",
						"isValidTransfer(address,uint256)": "infinite"
					}
				},
				"methodIdentifiers": {
					"admins()": "a5de3619",
					"getparent()": "255d45d8",
					"inter()": "f13ad725",
					"join()": "b688a363",
					"parent()": "60f96a8f",
					"random()": "5ec01e4d",
					"staker(address)": "82e4eda4",
					"tokenId()": "17d70f7c"
				}
			},
			"storageLayout": {
				"storage": [
					{
						"astId": 26,
						"contract": "contracts/MultilevelTransfer_flattened.sol:Tokenplay",
						"label": "admins",
						"offset": 0,
						"slot": "0",
						"type": "t_address"
					},
					{
						"astId": 29,
						"contract": "contracts/MultilevelTransfer_flattened.sol:Tokenplay",
						"label": "count",
						"offset": 0,
						"slot": "1",
						"type": "t_uint256"
					},
					{
						"astId": 31,
						"contract": "contracts/MultilevelTransfer_flattened.sol:Tokenplay",
						"label": "sync",
						"offset": 0,
						"slot": "2",
						"type": "t_bool"
					},
					{
						"astId": 33,
						"contract": "contracts/MultilevelTransfer_flattened.sol:Tokenplay",
						"label": "parent",
						"offset": 1,
						"slot": "2",
						"type": "t_address"
					},
					{
						"astId": 35,
						"contract": "contracts/MultilevelTransfer_flattened.sol:Tokenplay",
						"label": "random",
						"offset": 0,
						"slot": "3",
						"type": "t_uint256"
					},
					{
						"astId": 38,
						"contract": "contracts/MultilevelTransfer_flattened.sol:Tokenplay",
						"label": "inter",
						"offset": 0,
						"slot": "4",
						"type": "t_contract(InterfaceERC20)23"
					},
					{
						"astId": 43,
						"contract": "contracts/MultilevelTransfer_flattened.sol:Tokenplay",
						"label": "staker",
						"offset": 0,
						"slot": "5",
						"type": "t_mapping(t_address,t_struct(Staker)52_storage)"
					}
				],
				"types": {
					"t_address": {
						"encoding": "inplace",
						"label": "address",
						"numberOfBytes": "20"
					},
					"t_bool": {
						"encoding": "inplace",
						"label": "bool",
						"numberOfBytes": "1"
					},
					"t_contract(InterfaceERC20)23": {
						"encoding": "inplace",
						"label": "contract InterfaceERC20",
						"numberOfBytes": "20"
					},
					"t_mapping(t_address,t_struct(Staker)52_storage)": {
						"encoding": "mapping",
						"key": "t_address",
						"label": "mapping(address => struct Tokenplay.Staker)",
						"numberOfBytes": "32",
						"value": "t_struct(Staker)52_storage"
					},
					"t_struct(Staker)52_storage": {
						"encoding": "inplace",
						"label": "struct Tokenplay.Staker",
						"members": [
							{
								"astId": 45,
								"contract": "contracts/MultilevelTransfer_flattened.sol:Tokenplay",
								"label": "tokenid",
								"offset": 0,
								"slot": "0",
								"type": "t_uint256"
							},
							{
								"astId": 47,
								"contract": "contracts/MultilevelTransfer_flattened.sol:Tokenplay",
								"label": "referrer",
								"offset": 0,
								"slot": "1",
								"type": "t_address"
							},
							{
								"astId": 49,
								"contract": "contracts/MultilevelTransfer_flattened.sol:Tokenplay",
								"label": "setreferrer",
								"offset": 20,
								"slot": "1",
								"type": "t_bool"
							},
							{
								"astId": 51,
								"contract": "contracts/MultilevelTransfer_flattened.sol:Tokenplay",
								"label": "activeUser",
								"offset": 21,
								"slot": "1",
								"type": "t_bool"
							}
						],
						"numberOfBytes": "64"
					},
					"t_uint256": {
						"encoding": "inplace",
						"label": "uint256",
						"numberOfBytes": "32"
					}
				}
			},
			"userdoc": {
				"kind": "user",
				"methods": {},
				"version": 1
			}
		}
	}
}