{
	"contracts/ERC20Functions_flattened.sol": {
		"tokenFunctions": {
			"abi": [
				{
					"inputs": [],
					"stateMutability": "nonpayable",
					"type": "constructor"
				},
				{
					"anonymous": false,
					"inputs": [
						{
							"indexed": true,
							"internalType": "address",
							"name": "owner",
							"type": "address"
						},
						{
							"indexed": true,
							"internalType": "address",
							"name": "spender",
							"type": "address"
						},
						{
							"indexed": false,
							"internalType": "uint256",
							"name": "value",
							"type": "uint256"
						}
					],
					"name": "Approval",
					"type": "event"
				},
				{
					"anonymous": false,
					"inputs": [
						{
							"indexed": true,
							"internalType": "address",
							"name": "from",
							"type": "address"
						},
						{
							"indexed": true,
							"internalType": "address",
							"name": "to",
							"type": "address"
						},
						{
							"indexed": false,
							"internalType": "uint256",
							"name": "value",
							"type": "uint256"
						}
					],
					"name": "Transfer",
					"type": "event"
				},
				{
					"inputs": [],
					"name": "admins",
					"outputs": [
						{
							"internalType": "address",
							"name": "",
							"type": "address"
						}
					],
					"stateMutability": "view",
					"type": "function"
				},
				{
					"inputs": [
						{
							"internalType": "address",
							"name": "owner",
							"type": "address"
						},
						{
							"internalType": "address",
							"name": "spender",
							"type": "address"
						}
					],
					"name": "allowance",
					"outputs": [
						{
							"internalType": "uint256",
							"name": "",
							"type": "uint256"
						}
					],
					"stateMutability": "view",
					"type": "function"
				},
				{
					"inputs": [
						{
							"internalType": "address",
							"name": "spender",
							"type": "address"
						},
						{
							"internalType": "uint256",
							"name": "amount",
							"type": "uint256"
						}
					],
					"name": "approve",
					"outputs": [
						{
							"internalType": "bool",
							"name": "",
							"type": "bool"
						}
					],
					"stateMutability": "nonpayable",
					"type": "function"
				},
				{
					"inputs": [
						{
							"internalType": "address",
							"name": "account",
							"type": "address"
						}
					],
					"name": "balanceOf",
					"outputs": [
						{
							"internalType": "uint256",
							"name": "",
							"type": "uint256"
						}
					],
					"stateMutability": "view",
					"type": "function"
				},
				{
					"inputs": [],
					"name": "decimals",
					"outputs": [
						{
							"internalType": "uint8",
							"name": "",
							"type": "uint8"
						}
					],
					"stateMutability": "view",
					"type": "function"
				},
				{
					"inputs": [
						{
							"internalType": "address",
							"name": "spender",
							"type": "address"
						},
						{
							"internalType": "uint256",
							"name": "subtractedValue",
							"type": "uint256"
						}
					],
					"name": "decreaseAllowance",
					"outputs": [
						{
							"internalType": "bool",
							"name": "",
							"type": "bool"
						}
					],
					"stateMutability": "nonpayable",
					"type": "function"
				},
				{
					"inputs": [
						{
							"internalType": "address",
							"name": "user",
							"type": "address"
						}
					],
					"name": "findBalance",
					"outputs": [
						{
							"internalType": "uint256",
							"name": "",
							"type": "uint256"
						}
					],
					"stateMutability": "view",
					"type": "function"
				},
				{
					"inputs": [
						{
							"internalType": "address",
							"name": "spender",
							"type": "address"
						},
						{
							"internalType": "uint256",
							"name": "addedValue",
							"type": "uint256"
						}
					],
					"name": "increaseAllowance",
					"outputs": [
						{
							"internalType": "bool",
							"name": "",
							"type": "bool"
						}
					],
					"stateMutability": "nonpayable",
					"type": "function"
				},
				{
					"inputs": [
						{
							"internalType": "address",
							"name": "owner",
							"type": "address"
						}
					],
					"name": "mint",
					"outputs": [],
					"stateMutability": "nonpayable",
					"type": "function"
				},
				{
					"inputs": [],
					"name": "name",
					"outputs": [
						{
							"internalType": "string",
							"name": "",
							"type": "string"
						}
					],
					"stateMutability": "view",
					"type": "function"
				},
				{
					"inputs": [],
					"name": "symbol",
					"outputs": [
						{
							"internalType": "string",
							"name": "",
							"type": "string"
						}
					],
					"stateMutability": "view",
					"type": "function"
				},
				{
					"inputs": [],
					"name": "totalSupply",
					"outputs": [
						{
							"internalType": "uint256",
							"name": "",
							"type": "uint256"
						}
					],
					"stateMutability": "view",
					"type": "function"
				},
				{
					"inputs": [
						{
							"internalType": "address",
							"name": "to",
							"type": "address"
						},
						{
							"internalType": "uint256",
							"name": "amount",
							"type": "uint256"
						}
					],
					"name": "transfer",
					"outputs": [
						{
							"internalType": "bool",
							"name": "",
							"type": "bool"
						}
					],
					"stateMutability": "nonpayable",
					"type": "function"
				},
				{
					"inputs": [
						{
							"internalType": "address",
							"name": "from",
							"type": "address"
						},
						{
							"internalType": "address",
							"name": "to",
							"type": "address"
						},
						{
							"internalType": "uint256",
							"name": "amount",
							"type": "uint256"
						}
					],
					"name": "transfer",
					"outputs": [],
					"stateMutability": "nonpayable",
					"type": "function"
				},
				{
					"inputs": [
						{
							"internalType": "address",
							"name": "from",
							"type": "address"
						},
						{
							"internalType": "address",
							"name": "to",
							"type": "address"
						},
						{
							"internalType": "uint256",
							"name": "amount",
							"type": "uint256"
						}
					],
					"name": "transferFrom",
					"outputs": [
						{
							"internalType": "bool",
							"name": "",
							"type": "bool"
						}
					],
					"stateMutability": "nonpayable",
					"type": "function"
				}
			],
			"devdoc": {
				"events": {
					"Approval(address,address,uint256)": {
						"details": "Emitted when the allowance of a `spender` for an `owner` is set by a call to {approve}. `value` is the new allowance."
					},
					"Transfer(address,address,uint256)": {
						"details": "Emitted when `value` tokens are moved from one account (`from`) to another (`to`). Note that `value` may be zero."
					}
				},
				"kind": "dev",
				"methods": {
					"allowance(address,address)": {
						"details": "See {IERC20-allowance}."
					},
					"approve(address,uint256)": {
						"details": "See {IERC20-approve}. NOTE: If `amount` is the maximum `uint256`, the allowance is not updated on `transferFrom`. This is semantically equivalent to an infinite approval. Requirements: - `spender` cannot be the zero address."
					},
					"balanceOf(address)": {
						"details": "See {IERC20-balanceOf}."
					},
					"decimals()": {
						"details": "Returns the number of decimals used to get its user representation. For example, if `decimals` equals `2`, a balance of `505` tokens should be displayed to a user as `5.05` (`505 / 10 ** 2`). Tokens usually opt for a value of 18, imitating the relationship between Ether and Wei. This is the default value returned by this function, unless it's overridden. NOTE: This information is only used for _display_ purposes: it in no way affects any of the arithmetic of the contract, including {IERC20-balanceOf} and {IERC20-transfer}."
					},
					"decreaseAllowance(address,uint256)": {
						"details": "Atomically decreases the allowance granted to `spender` by the caller. This is an alternative to {approve} that can be used as a mitigation for problems described in {IERC20-approve}. Emits an {Approval} event indicating the updated allowance. Requirements: - `spender` cannot be the zero address. - `spender` must have allowance for the caller of at least `subtractedValue`."
					},
					"increaseAllowance(address,uint256)": {
						"details": "Atomically increases the allowance granted to `spender` by the caller. This is an alternative to {approve} that can be used as a mitigation for problems described in {IERC20-approve}. Emits an {Approval} event indicating the updated allowance. Requirements: - `spender` cannot be the zero address."
					},
					"name()": {
						"details": "Returns the name of the token."
					},
					"symbol()": {
						"details": "Returns the symbol of the token, usually a shorter version of the name."
					},
					"totalSupply()": {
						"details": "See {IERC20-totalSupply}."
					},
					"transfer(address,uint256)": {
						"details": "See {IERC20-transfer}. Requirements: - `to` cannot be the zero address. - the caller must have a balance of at least `amount`."
					},
					"transferFrom(address,address,uint256)": {
						"details": "See {IERC20-transferFrom}. Emits an {Approval} event indicating the updated allowance. This is not required by the EIP. See the note at the beginning of {ERC20}. NOTE: Does not update the allowance if the current allowance is the maximum `uint256`. Requirements: - `from` and `to` cannot be the zero address. - `from` must have a balance of at least `amount`. - the caller must have allowance for ``from``'s tokens of at least `amount`."
					}
				},
				"version": 1
			},
			"evm": {
				"assembly": "    /* \"contracts/ERC20Functions_flattened.sol\":17176:17683  contract tokenFunctions is ERC20 {... */\n  mstore(0x40, 0x80)\n    /* \"contracts/ERC20Functions_flattened.sol\":17243:17320  constructor() ERC20(\"CURRENCY\", \"MATIC\") {... */\n  callvalue\n  dup1\n  iszero\n  tag_1\n  jumpi\n  0x00\n  dup1\n  revert\ntag_1:\n  pop\n    /* \"contracts/ERC20Functions_flattened.sol\":6244:6357  constructor(string memory name_, string memory symbol_) {... */\n  mload(0x40)\n  dup1\n  0x40\n  add\n  0x40\n  mstore\n  dup1\n  0x08\n  dup2\n  mstore\n  0x20\n  add\n  shl(0xc0, 0x43555252454e4359)\n  dup2\n  mstore\n  pop\n  mload(0x40)\n  dup1\n  0x40\n  add\n  0x40\n  mstore\n  dup1\n  0x05\n  dup2\n  mstore\n  0x20\n  add\n  shl(0xd8, 0x4d41544943)\n  dup2\n  mstore\n  pop\n    /* \"contracts/ERC20Functions_flattened.sol\":6318:6323  name_ */\n  dup2\n    /* \"contracts/ERC20Functions_flattened.sol\":6310:6315  _name */\n  0x03\n    /* \"contracts/ERC20Functions_flattened.sol\":6310:6323  _name = name_ */\n  swap1\n  dup2\n  tag_5\n  swap2\n  swap1\n  tag_6\n  jump\t// in\ntag_5:\n  pop\n    /* \"contracts/ERC20Functions_flattened.sol\":6333:6340  _symbol */\n  0x04\n    /* \"contracts/ERC20Functions_flattened.sol\":6333:6350  _symbol = symbol_ */\n  tag_7\n    /* \"contracts/ERC20Functions_flattened.sol\":6343:6350  symbol_ */\n  dup3\n    /* \"contracts/ERC20Functions_flattened.sol\":6333:6340  _symbol */\n  dup3\n    /* \"contracts/ERC20Functions_flattened.sol\":6333:6350  _symbol = symbol_ */\n  tag_6\n  jump\t// in\ntag_7:\n  pop\n  pop\n    /* \"contracts/ERC20Functions_flattened.sol\":17294:17300  admins */\n  0x05\n    /* \"contracts/ERC20Functions_flattened.sol\":17294:17313  admins = msg.sender */\n  dup1\n  sload\n  not(sub(shl(0xa0, 0x01), 0x01))\n  and\n    /* \"contracts/ERC20Functions_flattened.sol\":17303:17313  msg.sender */\n  caller\n    /* \"contracts/ERC20Functions_flattened.sol\":17294:17313  admins = msg.sender */\n  or\n  swap1\n  sstore\n  pop\n    /* \"contracts/ERC20Functions_flattened.sol\":17176:17683  contract tokenFunctions is ERC20 {... */\n  jump(tag_15)\n    /* \"#utility.yul\":14:141   */\ntag_10:\n    /* \"#utility.yul\":75:85   */\n  0x4e487b71\n    /* \"#utility.yul\":70:73   */\n  0xe0\n    /* \"#utility.yul\":66:86   */\n  shl\n    /* \"#utility.yul\":63:64   */\n  0x00\n    /* \"#utility.yul\":56:87   */\n  mstore\n    /* \"#utility.yul\":106:110   */\n  0x41\n    /* \"#utility.yul\":103:104   */\n  0x04\n    /* \"#utility.yul\":96:111   */\n  mstore\n    /* \"#utility.yul\":130:134   */\n  0x24\n    /* \"#utility.yul\":127:128   */\n  0x00\n    /* \"#utility.yul\":120:135   */\n  revert\n    /* \"#utility.yul\":146:526   */\ntag_11:\n    /* \"#utility.yul\":225:226   */\n  0x01\n    /* \"#utility.yul\":221:233   */\n  dup2\n  dup2\n  shr\n  swap1\n    /* \"#utility.yul\":268:280   */\n  dup3\n  and\n  dup1\n    /* \"#utility.yul\":289:350   */\n  tag_18\n  jumpi\n    /* \"#utility.yul\":343:347   */\n  0x7f\n    /* \"#utility.yul\":335:341   */\n  dup3\n    /* \"#utility.yul\":331:348   */\n  and\n    /* \"#utility.yul\":321:348   */\n  swap2\n  pop\n    /* \"#utility.yul\":289:350   */\ntag_18:\n    /* \"#utility.yul\":396:398   */\n  0x20\n    /* \"#utility.yul\":388:394   */\n  dup3\n    /* \"#utility.yul\":385:399   */\n  lt\n    /* \"#utility.yul\":365:383   */\n  dup2\n    /* \"#utility.yul\":362:400   */\n  sub\n    /* \"#utility.yul\":359:520   */\n  tag_19\n  jumpi\n    /* \"#utility.yul\":442:452   */\n  0x4e487b71\n    /* \"#utility.yul\":437:440   */\n  0xe0\n    /* \"#utility.yul\":433:453   */\n  shl\n    /* \"#utility.yul\":430:431   */\n  0x00\n    /* \"#utility.yul\":423:454   */\n  mstore\n    /* \"#utility.yul\":477:481   */\n  0x22\n    /* \"#utility.yul\":474:475   */\n  0x04\n    /* \"#utility.yul\":467:482   */\n  mstore\n    /* \"#utility.yul\":505:509   */\n  0x24\n    /* \"#utility.yul\":502:503   */\n  0x00\n    /* \"#utility.yul\":495:510   */\n  revert\n    /* \"#utility.yul\":359:520   */\ntag_19:\n  pop\n    /* \"#utility.yul\":146:526   */\n  swap2\n  swap1\n  pop\n  jump\t// out\n    /* \"#utility.yul\":657:1202   */\ntag_13:\n    /* \"#utility.yul\":759:761   */\n  0x1f\n    /* \"#utility.yul\":754:757   */\n  dup3\n    /* \"#utility.yul\":751:762   */\n  gt\n    /* \"#utility.yul\":748:1196   */\n  iszero\n  tag_22\n  jumpi\n    /* \"#utility.yul\":795:796   */\n  0x00\n    /* \"#utility.yul\":820:825   */\n  dup2\n    /* \"#utility.yul\":816:818   */\n  dup2\n    /* \"#utility.yul\":809:826   */\n  mstore\n    /* \"#utility.yul\":865:869   */\n  0x20\n    /* \"#utility.yul\":861:863   */\n  dup2\n    /* \"#utility.yul\":851:870   */\n  keccak256\n    /* \"#utility.yul\":935:937   */\n  0x1f\n    /* \"#utility.yul\":923:933   */\n  dup6\n    /* \"#utility.yul\":919:938   */\n  add\n    /* \"#utility.yul\":916:917   */\n  0x05\n    /* \"#utility.yul\":912:939   */\n  shr\n    /* \"#utility.yul\":906:910   */\n  dup2\n    /* \"#utility.yul\":902:940   */\n  add\n    /* \"#utility.yul\":971:975   */\n  0x20\n    /* \"#utility.yul\":959:969   */\n  dup7\n    /* \"#utility.yul\":956:976   */\n  lt\n    /* \"#utility.yul\":953:1000   */\n  iszero\n  tag_23\n  jumpi\n  pop\n    /* \"#utility.yul\":994:998   */\n  dup1\n    /* \"#utility.yul\":953:1000   */\ntag_23:\n    /* \"#utility.yul\":1049:1051   */\n  0x1f\n    /* \"#utility.yul\":1044:1047   */\n  dup6\n    /* \"#utility.yul\":1040:1052   */\n  add\n    /* \"#utility.yul\":1037:1038   */\n  0x05\n    /* \"#utility.yul\":1033:1053   */\n  shr\n    /* \"#utility.yul\":1027:1031   */\n  dup3\n    /* \"#utility.yul\":1023:1054   */\n  add\n    /* \"#utility.yul\":1013:1054   */\n  swap2\n  pop\n    /* \"#utility.yul\":1104:1186   */\ntag_24:\n    /* \"#utility.yul\":1122:1124   */\n  dup2\n    /* \"#utility.yul\":1115:1120   */\n  dup2\n    /* \"#utility.yul\":1112:1125   */\n  lt\n    /* \"#utility.yul\":1104:1186   */\n  iszero\n  tag_26\n  jumpi\n    /* \"#utility.yul\":1167:1184   */\n  dup3\n  dup2\n  sstore\n    /* \"#utility.yul\":1148:1149   */\n  0x01\n    /* \"#utility.yul\":1137:1150   */\n  add\n    /* \"#utility.yul\":1104:1186   */\n  jump(tag_24)\ntag_26:\n    /* \"#utility.yul\":1108:1111   */\n  pop\n  pop\n  pop\n    /* \"#utility.yul\":748:1196   */\ntag_22:\n    /* \"#utility.yul\":657:1202   */\n  pop\n  pop\n  pop\n  jump\t// out\n    /* \"#utility.yul\":1378:2730   */\ntag_6:\n    /* \"#utility.yul\":1498:1508   */\n  dup2\n  mload\n  sub(shl(0x40, 0x01), 0x01)\n    /* \"#utility.yul\":1520:1550   */\n  dup2\n  gt\n    /* \"#utility.yul\":1517:1573   */\n  iszero\n  tag_30\n  jumpi\n    /* \"#utility.yul\":1553:1571   */\n  tag_30\n  tag_10\n  jump\t// in\ntag_30:\n    /* \"#utility.yul\":1582:1679   */\n  tag_31\n    /* \"#utility.yul\":1672:1678   */\n  dup2\n    /* \"#utility.yul\":1632:1670   */\n  tag_32\n    /* \"#utility.yul\":1664:1668   */\n  dup5\n    /* \"#utility.yul\":1658:1669   */\n  sload\n    /* \"#utility.yul\":1632:1670   */\n  tag_11\n  jump\t// in\ntag_32:\n    /* \"#utility.yul\":1626:1630   */\n  dup5\n    /* \"#utility.yul\":1582:1679   */\n  tag_13\n  jump\t// in\ntag_31:\n    /* \"#utility.yul\":1734:1738   */\n  0x20\n  dup1\n    /* \"#utility.yul\":1798:1800   */\n  0x1f\n    /* \"#utility.yul\":1787:1801   */\n  dup4\n  gt\n    /* \"#utility.yul\":1815:1816   */\n  0x01\n    /* \"#utility.yul\":1810:2473   */\n  dup2\n  eq\n  tag_34\n  jumpi\n    /* \"#utility.yul\":2517:2518   */\n  0x00\n    /* \"#utility.yul\":2534:2540   */\n  dup5\n    /* \"#utility.yul\":2531:2620   */\n  iszero\n  tag_35\n  jumpi\n  pop\n    /* \"#utility.yul\":2586:2605   */\n  dup6\n  dup4\n  add\n    /* \"#utility.yul\":2580:2606   */\n  mload\n    /* \"#utility.yul\":2531:2620   */\ntag_35:\n  not(0x00)\n    /* \"#utility.yul\":1335:1336   */\n  0x03\n    /* \"#utility.yul\":1331:1342   */\n  dup7\n  swap1\n  shl\n    /* \"#utility.yul\":1327:1351   */\n  shr\n    /* \"#utility.yul\":1323:1352   */\n  not\n    /* \"#utility.yul\":1313:1353   */\n  and\n    /* \"#utility.yul\":1359:1360   */\n  0x01\n    /* \"#utility.yul\":1355:1366   */\n  dup6\n  swap1\n  shl\n    /* \"#utility.yul\":1310:1367   */\n  or\n    /* \"#utility.yul\":2633:2714   */\n  dup6\n  sstore\n    /* \"#utility.yul\":1780:2724   */\n  jump(tag_26)\n    /* \"#utility.yul\":1810:2473   */\ntag_34:\n    /* \"#utility.yul\":604:605   */\n  0x00\n    /* \"#utility.yul\":597:611   */\n  dup6\n  dup2\n  mstore\n    /* \"#utility.yul\":641:645   */\n  0x20\n    /* \"#utility.yul\":628:646   */\n  dup2\n  keccak256\n  not(0x1f)\n    /* \"#utility.yul\":1846:1866   */\n  dup7\n  and\n  swap2\n    /* \"#utility.yul\":1964:2200   */\ntag_38:\n    /* \"#utility.yul\":1978:1985   */\n  dup3\n    /* \"#utility.yul\":1975:1976   */\n  dup2\n    /* \"#utility.yul\":1972:1986   */\n  lt\n    /* \"#utility.yul\":1964:2200   */\n  iszero\n  tag_40\n  jumpi\n    /* \"#utility.yul\":2067:2086   */\n  dup9\n  dup7\n  add\n    /* \"#utility.yul\":2061:2087   */\n  mload\n    /* \"#utility.yul\":2046:2088   */\n  dup3\n  sstore\n    /* \"#utility.yul\":2159:2186   */\n  swap5\n  dup5\n  add\n  swap5\n    /* \"#utility.yul\":2127:2128   */\n  0x01\n    /* \"#utility.yul\":2115:2129   */\n  swap1\n  swap2\n  add\n  swap1\n    /* \"#utility.yul\":1994:2013   */\n  dup5\n  add\n    /* \"#utility.yul\":1964:2200   */\n  jump(tag_38)\ntag_40:\n    /* \"#utility.yul\":1968:1971   */\n  pop\n    /* \"#utility.yul\":2228:2234   */\n  dup6\n    /* \"#utility.yul\":2219:2226   */\n  dup3\n    /* \"#utility.yul\":2216:2235   */\n  lt\n    /* \"#utility.yul\":2213:2414   */\n  iszero\n  tag_41\n  jumpi\n    /* \"#utility.yul\":2289:2308   */\n  dup8\n  dup6\n  add\n    /* \"#utility.yul\":2283:2309   */\n  mload\n  not(0x00)\n    /* \"#utility.yul\":2372:2373   */\n  0x03\n    /* \"#utility.yul\":2368:2382   */\n  dup9\n  swap1\n  shl\n    /* \"#utility.yul\":2384:2387   */\n  0xf8\n    /* \"#utility.yul\":2364:2388   */\n  and\n    /* \"#utility.yul\":2360:2397   */\n  shr\n    /* \"#utility.yul\":2356:2398   */\n  not\n    /* \"#utility.yul\":2341:2399   */\n  and\n    /* \"#utility.yul\":2326:2400   */\n  dup2\n  sstore\n    /* \"#utility.yul\":2213:2414   */\ntag_41:\n  pop\n  pop\n  pop\n  pop\n  pop\n    /* \"#utility.yul\":2460:2461   */\n  0x01\n    /* \"#utility.yul\":2444:2458   */\n  swap1\n  dup2\n  shl\n    /* \"#utility.yul\":2440:2462   */\n  add\n    /* \"#utility.yul\":2427:2463   */\n  swap1\n  sstore\n  pop\n    /* \"#utility.yul\":1378:2730   */\n  jump\t// out\ntag_15:\n    /* \"contracts/ERC20Functions_flattened.sol\":17176:17683  contract tokenFunctions is ERC20 {... */\n  dataSize(sub_0)\n  dup1\n  dataOffset(sub_0)\n  0x00\n  codecopy\n  0x00\n  return\nstop\n\nsub_0: assembly {\n        /* \"contracts/ERC20Functions_flattened.sol\":17176:17683  contract tokenFunctions is ERC20 {... */\n      mstore(0x40, 0x80)\n      callvalue\n      dup1\n      iszero\n      tag_1\n      jumpi\n      0x00\n      dup1\n      revert\n    tag_1:\n      pop\n      jumpi(tag_2, lt(calldatasize, 0x04))\n      shr(0xe0, calldataload(0x00))\n      dup1\n      0x70a08231\n      gt\n      tag_18\n      jumpi\n      dup1\n      0xa9059cbb\n      gt\n      tag_19\n      jumpi\n      dup1\n      0xa9059cbb\n      eq\n      tag_14\n      jumpi\n      dup1\n      0xbeabacc8\n      eq\n      tag_15\n      jumpi\n      dup1\n      0xcfba4fe0\n      eq\n      tag_16\n      jumpi\n      dup1\n      0xdd62ed3e\n      eq\n      tag_17\n      jumpi\n      0x00\n      dup1\n      revert\n    tag_19:\n      dup1\n      0x70a08231\n      eq\n      tag_10\n      jumpi\n      dup1\n      0x95d89b41\n      eq\n      tag_11\n      jumpi\n      dup1\n      0xa457c2d7\n      eq\n      tag_12\n      jumpi\n      dup1\n      0xa5de3619\n      eq\n      tag_13\n      jumpi\n      0x00\n      dup1\n      revert\n    tag_18:\n      dup1\n      0x23b872dd\n      gt\n      tag_20\n      jumpi\n      dup1\n      0x23b872dd\n      eq\n      tag_6\n      jumpi\n      dup1\n      0x313ce567\n      eq\n      tag_7\n      jumpi\n      dup1\n      0x39509351\n      eq\n      tag_8\n      jumpi\n      dup1\n      0x6a627842\n      eq\n      tag_9\n      jumpi\n      0x00\n      dup1\n      revert\n    tag_20:\n      dup1\n      0x06fdde03\n      eq\n      tag_3\n      jumpi\n      dup1\n      0x095ea7b3\n      eq\n      tag_4\n      jumpi\n      dup1\n      0x18160ddd\n      eq\n      tag_5\n      jumpi\n    tag_2:\n      0x00\n      dup1\n      revert\n        /* \"contracts/ERC20Functions_flattened.sol\":6422:6520  function name() public view virtual override returns (string memory) {... */\n    tag_3:\n      tag_21\n      tag_22\n      jump\t// in\n    tag_21:\n      mload(0x40)\n      tag_23\n      swap2\n      swap1\n      tag_24\n      jump\t// in\n    tag_23:\n      mload(0x40)\n      dup1\n      swap2\n      sub\n      swap1\n      return\n        /* \"contracts/ERC20Functions_flattened.sol\":8708:8905  function approve(address spender, uint256 amount) public virtual override returns (bool) {... */\n    tag_4:\n      tag_25\n      tag_26\n      calldatasize\n      0x04\n      tag_27\n      jump\t// in\n    tag_26:\n      tag_28\n      jump\t// in\n    tag_25:\n      mload(0x40)\n        /* \"#utility.yul\":1169:1183   */\n      swap1\n      iszero\n        /* \"#utility.yul\":1162:1184   */\n      iszero\n        /* \"#utility.yul\":1144:1185   */\n      dup2\n      mstore\n        /* \"#utility.yul\":1132:1134   */\n      0x20\n        /* \"#utility.yul\":1117:1135   */\n      add\n        /* \"contracts/ERC20Functions_flattened.sol\":8708:8905  function approve(address spender, uint256 amount) public virtual override returns (bool) {... */\n      tag_23\n        /* \"#utility.yul\":1004:1191   */\n      jump\n        /* \"contracts/ERC20Functions_flattened.sol\":7519:7625  function totalSupply() public view virtual override returns (uint256) {... */\n    tag_5:\n        /* \"contracts/ERC20Functions_flattened.sol\":7606:7618  _totalSupply */\n      sload(0x02)\n        /* \"contracts/ERC20Functions_flattened.sol\":7519:7625  function totalSupply() public view virtual override returns (uint256) {... */\n    tag_31:\n      mload(0x40)\n        /* \"#utility.yul\":1342:1367   */\n      swap1\n      dup2\n      mstore\n        /* \"#utility.yul\":1330:1332   */\n      0x20\n        /* \"#utility.yul\":1315:1333   */\n      add\n        /* \"contracts/ERC20Functions_flattened.sol\":7519:7625  function totalSupply() public view virtual override returns (uint256) {... */\n      tag_23\n        /* \"#utility.yul\":1196:1373   */\n      jump\n        /* \"contracts/ERC20Functions_flattened.sol\":9467:9723  function transferFrom(address from, address to, uint256 amount) public virtual override returns (bool) {... */\n    tag_6:\n      tag_25\n      tag_36\n      calldatasize\n      0x04\n      tag_37\n      jump\t// in\n    tag_36:\n      tag_38\n      jump\t// in\n        /* \"contracts/ERC20Functions_flattened.sol\":7368:7459  function decimals() public view virtual override returns (uint8) {... */\n    tag_7:\n      mload(0x40)\n        /* \"contracts/ERC20Functions_flattened.sol\":7450:7452  18 */\n      0x12\n        /* \"#utility.yul\":1853:1889   */\n      dup2\n      mstore\n        /* \"#utility.yul\":1841:1843   */\n      0x20\n        /* \"#utility.yul\":1826:1844   */\n      add\n        /* \"contracts/ERC20Functions_flattened.sol\":7368:7459  function decimals() public view virtual override returns (uint8) {... */\n      tag_23\n        /* \"#utility.yul\":1711:1895   */\n      jump\n        /* \"contracts/ERC20Functions_flattened.sol\":10118:10352  function increaseAllowance(address spender, uint256 addedValue) public virtual returns (bool) {... */\n    tag_8:\n      tag_25\n      tag_45\n      calldatasize\n      0x04\n      tag_27\n      jump\t// in\n    tag_45:\n      tag_46\n      jump\t// in\n        /* \"contracts/ERC20Functions_flattened.sol\":17326:17424  function mint(address owner) external {... */\n    tag_9:\n      tag_48\n      tag_49\n      calldatasize\n      0x04\n      tag_50\n      jump\t// in\n    tag_49:\n      tag_51\n      jump\t// in\n    tag_48:\n      stop\n        /* \"contracts/ERC20Functions_flattened.sol\":7683:7808  function balanceOf(address account) public view virtual override returns (uint256) {... */\n    tag_10:\n      tag_31\n      tag_53\n      calldatasize\n      0x04\n      tag_50\n      jump\t// in\n    tag_53:\n      sub(shl(0xa0, 0x01), 0x01)\n        /* \"contracts/ERC20Functions_flattened.sol\":7783:7801  _balances[account] */\n      and\n        /* \"contracts/ERC20Functions_flattened.sol\":7757:7764  uint256 */\n      0x00\n        /* \"contracts/ERC20Functions_flattened.sol\":7783:7801  _balances[account] */\n      swap1\n      dup2\n      mstore\n      0x20\n      dup2\n      swap1\n      mstore\n      0x40\n      swap1\n      keccak256\n      sload\n      swap1\n        /* \"contracts/ERC20Functions_flattened.sol\":7683:7808  function balanceOf(address account) public view virtual override returns (uint256) {... */\n      jump\n        /* \"contracts/ERC20Functions_flattened.sol\":6633:6735  function symbol() public view virtual override returns (string memory) {... */\n    tag_11:\n      tag_21\n      tag_57\n      jump\t// in\n        /* \"contracts/ERC20Functions_flattened.sol\":10839:11266  function decreaseAllowance(address spender, uint256 subtractedValue) public virtual returns (bool) {... */\n    tag_12:\n      tag_25\n      tag_60\n      calldatasize\n      0x04\n      tag_27\n      jump\t// in\n    tag_60:\n      tag_61\n      jump\t// in\n        /* \"contracts/ERC20Functions_flattened.sol\":17215:17236  address public admins */\n    tag_13:\n      sload(0x05)\n      tag_63\n      swap1\n      sub(shl(0xa0, 0x01), 0x01)\n      and\n      dup2\n      jump\n    tag_63:\n      mload(0x40)\n      sub(shl(0xa0, 0x01), 0x01)\n        /* \"#utility.yul\":2255:2287   */\n      swap1\n      swap2\n      and\n        /* \"#utility.yul\":2237:2288   */\n      dup2\n      mstore\n        /* \"#utility.yul\":2225:2227   */\n      0x20\n        /* \"#utility.yul\":2210:2228   */\n      add\n        /* \"contracts/ERC20Functions_flattened.sol\":17215:17236  address public admins */\n      tag_23\n        /* \"#utility.yul\":2091:2294   */\n      jump\n        /* \"contracts/ERC20Functions_flattened.sol\":8004:8193  function transfer(address to, uint256 amount) public virtual override returns (bool) {... */\n    tag_14:\n      tag_25\n      tag_68\n      calldatasize\n      0x04\n      tag_27\n      jump\t// in\n    tag_68:\n      tag_69\n      jump\t// in\n        /* \"contracts/ERC20Functions_flattened.sol\":17571:17681  function transfer(address from, address to, uint amount) external {... */\n    tag_15:\n      tag_48\n      tag_72\n      calldatasize\n      0x04\n      tag_37\n      jump\t// in\n    tag_72:\n      tag_73\n      jump\t// in\n        /* \"contracts/ERC20Functions_flattened.sol\":17430:17565  function findBalance(address user) external view returns (uint) {... */\n    tag_16:\n      tag_31\n      tag_75\n      calldatasize\n      0x04\n      tag_50\n      jump\t// in\n    tag_75:\n      tag_76\n      jump\t// in\n        /* \"contracts/ERC20Functions_flattened.sol\":8251:8400  function allowance(address owner, address spender) public view virtual override returns (uint256) {... */\n    tag_17:\n      tag_31\n      tag_79\n      calldatasize\n      0x04\n      tag_80\n      jump\t// in\n    tag_79:\n      tag_81\n      jump\t// in\n        /* \"contracts/ERC20Functions_flattened.sol\":6422:6520  function name() public view virtual override returns (string memory) {... */\n    tag_22:\n        /* \"contracts/ERC20Functions_flattened.sol\":6476:6489  string memory */\n      0x60\n        /* \"contracts/ERC20Functions_flattened.sol\":6508:6513  _name */\n      0x03\n        /* \"contracts/ERC20Functions_flattened.sol\":6501:6513  return _name */\n      dup1\n      sload\n      tag_84\n      swap1\n      tag_85\n      jump\t// in\n    tag_84:\n      dup1\n      0x1f\n      add\n      0x20\n      dup1\n      swap2\n      div\n      mul\n      0x20\n      add\n      mload(0x40)\n      swap1\n      dup2\n      add\n      0x40\n      mstore\n      dup1\n      swap3\n      swap2\n      swap1\n      dup2\n      dup2\n      mstore\n      0x20\n      add\n      dup3\n      dup1\n      sload\n      tag_86\n      swap1\n      tag_85\n      jump\t// in\n    tag_86:\n      dup1\n      iszero\n      tag_87\n      jumpi\n      dup1\n      0x1f\n      lt\n      tag_88\n      jumpi\n      0x0100\n      dup1\n      dup4\n      sload\n      div\n      mul\n      dup4\n      mstore\n      swap2\n      0x20\n      add\n      swap2\n      jump(tag_87)\n    tag_88:\n      dup3\n      add\n      swap2\n      swap1\n      0x00\n      mstore\n      keccak256(0x00, 0x20)\n      swap1\n    tag_89:\n      dup2\n      sload\n      dup2\n      mstore\n      swap1\n      0x01\n      add\n      swap1\n      0x20\n      add\n      dup1\n      dup4\n      gt\n      tag_89\n      jumpi\n      dup3\n      swap1\n      sub\n      0x1f\n      and\n      dup3\n      add\n      swap2\n    tag_87:\n      pop\n      pop\n      pop\n      pop\n      pop\n      swap1\n      pop\n        /* \"contracts/ERC20Functions_flattened.sol\":6422:6520  function name() public view virtual override returns (string memory) {... */\n      swap1\n      jump\t// out\n        /* \"contracts/ERC20Functions_flattened.sol\":8708:8905  function approve(address spender, uint256 amount) public virtual override returns (bool) {... */\n    tag_28:\n        /* \"contracts/ERC20Functions_flattened.sol\":8791:8795  bool */\n      0x00\n        /* \"contracts/ERC20Functions_flattened.sol\":741:751  msg.sender */\n      caller\n        /* \"contracts/ERC20Functions_flattened.sol\":8845:8877  _approve(owner, spender, amount) */\n      tag_93\n        /* \"contracts/ERC20Functions_flattened.sol\":741:751  msg.sender */\n      dup2\n        /* \"contracts/ERC20Functions_flattened.sol\":8861:8868  spender */\n      dup6\n        /* \"contracts/ERC20Functions_flattened.sol\":8870:8876  amount */\n      dup6\n        /* \"contracts/ERC20Functions_flattened.sol\":8845:8853  _approve */\n      tag_94\n        /* \"contracts/ERC20Functions_flattened.sol\":8845:8877  _approve(owner, spender, amount) */\n      jump\t// in\n    tag_93:\n        /* \"contracts/ERC20Functions_flattened.sol\":8894:8898  true */\n      0x01\n        /* \"contracts/ERC20Functions_flattened.sol\":8887:8898  return true */\n      swap2\n      pop\n      pop\n        /* \"contracts/ERC20Functions_flattened.sol\":8708:8905  function approve(address spender, uint256 amount) public virtual override returns (bool) {... */\n    tag_90:\n      swap3\n      swap2\n      pop\n      pop\n      jump\t// out\n        /* \"contracts/ERC20Functions_flattened.sol\":9467:9723  function transferFrom(address from, address to, uint256 amount) public virtual override returns (bool) {... */\n    tag_38:\n        /* \"contracts/ERC20Functions_flattened.sol\":9564:9568  bool */\n      0x00\n        /* \"contracts/ERC20Functions_flattened.sol\":741:751  msg.sender */\n      caller\n        /* \"contracts/ERC20Functions_flattened.sol\":9620:9658  _spendAllowance(from, spender, amount) */\n      tag_98\n        /* \"contracts/ERC20Functions_flattened.sol\":9636:9640  from */\n      dup6\n        /* \"contracts/ERC20Functions_flattened.sol\":741:751  msg.sender */\n      dup3\n        /* \"contracts/ERC20Functions_flattened.sol\":9651:9657  amount */\n      dup6\n        /* \"contracts/ERC20Functions_flattened.sol\":9620:9635  _spendAllowance */\n      tag_99\n        /* \"contracts/ERC20Functions_flattened.sol\":9620:9658  _spendAllowance(from, spender, amount) */\n      jump\t// in\n    tag_98:\n        /* \"contracts/ERC20Functions_flattened.sol\":9668:9695  _transfer(from, to, amount) */\n      tag_100\n        /* \"contracts/ERC20Functions_flattened.sol\":9678:9682  from */\n      dup6\n        /* \"contracts/ERC20Functions_flattened.sol\":9684:9686  to */\n      dup6\n        /* \"contracts/ERC20Functions_flattened.sol\":9688:9694  amount */\n      dup6\n        /* \"contracts/ERC20Functions_flattened.sol\":9668:9677  _transfer */\n      tag_101\n        /* \"contracts/ERC20Functions_flattened.sol\":9668:9695  _transfer(from, to, amount) */\n      jump\t// in\n    tag_100:\n      pop\n        /* \"contracts/ERC20Functions_flattened.sol\":9712:9716  true */\n      0x01\n      swap5\n        /* \"contracts/ERC20Functions_flattened.sol\":9467:9723  function transferFrom(address from, address to, uint256 amount) public virtual override returns (bool) {... */\n      swap4\n      pop\n      pop\n      pop\n      pop\n      jump\t// out\n        /* \"contracts/ERC20Functions_flattened.sol\":10118:10352  function increaseAllowance(address spender, uint256 addedValue) public virtual returns (bool) {... */\n    tag_46:\n        /* \"contracts/ERC20Functions_flattened.sol\":10206:10210  bool */\n      0x00\n        /* \"contracts/ERC20Functions_flattened.sol\":741:751  msg.sender */\n      caller\n        /* \"contracts/ERC20Functions_flattened.sol\":10260:10324  _approve(owner, spender, allowance(owner, spender) + addedValue) */\n      tag_93\n        /* \"contracts/ERC20Functions_flattened.sol\":741:751  msg.sender */\n      dup2\n        /* \"contracts/ERC20Functions_flattened.sol\":10276:10283  spender */\n      dup6\n        /* \"contracts/ERC20Functions_flattened.sol\":10313:10323  addedValue */\n      dup6\n        /* \"contracts/ERC20Functions_flattened.sol\":10285:10310  allowance(owner, spender) */\n      tag_106\n        /* \"contracts/ERC20Functions_flattened.sol\":741:751  msg.sender */\n      dup4\n        /* \"contracts/ERC20Functions_flattened.sol\":10276:10283  spender */\n      dup4\n        /* \"contracts/ERC20Functions_flattened.sol\":10285:10294  allowance */\n      tag_81\n        /* \"contracts/ERC20Functions_flattened.sol\":10285:10310  allowance(owner, spender) */\n      jump\t// in\n    tag_106:\n        /* \"contracts/ERC20Functions_flattened.sol\":10285:10323  allowance(owner, spender) + addedValue */\n      tag_107\n      swap2\n      swap1\n      tag_108\n      jump\t// in\n    tag_107:\n        /* \"contracts/ERC20Functions_flattened.sol\":10260:10268  _approve */\n      tag_94\n        /* \"contracts/ERC20Functions_flattened.sol\":10260:10324  _approve(owner, spender, allowance(owner, spender) + addedValue) */\n      jump\t// in\n        /* \"contracts/ERC20Functions_flattened.sol\":17326:17424  function mint(address owner) external {... */\n    tag_51:\n        /* \"contracts/ERC20Functions_flattened.sol\":17374:17417  _mint(owner, 70000000 * (10 ** decimals())) */\n      tag_110\n        /* \"contracts/ERC20Functions_flattened.sol\":17380:17385  owner */\n      dup2\n        /* \"contracts/ERC20Functions_flattened.sol\":17399:17415  10 ** decimals() */\n      tag_112\n        /* \"contracts/ERC20Functions_flattened.sol\":7450:7452  18 */\n      0x12\n        /* \"contracts/ERC20Functions_flattened.sol\":17399:17401  10 */\n      0x0a\n        /* \"contracts/ERC20Functions_flattened.sol\":17399:17415  10 ** decimals() */\n      tag_113\n      jump\t// in\n    tag_112:\n        /* \"contracts/ERC20Functions_flattened.sol\":17387:17416  70000000 * (10 ** decimals()) */\n      tag_114\n      swap1\n        /* \"contracts/ERC20Functions_flattened.sol\":17387:17395  70000000 */\n      0x042c1d80\n        /* \"contracts/ERC20Functions_flattened.sol\":17387:17416  70000000 * (10 ** decimals()) */\n      tag_115\n      jump\t// in\n    tag_114:\n        /* \"contracts/ERC20Functions_flattened.sol\":17374:17379  _mint */\n      tag_116\n        /* \"contracts/ERC20Functions_flattened.sol\":17374:17417  _mint(owner, 70000000 * (10 ** decimals())) */\n      jump\t// in\n    tag_110:\n        /* \"contracts/ERC20Functions_flattened.sol\":17326:17424  function mint(address owner) external {... */\n      pop\n      jump\t// out\n        /* \"contracts/ERC20Functions_flattened.sol\":6633:6735  function symbol() public view virtual override returns (string memory) {... */\n    tag_57:\n        /* \"contracts/ERC20Functions_flattened.sol\":6689:6702  string memory */\n      0x60\n        /* \"contracts/ERC20Functions_flattened.sol\":6721:6728  _symbol */\n      0x04\n        /* \"contracts/ERC20Functions_flattened.sol\":6714:6728  return _symbol */\n      dup1\n      sload\n      tag_84\n      swap1\n      tag_85\n      jump\t// in\n        /* \"contracts/ERC20Functions_flattened.sol\":10839:11266  function decreaseAllowance(address spender, uint256 subtractedValue) public virtual returns (bool) {... */\n    tag_61:\n        /* \"contracts/ERC20Functions_flattened.sol\":10932:10936  bool */\n      0x00\n        /* \"contracts/ERC20Functions_flattened.sol\":741:751  msg.sender */\n      caller\n        /* \"contracts/ERC20Functions_flattened.sol\":10932:10936  bool */\n      dup2\n        /* \"contracts/ERC20Functions_flattened.sol\":11013:11038  allowance(owner, spender) */\n      tag_126\n        /* \"contracts/ERC20Functions_flattened.sol\":741:751  msg.sender */\n      dup3\n        /* \"contracts/ERC20Functions_flattened.sol\":11030:11037  spender */\n      dup7\n        /* \"contracts/ERC20Functions_flattened.sol\":11013:11022  allowance */\n      tag_81\n        /* \"contracts/ERC20Functions_flattened.sol\":11013:11038  allowance(owner, spender) */\n      jump\t// in\n    tag_126:\n        /* \"contracts/ERC20Functions_flattened.sol\":10986:11038  uint256 currentAllowance = allowance(owner, spender) */\n      swap1\n      pop\n        /* \"contracts/ERC20Functions_flattened.sol\":11076:11091  subtractedValue */\n      dup4\n        /* \"contracts/ERC20Functions_flattened.sol\":11056:11072  currentAllowance */\n      dup2\n        /* \"contracts/ERC20Functions_flattened.sol\":11056:11091  currentAllowance >= subtractedValue */\n      lt\n      iszero\n        /* \"contracts/ERC20Functions_flattened.sol\":11048:11133  require(currentAllowance >= subtractedValue, \"ERC20: decreased allowance below zero\") */\n      tag_127\n      jumpi\n      mload(0x40)\n      shl(0xe5, 0x461bcd)\n      dup2\n      mstore\n        /* \"#utility.yul\":4969:4971   */\n      0x20\n        /* \"contracts/ERC20Functions_flattened.sol\":11048:11133  require(currentAllowance >= subtractedValue, \"ERC20: decreased allowance below zero\") */\n      0x04\n      dup3\n      add\n        /* \"#utility.yul\":4951:4972   */\n      mstore\n        /* \"#utility.yul\":5008:5010   */\n      0x25\n        /* \"#utility.yul\":4988:5006   */\n      0x24\n      dup3\n      add\n        /* \"#utility.yul\":4981:5011   */\n      mstore\n        /* \"#utility.yul\":5047:5081   */\n      0x45524332303a2064656372656173656420616c6c6f77616e63652062656c6f77\n        /* \"#utility.yul\":5027:5045   */\n      0x44\n      dup3\n      add\n        /* \"#utility.yul\":5020:5082   */\n      mstore\n      shl(0xd8, 0x207a65726f)\n        /* \"#utility.yul\":5098:5116   */\n      0x64\n      dup3\n      add\n        /* \"#utility.yul\":5091:5126   */\n      mstore\n        /* \"#utility.yul\":5143:5162   */\n      0x84\n      add\n        /* \"contracts/ERC20Functions_flattened.sol\":11048:11133  require(currentAllowance >= subtractedValue, \"ERC20: decreased allowance below zero\") */\n    tag_128:\n      mload(0x40)\n      dup1\n      swap2\n      sub\n      swap1\n      revert\n    tag_127:\n        /* \"contracts/ERC20Functions_flattened.sol\":11167:11227  _approve(owner, spender, currentAllowance - subtractedValue) */\n      tag_100\n        /* \"contracts/ERC20Functions_flattened.sol\":11176:11181  owner */\n      dup3\n        /* \"contracts/ERC20Functions_flattened.sol\":11183:11190  spender */\n      dup7\n        /* \"contracts/ERC20Functions_flattened.sol\":11211:11226  subtractedValue */\n      dup7\n        /* \"contracts/ERC20Functions_flattened.sol\":11192:11208  currentAllowance */\n      dup5\n        /* \"contracts/ERC20Functions_flattened.sol\":11192:11226  currentAllowance - subtractedValue */\n      sub\n        /* \"contracts/ERC20Functions_flattened.sol\":11167:11175  _approve */\n      tag_94\n        /* \"contracts/ERC20Functions_flattened.sol\":11167:11227  _approve(owner, spender, currentAllowance - subtractedValue) */\n      jump\t// in\n        /* \"contracts/ERC20Functions_flattened.sol\":8004:8193  function transfer(address to, uint256 amount) public virtual override returns (bool) {... */\n    tag_69:\n        /* \"contracts/ERC20Functions_flattened.sol\":8083:8087  bool */\n      0x00\n        /* \"contracts/ERC20Functions_flattened.sol\":741:751  msg.sender */\n      caller\n        /* \"contracts/ERC20Functions_flattened.sol\":8137:8165  _transfer(owner, to, amount) */\n      tag_93\n        /* \"contracts/ERC20Functions_flattened.sol\":741:751  msg.sender */\n      dup2\n        /* \"contracts/ERC20Functions_flattened.sol\":8154:8156  to */\n      dup6\n        /* \"contracts/ERC20Functions_flattened.sol\":8158:8164  amount */\n      dup6\n        /* \"contracts/ERC20Functions_flattened.sol\":8137:8146  _transfer */\n      tag_101\n        /* \"contracts/ERC20Functions_flattened.sol\":8137:8165  _transfer(owner, to, amount) */\n      jump\t// in\n        /* \"contracts/ERC20Functions_flattened.sol\":17571:17681  function transfer(address from, address to, uint amount) external {... */\n    tag_73:\n        /* \"contracts/ERC20Functions_flattened.sol\":17647:17674  _transfer(from, to, amount) */\n      tag_135\n        /* \"contracts/ERC20Functions_flattened.sol\":17657:17661  from */\n      dup4\n        /* \"contracts/ERC20Functions_flattened.sol\":17663:17665  to */\n      dup4\n        /* \"contracts/ERC20Functions_flattened.sol\":17667:17673  amount */\n      dup4\n        /* \"contracts/ERC20Functions_flattened.sol\":17647:17656  _transfer */\n      tag_101\n        /* \"contracts/ERC20Functions_flattened.sol\":17647:17674  _transfer(from, to, amount) */\n      jump\t// in\n    tag_135:\n        /* \"contracts/ERC20Functions_flattened.sol\":17571:17681  function transfer(address from, address to, uint amount) external {... */\n      pop\n      pop\n      pop\n      jump\t// out\n        /* \"contracts/ERC20Functions_flattened.sol\":17430:17565  function findBalance(address user) external view returns (uint) {... */\n    tag_76:\n      sub(shl(0xa0, 0x01), 0x01)\n        /* \"contracts/ERC20Functions_flattened.sol\":7783:7801  _balances[account] */\n      dup2\n      and\n        /* \"contracts/ERC20Functions_flattened.sol\":17488:17492  uint */\n      0x00\n        /* \"contracts/ERC20Functions_flattened.sol\":7783:7801  _balances[account] */\n      swap1\n      dup2\n      mstore\n      0x20\n      dup2\n      swap1\n      mstore\n      0x40\n      dup2\n      keccak256\n      sload\n        /* \"contracts/ERC20Functions_flattened.sol\":17488:17492  uint */\n      dup2\n      swap1\n        /* \"contracts/ERC20Functions_flattened.sol\":17519:17534  balanceOf(user) */\n    tag_137:\n        /* \"contracts/ERC20Functions_flattened.sol\":17504:17534  uint balance = balanceOf(user) */\n      swap4\n        /* \"contracts/ERC20Functions_flattened.sol\":17430:17565  function findBalance(address user) external view returns (uint) {... */\n      swap3\n      pop\n      pop\n      pop\n      jump\t// out\n        /* \"contracts/ERC20Functions_flattened.sol\":8251:8400  function allowance(address owner, address spender) public view virtual override returns (uint256) {... */\n    tag_81:\n      sub(shl(0xa0, 0x01), 0x01)\n        /* \"contracts/ERC20Functions_flattened.sol\":8366:8384  _allowances[owner] */\n      swap2\n      dup3\n      and\n        /* \"contracts/ERC20Functions_flattened.sol\":8340:8347  uint256 */\n      0x00\n        /* \"contracts/ERC20Functions_flattened.sol\":8366:8384  _allowances[owner] */\n      swap1\n      dup2\n      mstore\n        /* \"contracts/ERC20Functions_flattened.sol\":8366:8377  _allowances */\n      0x01\n        /* \"contracts/ERC20Functions_flattened.sol\":8366:8384  _allowances[owner] */\n      0x20\n      swap1\n      dup2\n      mstore\n      0x40\n      dup1\n      dup4\n      keccak256\n        /* \"contracts/ERC20Functions_flattened.sol\":8366:8393  _allowances[owner][spender] */\n      swap4\n      swap1\n      swap5\n      and\n      dup3\n      mstore\n      swap2\n      swap1\n      swap2\n      mstore\n      keccak256\n      sload\n      swap1\n        /* \"contracts/ERC20Functions_flattened.sol\":8251:8400  function allowance(address owner, address spender) public view virtual override returns (uint256) {... */\n      jump\t// out\n        /* \"contracts/ERC20Functions_flattened.sol\":14721:15061  function _approve(address owner, address spender, uint256 amount) internal virtual {... */\n    tag_94:\n      sub(shl(0xa0, 0x01), 0x01)\n        /* \"contracts/ERC20Functions_flattened.sol\":14822:14841  owner != address(0) */\n      dup4\n      and\n        /* \"contracts/ERC20Functions_flattened.sol\":14814:14882  require(owner != address(0), \"ERC20: approve from the zero address\") */\n      tag_141\n      jumpi\n      mload(0x40)\n      shl(0xe5, 0x461bcd)\n      dup2\n      mstore\n        /* \"#utility.yul\":5375:5377   */\n      0x20\n        /* \"contracts/ERC20Functions_flattened.sol\":14814:14882  require(owner != address(0), \"ERC20: approve from the zero address\") */\n      0x04\n      dup3\n      add\n        /* \"#utility.yul\":5357:5378   */\n      mstore\n        /* \"#utility.yul\":5414:5416   */\n      0x24\n        /* \"#utility.yul\":5394:5412   */\n      dup1\n      dup3\n      add\n        /* \"#utility.yul\":5387:5417   */\n      mstore\n        /* \"#utility.yul\":5453:5487   */\n      0x45524332303a20617070726f76652066726f6d20746865207a65726f20616464\n        /* \"#utility.yul\":5433:5451   */\n      0x44\n      dup3\n      add\n        /* \"#utility.yul\":5426:5488   */\n      mstore\n      shl(0xe0, 0x72657373)\n        /* \"#utility.yul\":5504:5522   */\n      0x64\n      dup3\n      add\n        /* \"#utility.yul\":5497:5531   */\n      mstore\n        /* \"#utility.yul\":5548:5567   */\n      0x84\n      add\n        /* \"contracts/ERC20Functions_flattened.sol\":14814:14882  require(owner != address(0), \"ERC20: approve from the zero address\") */\n      tag_128\n        /* \"#utility.yul\":5173:5573   */\n      jump\n        /* \"contracts/ERC20Functions_flattened.sol\":14814:14882  require(owner != address(0), \"ERC20: approve from the zero address\") */\n    tag_141:\n      sub(shl(0xa0, 0x01), 0x01)\n        /* \"contracts/ERC20Functions_flattened.sol\":14900:14921  spender != address(0) */\n      dup3\n      and\n        /* \"contracts/ERC20Functions_flattened.sol\":14892:14960  require(spender != address(0), \"ERC20: approve to the zero address\") */\n      tag_144\n      jumpi\n      mload(0x40)\n      shl(0xe5, 0x461bcd)\n      dup2\n      mstore\n        /* \"#utility.yul\":5780:5782   */\n      0x20\n        /* \"contracts/ERC20Functions_flattened.sol\":14892:14960  require(spender != address(0), \"ERC20: approve to the zero address\") */\n      0x04\n      dup3\n      add\n        /* \"#utility.yul\":5762:5783   */\n      mstore\n        /* \"#utility.yul\":5819:5821   */\n      0x22\n        /* \"#utility.yul\":5799:5817   */\n      0x24\n      dup3\n      add\n        /* \"#utility.yul\":5792:5822   */\n      mstore\n        /* \"#utility.yul\":5858:5892   */\n      0x45524332303a20617070726f766520746f20746865207a65726f206164647265\n        /* \"#utility.yul\":5838:5856   */\n      0x44\n      dup3\n      add\n        /* \"#utility.yul\":5831:5893   */\n      mstore\n      shl(0xf0, 0x7373)\n        /* \"#utility.yul\":5909:5927   */\n      0x64\n      dup3\n      add\n        /* \"#utility.yul\":5902:5934   */\n      mstore\n        /* \"#utility.yul\":5951:5970   */\n      0x84\n      add\n        /* \"contracts/ERC20Functions_flattened.sol\":14892:14960  require(spender != address(0), \"ERC20: approve to the zero address\") */\n      tag_128\n        /* \"#utility.yul\":5578:5976   */\n      jump\n        /* \"contracts/ERC20Functions_flattened.sol\":14892:14960  require(spender != address(0), \"ERC20: approve to the zero address\") */\n    tag_144:\n      sub(shl(0xa0, 0x01), 0x01)\n        /* \"contracts/ERC20Functions_flattened.sol\":14971:14989  _allowances[owner] */\n      dup4\n      dup2\n      and\n      0x00\n      dup2\n      dup2\n      mstore\n        /* \"contracts/ERC20Functions_flattened.sol\":14971:14982  _allowances */\n      0x01\n        /* \"contracts/ERC20Functions_flattened.sol\":14971:14989  _allowances[owner] */\n      0x20\n      swap1\n      dup2\n      mstore\n      0x40\n      dup1\n      dup4\n      keccak256\n        /* \"contracts/ERC20Functions_flattened.sol\":14971:14998  _allowances[owner][spender] */\n      swap5\n      dup8\n      and\n      dup1\n      dup5\n      mstore\n      swap5\n      dup3\n      mstore\n      swap2\n      dup3\n      swap1\n      keccak256\n        /* \"contracts/ERC20Functions_flattened.sol\":14971:15007  _allowances[owner][spender] = amount */\n      dup6\n      swap1\n      sstore\n        /* \"contracts/ERC20Functions_flattened.sol\":15022:15054  Approval(owner, spender, amount) */\n      swap1\n      mload\n        /* \"#utility.yul\":1342:1367   */\n      dup5\n      dup2\n      mstore\n        /* \"contracts/ERC20Functions_flattened.sol\":15022:15054  Approval(owner, spender, amount) */\n      0x8c5be1e5ebec7d5bd14f71427d1e84f3dd0314c0f7b2291e5b200ac8c7c3b925\n      swap2\n        /* \"#utility.yul\":1315:1333   */\n      add\n        /* \"contracts/ERC20Functions_flattened.sol\":15022:15054  Approval(owner, spender, amount) */\n      mload(0x40)\n      dup1\n      swap2\n      sub\n      swap1\n      log3\n        /* \"contracts/ERC20Functions_flattened.sol\":14721:15061  function _approve(address owner, address spender, uint256 amount) internal virtual {... */\n      pop\n      pop\n      pop\n      jump\t// out\n        /* \"contracts/ERC20Functions_flattened.sol\":15342:15753  function _spendAllowance(address owner, address spender, uint256 amount) internal virtual {... */\n    tag_99:\n        /* \"contracts/ERC20Functions_flattened.sol\":15442:15466  uint256 currentAllowance */\n      0x00\n        /* \"contracts/ERC20Functions_flattened.sol\":15469:15494  allowance(owner, spender) */\n      tag_149\n        /* \"contracts/ERC20Functions_flattened.sol\":15479:15484  owner */\n      dup5\n        /* \"contracts/ERC20Functions_flattened.sol\":15486:15493  spender */\n      dup5\n        /* \"contracts/ERC20Functions_flattened.sol\":15469:15478  allowance */\n      tag_81\n        /* \"contracts/ERC20Functions_flattened.sol\":15469:15494  allowance(owner, spender) */\n      jump\t// in\n    tag_149:\n        /* \"contracts/ERC20Functions_flattened.sol\":15442:15494  uint256 currentAllowance = allowance(owner, spender) */\n      swap1\n      pop\n      not(0x00)\n        /* \"contracts/ERC20Functions_flattened.sol\":15508:15524  currentAllowance */\n      dup2\n        /* \"contracts/ERC20Functions_flattened.sol\":15508:15545  currentAllowance != type(uint256).max */\n      eq\n        /* \"contracts/ERC20Functions_flattened.sol\":15504:15747  if (currentAllowance != type(uint256).max) {... */\n      tag_154\n      jumpi\n        /* \"contracts/ERC20Functions_flattened.sol\":15589:15595  amount */\n      dup2\n        /* \"contracts/ERC20Functions_flattened.sol\":15569:15585  currentAllowance */\n      dup2\n        /* \"contracts/ERC20Functions_flattened.sol\":15569:15595  currentAllowance >= amount */\n      lt\n      iszero\n        /* \"contracts/ERC20Functions_flattened.sol\":15561:15629  require(currentAllowance >= amount, \"ERC20: insufficient allowance\") */\n      tag_151\n      jumpi\n      mload(0x40)\n      shl(0xe5, 0x461bcd)\n      dup2\n      mstore\n        /* \"#utility.yul\":6183:6185   */\n      0x20\n        /* \"contracts/ERC20Functions_flattened.sol\":15561:15629  require(currentAllowance >= amount, \"ERC20: insufficient allowance\") */\n      0x04\n      dup3\n      add\n        /* \"#utility.yul\":6165:6186   */\n      mstore\n        /* \"#utility.yul\":6222:6224   */\n      0x1d\n        /* \"#utility.yul\":6202:6220   */\n      0x24\n      dup3\n      add\n        /* \"#utility.yul\":6195:6225   */\n      mstore\n        /* \"#utility.yul\":6261:6292   */\n      0x45524332303a20696e73756666696369656e7420616c6c6f77616e6365000000\n        /* \"#utility.yul\":6241:6259   */\n      0x44\n      dup3\n      add\n        /* \"#utility.yul\":6234:6293   */\n      mstore\n        /* \"#utility.yul\":6310:6328   */\n      0x64\n      add\n        /* \"contracts/ERC20Functions_flattened.sol\":15561:15629  require(currentAllowance >= amount, \"ERC20: insufficient allowance\") */\n      tag_128\n        /* \"#utility.yul\":5981:6334   */\n      jump\n        /* \"contracts/ERC20Functions_flattened.sol\":15561:15629  require(currentAllowance >= amount, \"ERC20: insufficient allowance\") */\n    tag_151:\n        /* \"contracts/ERC20Functions_flattened.sol\":15671:15722  _approve(owner, spender, currentAllowance - amount) */\n      tag_154\n        /* \"contracts/ERC20Functions_flattened.sol\":15680:15685  owner */\n      dup5\n        /* \"contracts/ERC20Functions_flattened.sol\":15687:15694  spender */\n      dup5\n        /* \"contracts/ERC20Functions_flattened.sol\":15715:15721  amount */\n      dup5\n        /* \"contracts/ERC20Functions_flattened.sol\":15696:15712  currentAllowance */\n      dup5\n        /* \"contracts/ERC20Functions_flattened.sol\":15696:15721  currentAllowance - amount */\n      sub\n        /* \"contracts/ERC20Functions_flattened.sol\":15671:15679  _approve */\n      tag_94\n        /* \"contracts/ERC20Functions_flattened.sol\":15671:15722  _approve(owner, spender, currentAllowance - amount) */\n      jump\t// in\n    tag_154:\n        /* \"contracts/ERC20Functions_flattened.sol\":15432:15753  {... */\n      pop\n        /* \"contracts/ERC20Functions_flattened.sol\":15342:15753  function _spendAllowance(address owner, address spender, uint256 amount) internal virtual {... */\n      pop\n      pop\n      pop\n      jump\t// out\n        /* \"contracts/ERC20Functions_flattened.sol\":11720:12508  function _transfer(address from, address to, uint256 amount) internal virtual {... */\n    tag_101:\n      sub(shl(0xa0, 0x01), 0x01)\n        /* \"contracts/ERC20Functions_flattened.sol\":11816:11834  from != address(0) */\n      dup4\n      and\n        /* \"contracts/ERC20Functions_flattened.sol\":11808:11876  require(from != address(0), \"ERC20: transfer from the zero address\") */\n      tag_156\n      jumpi\n      mload(0x40)\n      shl(0xe5, 0x461bcd)\n      dup2\n      mstore\n        /* \"#utility.yul\":6541:6543   */\n      0x20\n        /* \"contracts/ERC20Functions_flattened.sol\":11808:11876  require(from != address(0), \"ERC20: transfer from the zero address\") */\n      0x04\n      dup3\n      add\n        /* \"#utility.yul\":6523:6544   */\n      mstore\n        /* \"#utility.yul\":6580:6582   */\n      0x25\n        /* \"#utility.yul\":6560:6578   */\n      0x24\n      dup3\n      add\n        /* \"#utility.yul\":6553:6583   */\n      mstore\n        /* \"#utility.yul\":6619:6653   */\n      0x45524332303a207472616e736665722066726f6d20746865207a65726f206164\n        /* \"#utility.yul\":6599:6617   */\n      0x44\n      dup3\n      add\n        /* \"#utility.yul\":6592:6654   */\n      mstore\n      shl(0xd8, 0x6472657373)\n        /* \"#utility.yul\":6670:6688   */\n      0x64\n      dup3\n      add\n        /* \"#utility.yul\":6663:6698   */\n      mstore\n        /* \"#utility.yul\":6715:6734   */\n      0x84\n      add\n        /* \"contracts/ERC20Functions_flattened.sol\":11808:11876  require(from != address(0), \"ERC20: transfer from the zero address\") */\n      tag_128\n        /* \"#utility.yul\":6339:6740   */\n      jump\n        /* \"contracts/ERC20Functions_flattened.sol\":11808:11876  require(from != address(0), \"ERC20: transfer from the zero address\") */\n    tag_156:\n      sub(shl(0xa0, 0x01), 0x01)\n        /* \"contracts/ERC20Functions_flattened.sol\":11894:11910  to != address(0) */\n      dup3\n      and\n        /* \"contracts/ERC20Functions_flattened.sol\":11886:11950  require(to != address(0), \"ERC20: transfer to the zero address\") */\n      tag_159\n      jumpi\n      mload(0x40)\n      shl(0xe5, 0x461bcd)\n      dup2\n      mstore\n        /* \"#utility.yul\":6947:6949   */\n      0x20\n        /* \"contracts/ERC20Functions_flattened.sol\":11886:11950  require(to != address(0), \"ERC20: transfer to the zero address\") */\n      0x04\n      dup3\n      add\n        /* \"#utility.yul\":6929:6950   */\n      mstore\n        /* \"#utility.yul\":6986:6988   */\n      0x23\n        /* \"#utility.yul\":6966:6984   */\n      0x24\n      dup3\n      add\n        /* \"#utility.yul\":6959:6989   */\n      mstore\n        /* \"#utility.yul\":7025:7059   */\n      0x45524332303a207472616e7366657220746f20746865207a65726f2061646472\n        /* \"#utility.yul\":7005:7023   */\n      0x44\n      dup3\n      add\n        /* \"#utility.yul\":6998:7060   */\n      mstore\n      shl(0xe8, 0x657373)\n        /* \"#utility.yul\":7076:7094   */\n      0x64\n      dup3\n      add\n        /* \"#utility.yul\":7069:7102   */\n      mstore\n        /* \"#utility.yul\":7119:7138   */\n      0x84\n      add\n        /* \"contracts/ERC20Functions_flattened.sol\":11886:11950  require(to != address(0), \"ERC20: transfer to the zero address\") */\n      tag_128\n        /* \"#utility.yul\":6745:7144   */\n      jump\n        /* \"contracts/ERC20Functions_flattened.sol\":11886:11950  require(to != address(0), \"ERC20: transfer to the zero address\") */\n    tag_159:\n      sub(shl(0xa0, 0x01), 0x01)\n        /* \"contracts/ERC20Functions_flattened.sol\":12032:12047  _balances[from] */\n      dup4\n      and\n        /* \"contracts/ERC20Functions_flattened.sol\":12010:12029  uint256 fromBalance */\n      0x00\n        /* \"contracts/ERC20Functions_flattened.sol\":12032:12047  _balances[from] */\n      swap1\n      dup2\n      mstore\n      0x20\n      dup2\n      swap1\n      mstore\n      0x40\n      swap1\n      keccak256\n      sload\n        /* \"contracts/ERC20Functions_flattened.sol\":12065:12086  fromBalance >= amount */\n      dup2\n      dup2\n      lt\n      iszero\n        /* \"contracts/ERC20Functions_flattened.sol\":12057:12129  require(fromBalance >= amount, \"ERC20: transfer amount exceeds balance\") */\n      tag_164\n      jumpi\n      mload(0x40)\n      shl(0xe5, 0x461bcd)\n      dup2\n      mstore\n        /* \"#utility.yul\":7351:7353   */\n      0x20\n        /* \"contracts/ERC20Functions_flattened.sol\":12057:12129  require(fromBalance >= amount, \"ERC20: transfer amount exceeds balance\") */\n      0x04\n      dup3\n      add\n        /* \"#utility.yul\":7333:7354   */\n      mstore\n        /* \"#utility.yul\":7390:7392   */\n      0x26\n        /* \"#utility.yul\":7370:7388   */\n      0x24\n      dup3\n      add\n        /* \"#utility.yul\":7363:7393   */\n      mstore\n        /* \"#utility.yul\":7429:7463   */\n      0x45524332303a207472616e7366657220616d6f756e7420657863656564732062\n        /* \"#utility.yul\":7409:7427   */\n      0x44\n      dup3\n      add\n        /* \"#utility.yul\":7402:7464   */\n      mstore\n      shl(0xd0, 0x616c616e6365)\n        /* \"#utility.yul\":7480:7498   */\n      0x64\n      dup3\n      add\n        /* \"#utility.yul\":7473:7509   */\n      mstore\n        /* \"#utility.yul\":7526:7545   */\n      0x84\n      add\n        /* \"contracts/ERC20Functions_flattened.sol\":12057:12129  require(fromBalance >= amount, \"ERC20: transfer amount exceeds balance\") */\n      tag_128\n        /* \"#utility.yul\":7149:7551   */\n      jump\n        /* \"contracts/ERC20Functions_flattened.sol\":12057:12129  require(fromBalance >= amount, \"ERC20: transfer amount exceeds balance\") */\n    tag_164:\n      sub(shl(0xa0, 0x01), 0x01)\n        /* \"contracts/ERC20Functions_flattened.sol\":12163:12178  _balances[from] */\n      dup5\n      dup2\n      and\n        /* \"contracts/ERC20Functions_flattened.sol\":12163:12172  _balances */\n      0x00\n        /* \"contracts/ERC20Functions_flattened.sol\":12163:12178  _balances[from] */\n      dup2\n      dup2\n      mstore\n      0x20\n      dup2\n      dup2\n      mstore\n      0x40\n      dup1\n      dup4\n      keccak256\n        /* \"contracts/ERC20Functions_flattened.sol\":12181:12201  fromBalance - amount */\n      dup8\n      dup8\n      sub\n        /* \"contracts/ERC20Functions_flattened.sol\":12163:12201  _balances[from] = fromBalance - amount */\n      swap1\n      sstore\n        /* \"contracts/ERC20Functions_flattened.sol\":12378:12391  _balances[to] */\n      swap4\n      dup8\n      and\n      dup1\n      dup4\n      mstore\n      swap2\n      dup5\n      swap1\n      keccak256\n        /* \"contracts/ERC20Functions_flattened.sol\":12378:12401  _balances[to] += amount */\n      dup1\n      sload\n      dup8\n      add\n      swap1\n      sstore\n        /* \"contracts/ERC20Functions_flattened.sol\":12427:12453  Transfer(from, to, amount) */\n      swap3\n      mload\n        /* \"#utility.yul\":1342:1367   */\n      dup6\n      dup2\n      mstore\n        /* \"contracts/ERC20Functions_flattened.sol\":12378:12391  _balances[to] */\n      swap1\n      swap3\n        /* \"contracts/ERC20Functions_flattened.sol\":12427:12453  Transfer(from, to, amount) */\n      0xddf252ad1be2c89b69c2b068fc378daa952ba7f163c4a11628f55a4df523b3ef\n      swap2\n        /* \"#utility.yul\":1315:1333   */\n      add\n        /* \"contracts/ERC20Functions_flattened.sol\":12427:12453  Transfer(from, to, amount) */\n      mload(0x40)\n      dup1\n      swap2\n      sub\n      swap1\n      log3\n        /* \"contracts/ERC20Functions_flattened.sol\":12464:12501  _afterTokenTransfer(from, to, amount) */\n      tag_154\n        /* \"contracts/ERC20Functions_flattened.sol\":17571:17681  function transfer(address from, address to, uint amount) external {... */\n      jump\n        /* \"contracts/ERC20Functions_flattened.sol\":12784:13319  function _mint(address account, uint256 amount) internal virtual {... */\n    tag_116:\n      sub(shl(0xa0, 0x01), 0x01)\n        /* \"contracts/ERC20Functions_flattened.sol\":12867:12888  account != address(0) */\n      dup3\n      and\n        /* \"contracts/ERC20Functions_flattened.sol\":12859:12924  require(account != address(0), \"ERC20: mint to the zero address\") */\n      tag_171\n      jumpi\n      mload(0x40)\n      shl(0xe5, 0x461bcd)\n      dup2\n      mstore\n        /* \"#utility.yul\":7758:7760   */\n      0x20\n        /* \"contracts/ERC20Functions_flattened.sol\":12859:12924  require(account != address(0), \"ERC20: mint to the zero address\") */\n      0x04\n      dup3\n      add\n        /* \"#utility.yul\":7740:7761   */\n      mstore\n        /* \"#utility.yul\":7797:7799   */\n      0x1f\n        /* \"#utility.yul\":7777:7795   */\n      0x24\n      dup3\n      add\n        /* \"#utility.yul\":7770:7800   */\n      mstore\n        /* \"#utility.yul\":7836:7869   */\n      0x45524332303a206d696e7420746f20746865207a65726f206164647265737300\n        /* \"#utility.yul\":7816:7834   */\n      0x44\n      dup3\n      add\n        /* \"#utility.yul\":7809:7870   */\n      mstore\n        /* \"#utility.yul\":7887:7905   */\n      0x64\n      add\n        /* \"contracts/ERC20Functions_flattened.sol\":12859:12924  require(account != address(0), \"ERC20: mint to the zero address\") */\n      tag_128\n        /* \"#utility.yul\":7556:7911   */\n      jump\n        /* \"contracts/ERC20Functions_flattened.sol\":12859:12924  require(account != address(0), \"ERC20: mint to the zero address\") */\n    tag_171:\n        /* \"contracts/ERC20Functions_flattened.sol\":13011:13017  amount */\n      dup1\n        /* \"contracts/ERC20Functions_flattened.sol\":12995:13007  _totalSupply */\n      0x02\n      0x00\n        /* \"contracts/ERC20Functions_flattened.sol\":12995:13017  _totalSupply += amount */\n      dup3\n      dup3\n      sload\n      tag_175\n      swap2\n      swap1\n      tag_108\n      jump\t// in\n    tag_175:\n      swap1\n      swap2\n      sstore\n      pop\n      pop\n      sub(shl(0xa0, 0x01), 0x01)\n        /* \"contracts/ERC20Functions_flattened.sol\":13163:13181  _balances[account] */\n      dup3\n      and\n        /* \"contracts/ERC20Functions_flattened.sol\":13163:13172  _balances */\n      0x00\n        /* \"contracts/ERC20Functions_flattened.sol\":13163:13181  _balances[account] */\n      dup2\n      dup2\n      mstore\n      0x20\n      dup2\n      dup2\n      mstore\n      0x40\n      dup1\n      dup4\n      keccak256\n        /* \"contracts/ERC20Functions_flattened.sol\":13163:13191  _balances[account] += amount */\n      dup1\n      sload\n      dup7\n      add\n      swap1\n      sstore\n        /* \"contracts/ERC20Functions_flattened.sol\":13216:13253  Transfer(address(0), account, amount) */\n      mload\n        /* \"#utility.yul\":1342:1367   */\n      dup5\n      dup2\n      mstore\n        /* \"contracts/ERC20Functions_flattened.sol\":13216:13253  Transfer(address(0), account, amount) */\n      0xddf252ad1be2c89b69c2b068fc378daa952ba7f163c4a11628f55a4df523b3ef\n      swap2\n        /* \"#utility.yul\":1315:1333   */\n      add\n        /* \"contracts/ERC20Functions_flattened.sol\":13216:13253  Transfer(address(0), account, amount) */\n      mload(0x40)\n      dup1\n      swap2\n      sub\n      swap1\n      log3\n        /* \"contracts/ERC20Functions_flattened.sol\":12784:13319  function _mint(address account, uint256 amount) internal virtual {... */\n      pop\n      pop\n      jump\t// out\n        /* \"#utility.yul\":14:562   */\n    tag_24:\n        /* \"#utility.yul\":126:130   */\n      0x00\n        /* \"#utility.yul\":155:157   */\n      0x20\n        /* \"#utility.yul\":184:186   */\n      dup1\n        /* \"#utility.yul\":173:182   */\n      dup4\n        /* \"#utility.yul\":166:187   */\n      mstore\n        /* \"#utility.yul\":216:222   */\n      dup4\n        /* \"#utility.yul\":210:223   */\n      mload\n        /* \"#utility.yul\":259:265   */\n      dup1\n        /* \"#utility.yul\":254:256   */\n      dup3\n        /* \"#utility.yul\":243:252   */\n      dup6\n        /* \"#utility.yul\":239:257   */\n      add\n        /* \"#utility.yul\":232:266   */\n      mstore\n        /* \"#utility.yul\":284:285   */\n      0x00\n        /* \"#utility.yul\":294:434   */\n    tag_186:\n        /* \"#utility.yul\":308:314   */\n      dup2\n        /* \"#utility.yul\":305:306   */\n      dup2\n        /* \"#utility.yul\":302:315   */\n      lt\n        /* \"#utility.yul\":294:434   */\n      iszero\n      tag_188\n      jumpi\n        /* \"#utility.yul\":403:417   */\n      dup6\n      dup2\n      add\n        /* \"#utility.yul\":399:422   */\n      dup4\n      add\n        /* \"#utility.yul\":393:423   */\n      mload\n        /* \"#utility.yul\":369:386   */\n      dup6\n      dup3\n      add\n        /* \"#utility.yul\":388:390   */\n      0x40\n        /* \"#utility.yul\":365:391   */\n      add\n        /* \"#utility.yul\":358:424   */\n      mstore\n        /* \"#utility.yul\":323:333   */\n      dup3\n      add\n        /* \"#utility.yul\":294:434   */\n      jump(tag_186)\n    tag_188:\n        /* \"#utility.yul\":298:301   */\n      pop\n        /* \"#utility.yul\":483:484   */\n      0x00\n        /* \"#utility.yul\":478:480   */\n      0x40\n        /* \"#utility.yul\":469:475   */\n      dup3\n        /* \"#utility.yul\":458:467   */\n      dup7\n        /* \"#utility.yul\":454:476   */\n      add\n        /* \"#utility.yul\":450:481   */\n      add\n        /* \"#utility.yul\":443:485   */\n      mstore\n        /* \"#utility.yul\":553:555   */\n      0x40\n        /* \"#utility.yul\":546:548   */\n      0x1f\n        /* \"#utility.yul\":542:549   */\n      not\n        /* \"#utility.yul\":537:539   */\n      0x1f\n        /* \"#utility.yul\":529:535   */\n      dup4\n        /* \"#utility.yul\":525:540   */\n      add\n        /* \"#utility.yul\":521:550   */\n      and\n        /* \"#utility.yul\":510:519   */\n      dup6\n        /* \"#utility.yul\":506:551   */\n      add\n        /* \"#utility.yul\":502:556   */\n      add\n        /* \"#utility.yul\":494:556   */\n      swap3\n      pop\n      pop\n      pop\n        /* \"#utility.yul\":14:562   */\n      swap3\n      swap2\n      pop\n      pop\n      jump\t// out\n        /* \"#utility.yul\":567:740   */\n    tag_180:\n        /* \"#utility.yul\":635:655   */\n      dup1\n      calldataload\n      sub(shl(0xa0, 0x01), 0x01)\n        /* \"#utility.yul\":684:715   */\n      dup2\n      and\n        /* \"#utility.yul\":674:716   */\n      dup2\n      eq\n        /* \"#utility.yul\":664:734   */\n      tag_190\n      jumpi\n        /* \"#utility.yul\":730:731   */\n      0x00\n        /* \"#utility.yul\":727:728   */\n      dup1\n        /* \"#utility.yul\":720:732   */\n      revert\n        /* \"#utility.yul\":664:734   */\n    tag_190:\n        /* \"#utility.yul\":567:740   */\n      swap2\n      swap1\n      pop\n      jump\t// out\n        /* \"#utility.yul\":745:999   */\n    tag_27:\n        /* \"#utility.yul\":813:819   */\n      0x00\n        /* \"#utility.yul\":821:827   */\n      dup1\n        /* \"#utility.yul\":874:876   */\n      0x40\n        /* \"#utility.yul\":862:871   */\n      dup4\n        /* \"#utility.yul\":853:860   */\n      dup6\n        /* \"#utility.yul\":849:872   */\n      sub\n        /* \"#utility.yul\":845:877   */\n      slt\n        /* \"#utility.yul\":842:894   */\n      iszero\n      tag_192\n      jumpi\n        /* \"#utility.yul\":890:891   */\n      0x00\n        /* \"#utility.yul\":887:888   */\n      dup1\n        /* \"#utility.yul\":880:892   */\n      revert\n        /* \"#utility.yul\":842:894   */\n    tag_192:\n        /* \"#utility.yul\":913:942   */\n      tag_193\n        /* \"#utility.yul\":932:941   */\n      dup4\n        /* \"#utility.yul\":913:942   */\n      tag_180\n      jump\t// in\n    tag_193:\n        /* \"#utility.yul\":903:942   */\n      swap5\n        /* \"#utility.yul\":989:991   */\n      0x20\n        /* \"#utility.yul\":974:992   */\n      swap4\n      swap1\n      swap4\n      add\n        /* \"#utility.yul\":961:993   */\n      calldataload\n      swap4\n      pop\n      pop\n      pop\n        /* \"#utility.yul\":745:999   */\n      jump\t// out\n        /* \"#utility.yul\":1378:1706   */\n    tag_37:\n        /* \"#utility.yul\":1455:1461   */\n      0x00\n        /* \"#utility.yul\":1463:1469   */\n      dup1\n        /* \"#utility.yul\":1471:1477   */\n      0x00\n        /* \"#utility.yul\":1524:1526   */\n      0x60\n        /* \"#utility.yul\":1512:1521   */\n      dup5\n        /* \"#utility.yul\":1503:1510   */\n      dup7\n        /* \"#utility.yul\":1499:1522   */\n      sub\n        /* \"#utility.yul\":1495:1527   */\n      slt\n        /* \"#utility.yul\":1492:1544   */\n      iszero\n      tag_197\n      jumpi\n        /* \"#utility.yul\":1540:1541   */\n      0x00\n        /* \"#utility.yul\":1537:1538   */\n      dup1\n        /* \"#utility.yul\":1530:1542   */\n      revert\n        /* \"#utility.yul\":1492:1544   */\n    tag_197:\n        /* \"#utility.yul\":1563:1592   */\n      tag_198\n        /* \"#utility.yul\":1582:1591   */\n      dup5\n        /* \"#utility.yul\":1563:1592   */\n      tag_180\n      jump\t// in\n    tag_198:\n        /* \"#utility.yul\":1553:1592   */\n      swap3\n      pop\n        /* \"#utility.yul\":1611:1649   */\n      tag_199\n        /* \"#utility.yul\":1645:1647   */\n      0x20\n        /* \"#utility.yul\":1634:1643   */\n      dup6\n        /* \"#utility.yul\":1630:1648   */\n      add\n        /* \"#utility.yul\":1611:1649   */\n      tag_180\n      jump\t// in\n    tag_199:\n        /* \"#utility.yul\":1601:1649   */\n      swap2\n      pop\n        /* \"#utility.yul\":1696:1698   */\n      0x40\n        /* \"#utility.yul\":1685:1694   */\n      dup5\n        /* \"#utility.yul\":1681:1699   */\n      add\n        /* \"#utility.yul\":1668:1700   */\n      calldataload\n        /* \"#utility.yul\":1658:1700   */\n      swap1\n      pop\n        /* \"#utility.yul\":1378:1706   */\n      swap3\n      pop\n      swap3\n      pop\n      swap3\n      jump\t// out\n        /* \"#utility.yul\":1900:2086   */\n    tag_50:\n        /* \"#utility.yul\":1959:1965   */\n      0x00\n        /* \"#utility.yul\":2012:2014   */\n      0x20\n        /* \"#utility.yul\":2000:2009   */\n      dup3\n        /* \"#utility.yul\":1991:1998   */\n      dup5\n        /* \"#utility.yul\":1987:2010   */\n      sub\n        /* \"#utility.yul\":1983:2015   */\n      slt\n        /* \"#utility.yul\":1980:2032   */\n      iszero\n      tag_202\n      jumpi\n        /* \"#utility.yul\":2028:2029   */\n      0x00\n        /* \"#utility.yul\":2025:2026   */\n      dup1\n        /* \"#utility.yul\":2018:2030   */\n      revert\n        /* \"#utility.yul\":1980:2032   */\n    tag_202:\n        /* \"#utility.yul\":2051:2080   */\n      tag_137\n        /* \"#utility.yul\":2070:2079   */\n      dup3\n        /* \"#utility.yul\":2051:2080   */\n      tag_180\n      jump\t// in\n        /* \"#utility.yul\":2299:2559   */\n    tag_80:\n        /* \"#utility.yul\":2367:2373   */\n      0x00\n        /* \"#utility.yul\":2375:2381   */\n      dup1\n        /* \"#utility.yul\":2428:2430   */\n      0x40\n        /* \"#utility.yul\":2416:2425   */\n      dup4\n        /* \"#utility.yul\":2407:2414   */\n      dup6\n        /* \"#utility.yul\":2403:2426   */\n      sub\n        /* \"#utility.yul\":2399:2431   */\n      slt\n        /* \"#utility.yul\":2396:2448   */\n      iszero\n      tag_206\n      jumpi\n        /* \"#utility.yul\":2444:2445   */\n      0x00\n        /* \"#utility.yul\":2441:2442   */\n      dup1\n        /* \"#utility.yul\":2434:2446   */\n      revert\n        /* \"#utility.yul\":2396:2448   */\n    tag_206:\n        /* \"#utility.yul\":2467:2496   */\n      tag_207\n        /* \"#utility.yul\":2486:2495   */\n      dup4\n        /* \"#utility.yul\":2467:2496   */\n      tag_180\n      jump\t// in\n    tag_207:\n        /* \"#utility.yul\":2457:2496   */\n      swap2\n      pop\n        /* \"#utility.yul\":2515:2553   */\n      tag_208\n        /* \"#utility.yul\":2549:2551   */\n      0x20\n        /* \"#utility.yul\":2538:2547   */\n      dup5\n        /* \"#utility.yul\":2534:2552   */\n      add\n        /* \"#utility.yul\":2515:2553   */\n      tag_180\n      jump\t// in\n    tag_208:\n        /* \"#utility.yul\":2505:2553   */\n      swap1\n      pop\n        /* \"#utility.yul\":2299:2559   */\n      swap3\n      pop\n      swap3\n      swap1\n      pop\n      jump\t// out\n        /* \"#utility.yul\":2564:2944   */\n    tag_85:\n        /* \"#utility.yul\":2643:2644   */\n      0x01\n        /* \"#utility.yul\":2639:2651   */\n      dup2\n      dup2\n      shr\n      swap1\n        /* \"#utility.yul\":2686:2698   */\n      dup3\n      and\n      dup1\n        /* \"#utility.yul\":2707:2768   */\n      tag_210\n      jumpi\n        /* \"#utility.yul\":2761:2765   */\n      0x7f\n        /* \"#utility.yul\":2753:2759   */\n      dup3\n        /* \"#utility.yul\":2749:2766   */\n      and\n        /* \"#utility.yul\":2739:2766   */\n      swap2\n      pop\n        /* \"#utility.yul\":2707:2768   */\n    tag_210:\n        /* \"#utility.yul\":2814:2816   */\n      0x20\n        /* \"#utility.yul\":2806:2812   */\n      dup3\n        /* \"#utility.yul\":2803:2817   */\n      lt\n        /* \"#utility.yul\":2783:2801   */\n      dup2\n        /* \"#utility.yul\":2780:2818   */\n      sub\n        /* \"#utility.yul\":2777:2938   */\n      tag_211\n      jumpi\n        /* \"#utility.yul\":2860:2870   */\n      0x4e487b71\n        /* \"#utility.yul\":2855:2858   */\n      0xe0\n        /* \"#utility.yul\":2851:2871   */\n      shl\n        /* \"#utility.yul\":2848:2849   */\n      0x00\n        /* \"#utility.yul\":2841:2872   */\n      mstore\n        /* \"#utility.yul\":2895:2899   */\n      0x22\n        /* \"#utility.yul\":2892:2893   */\n      0x04\n        /* \"#utility.yul\":2885:2900   */\n      mstore\n        /* \"#utility.yul\":2923:2927   */\n      0x24\n        /* \"#utility.yul\":2920:2921   */\n      0x00\n        /* \"#utility.yul\":2913:2928   */\n      revert\n        /* \"#utility.yul\":2777:2938   */\n    tag_211:\n      pop\n        /* \"#utility.yul\":2564:2944   */\n      swap2\n      swap1\n      pop\n      jump\t// out\n        /* \"#utility.yul\":2949:3076   */\n    tag_181:\n        /* \"#utility.yul\":3010:3020   */\n      0x4e487b71\n        /* \"#utility.yul\":3005:3008   */\n      0xe0\n        /* \"#utility.yul\":3001:3021   */\n      shl\n        /* \"#utility.yul\":2998:2999   */\n      0x00\n        /* \"#utility.yul\":2991:3022   */\n      mstore\n        /* \"#utility.yul\":3041:3045   */\n      0x11\n        /* \"#utility.yul\":3038:3039   */\n      0x04\n        /* \"#utility.yul\":3031:3046   */\n      mstore\n        /* \"#utility.yul\":3065:3069   */\n      0x24\n        /* \"#utility.yul\":3062:3063   */\n      0x00\n        /* \"#utility.yul\":3055:3070   */\n      revert\n        /* \"#utility.yul\":3081:3206   */\n    tag_108:\n        /* \"#utility.yul\":3146:3155   */\n      dup1\n      dup3\n      add\n        /* \"#utility.yul\":3167:3177   */\n      dup1\n      dup3\n      gt\n        /* \"#utility.yul\":3164:3200   */\n      iszero\n      tag_90\n      jumpi\n        /* \"#utility.yul\":3180:3198   */\n      tag_90\n      tag_181\n      jump\t// in\n        /* \"#utility.yul\":3211:3633   */\n    tag_182:\n        /* \"#utility.yul\":3300:3301   */\n      0x01\n        /* \"#utility.yul\":3343:3348   */\n      dup2\n        /* \"#utility.yul\":3300:3301   */\n      dup2\n        /* \"#utility.yul\":3357:3627   */\n    tag_217:\n        /* \"#utility.yul\":3378:3385   */\n      dup1\n        /* \"#utility.yul\":3368:3376   */\n      dup6\n        /* \"#utility.yul\":3365:3386   */\n      gt\n        /* \"#utility.yul\":3357:3627   */\n      iszero\n      tag_219\n      jumpi\n        /* \"#utility.yul\":3437:3441   */\n      dup2\n        /* \"#utility.yul\":3433:3434   */\n      0x00\n        /* \"#utility.yul\":3429:3435   */\n      not\n        /* \"#utility.yul\":3425:3442   */\n      div\n        /* \"#utility.yul\":3419:3423   */\n      dup3\n        /* \"#utility.yul\":3416:3443   */\n      gt\n        /* \"#utility.yul\":3413:3466   */\n      iszero\n      tag_221\n      jumpi\n        /* \"#utility.yul\":3446:3464   */\n      tag_221\n      tag_181\n      jump\t// in\n    tag_221:\n        /* \"#utility.yul\":3496:3503   */\n      dup1\n        /* \"#utility.yul\":3486:3494   */\n      dup6\n        /* \"#utility.yul\":3482:3504   */\n      and\n        /* \"#utility.yul\":3479:3534   */\n      iszero\n      tag_222\n      jumpi\n        /* \"#utility.yul\":3516:3532   */\n      swap2\n      dup2\n      mul\n      swap2\n        /* \"#utility.yul\":3479:3534   */\n    tag_222:\n        /* \"#utility.yul\":3595:3617   */\n      swap4\n      dup5\n      shr\n      swap4\n        /* \"#utility.yul\":3555:3570   */\n      swap1\n      dup1\n      mul\n      swap1\n        /* \"#utility.yul\":3357:3627   */\n      jump(tag_217)\n    tag_219:\n        /* \"#utility.yul\":3361:3364   */\n      pop\n        /* \"#utility.yul\":3211:3633   */\n      swap3\n      pop\n      swap3\n      swap1\n      pop\n      jump\t// out\n        /* \"#utility.yul\":3638:4444   */\n    tag_183:\n        /* \"#utility.yul\":3687:3692   */\n      0x00\n        /* \"#utility.yul\":3717:3725   */\n      dup3\n        /* \"#utility.yul\":3707:3787   */\n      tag_224\n      jumpi\n      pop\n        /* \"#utility.yul\":3758:3759   */\n      0x01\n        /* \"#utility.yul\":3772:3777   */\n      jump(tag_90)\n        /* \"#utility.yul\":3707:3787   */\n    tag_224:\n        /* \"#utility.yul\":3806:3810   */\n      dup2\n        /* \"#utility.yul\":3796:3872   */\n      tag_225\n      jumpi\n      pop\n        /* \"#utility.yul\":3843:3844   */\n      0x00\n        /* \"#utility.yul\":3857:3862   */\n      jump(tag_90)\n        /* \"#utility.yul\":3796:3872   */\n    tag_225:\n        /* \"#utility.yul\":3888:3892   */\n      dup2\n        /* \"#utility.yul\":3906:3907   */\n      0x01\n        /* \"#utility.yul\":3901:3960   */\n      dup2\n      eq\n      tag_227\n      jumpi\n        /* \"#utility.yul\":3974:3975   */\n      0x02\n        /* \"#utility.yul\":3969:4099   */\n      dup2\n      eq\n      tag_228\n      jumpi\n        /* \"#utility.yul\":3881:4099   */\n      jump(tag_226)\n        /* \"#utility.yul\":3901:3960   */\n    tag_227:\n        /* \"#utility.yul\":3931:3932   */\n      0x01\n        /* \"#utility.yul\":3922:3932   */\n      swap2\n      pop\n        /* \"#utility.yul\":3945:3950   */\n      pop\n      jump(tag_90)\n        /* \"#utility.yul\":3969:4099   */\n    tag_228:\n        /* \"#utility.yul\":4006:4009   */\n      0xff\n        /* \"#utility.yul\":3996:4004   */\n      dup5\n        /* \"#utility.yul\":3993:4010   */\n      gt\n        /* \"#utility.yul\":3990:4033   */\n      iszero\n      tag_230\n      jumpi\n        /* \"#utility.yul\":4013:4031   */\n      tag_230\n      tag_181\n      jump\t// in\n    tag_230:\n      pop\n      pop\n        /* \"#utility.yul\":4069:4070   */\n      0x01\n        /* \"#utility.yul\":4055:4071   */\n      dup3\n      shl\n        /* \"#utility.yul\":4084:4089   */\n      jump(tag_90)\n        /* \"#utility.yul\":3881:4099   */\n    tag_226:\n      pop\n        /* \"#utility.yul\":4183:4185   */\n      0x20\n        /* \"#utility.yul\":4173:4181   */\n      dup4\n        /* \"#utility.yul\":4170:4186   */\n      lt\n        /* \"#utility.yul\":4164:4167   */\n      0x0133\n        /* \"#utility.yul\":4158:4162   */\n      dup4\n        /* \"#utility.yul\":4155:4168   */\n      lt\n        /* \"#utility.yul\":4151:4187   */\n      and\n        /* \"#utility.yul\":4145:4147   */\n      0x4e\n        /* \"#utility.yul\":4135:4143   */\n      dup5\n        /* \"#utility.yul\":4132:4148   */\n      lt\n        /* \"#utility.yul\":4127:4129   */\n      0x0b\n        /* \"#utility.yul\":4121:4125   */\n      dup5\n        /* \"#utility.yul\":4118:4130   */\n      lt\n        /* \"#utility.yul\":4114:4149   */\n      and\n        /* \"#utility.yul\":4111:4188   */\n      or\n        /* \"#utility.yul\":4108:4267   */\n      iszero\n      tag_231\n      jumpi\n      pop\n        /* \"#utility.yul\":4220:4239   */\n      dup2\n      dup2\n      exp\n        /* \"#utility.yul\":4252:4257   */\n      jump(tag_90)\n        /* \"#utility.yul\":4108:4267   */\n    tag_231:\n        /* \"#utility.yul\":4299:4333   */\n      tag_232\n        /* \"#utility.yul\":4324:4332   */\n      dup4\n        /* \"#utility.yul\":4318:4322   */\n      dup4\n        /* \"#utility.yul\":4299:4333   */\n      tag_182\n      jump\t// in\n    tag_232:\n        /* \"#utility.yul\":4369:4375   */\n      dup1\n        /* \"#utility.yul\":4365:4366   */\n      0x00\n        /* \"#utility.yul\":4361:4367   */\n      not\n        /* \"#utility.yul\":4357:4376   */\n      div\n        /* \"#utility.yul\":4348:4355   */\n      dup3\n        /* \"#utility.yul\":4345:4377   */\n      gt\n        /* \"#utility.yul\":4342:4400   */\n      iszero\n      tag_234\n      jumpi\n        /* \"#utility.yul\":4380:4398   */\n      tag_234\n      tag_181\n      jump\t// in\n    tag_234:\n        /* \"#utility.yul\":4418:4438   */\n      mul\n      swap4\n        /* \"#utility.yul\":3638:4444   */\n      swap3\n      pop\n      pop\n      pop\n      jump\t// out\n        /* \"#utility.yul\":4449:4589   */\n    tag_113:\n        /* \"#utility.yul\":4507:4512   */\n      0x00\n        /* \"#utility.yul\":4536:4583   */\n      tag_137\n        /* \"#utility.yul\":4577:4581   */\n      0xff\n        /* \"#utility.yul\":4567:4575   */\n      dup5\n        /* \"#utility.yul\":4563:4582   */\n      and\n        /* \"#utility.yul\":4557:4561   */\n      dup4\n        /* \"#utility.yul\":4536:4583   */\n      tag_183\n      jump\t// in\n        /* \"#utility.yul\":4594:4762   */\n    tag_115:\n        /* \"#utility.yul\":4667:4676   */\n      dup1\n      dup3\n      mul\n        /* \"#utility.yul\":4698:4707   */\n      dup2\n      iszero\n        /* \"#utility.yul\":4715:4730   */\n      dup3\n      dup3\n      div\n        /* \"#utility.yul\":4709:4731   */\n      dup5\n      eq\n        /* \"#utility.yul\":4695:4732   */\n      or\n        /* \"#utility.yul\":4685:4756   */\n      tag_90\n      jumpi\n        /* \"#utility.yul\":4736:4754   */\n      tag_90\n      tag_181\n      jump\t// in\n\n    auxdata: 0xa2646970667358221220490d672db50dfbe67d0e840399bd3547c907f8143e9ca08803b736a58cf8c71364736f6c63430008140033\n}\n",
				"bytecode": {
					"linkReferences": {},
					"object": "608060405234801562000010575f80fd5b506040518060400160405280600881526020016743555252454e435960c01b815250604051806040016040528060058152602001644d4154494360d81b81525081600390816200006191906200012b565b5060046200007082826200012b565b5050600580546001600160a01b0319163317905550620001f3565b634e487b7160e01b5f52604160045260245ffd5b600181811c90821680620000b457607f821691505b602082108103620000d357634e487b7160e01b5f52602260045260245ffd5b50919050565b601f82111562000126575f81815260208120601f850160051c81016020861015620001015750805b601f850160051c820191505b8181101562000122578281556001016200010d565b5050505b505050565b81516001600160401b038111156200014757620001476200008b565b6200015f816200015884546200009f565b84620000d9565b602080601f83116001811462000195575f84156200017d5750858301515b5f19600386901b1c1916600185901b17855562000122565b5f85815260208120601f198616915b82811015620001c557888601518255948401946001909101908401620001a4565b5085821015620001e357878501515f19600388901b60f8161c191681555b5050505050600190811b01905550565b610afa80620002015f395ff3fe608060405234801561000f575f80fd5b50600436106100f0575f3560e01c806370a0823111610093578063a9059cbb11610063578063a9059cbb146101ff578063beabacc814610212578063cfba4fe014610225578063dd62ed3e14610238575f80fd5b806370a082311461019157806395d89b41146101b9578063a457c2d7146101c1578063a5de3619146101d4575f80fd5b806323b872dd116100ce57806323b872dd14610147578063313ce5671461015a57806339509351146101695780636a6278421461017c575f80fd5b806306fdde03146100f4578063095ea7b31461011257806318160ddd14610135575b5f80fd5b6100fc61024b565b604051610109919061084f565b60405180910390f35b6101256101203660046108b5565b6102db565b6040519015158152602001610109565b6002545b604051908152602001610109565b6101256101553660046108dd565b6102f4565b60405160128152602001610109565b6101256101773660046108b5565b610317565b61018f61018a366004610916565b610338565b005b61013961019f366004610916565b6001600160a01b03165f9081526020819052604090205490565b6100fc61035e565b6101256101cf3660046108b5565b61036d565b6005546101e7906001600160a01b031681565b6040516001600160a01b039091168152602001610109565b61012561020d3660046108b5565b6103ec565b61018f6102203660046108dd565b6103f9565b610139610233366004610916565b610409565b61013961024636600461092f565b61042b565b60606003805461025a90610960565b80601f016020809104026020016040519081016040528092919081815260200182805461028690610960565b80156102d15780601f106102a8576101008083540402835291602001916102d1565b820191905f5260205f20905b8154815290600101906020018083116102b457829003601f168201915b5050505050905090565b5f336102e8818585610455565b60019150505b92915050565b5f33610301858285610578565b61030c8585856105f0565b506001949350505050565b5f336102e8818585610329838361042b565b61033391906109ac565b610455565b61035b816103486012600a610a9f565b6103569063042c1d80610aad565b610792565b50565b60606004805461025a90610960565b5f338161037a828661042b565b9050838110156103df5760405162461bcd60e51b815260206004820152602560248201527f45524332303a2064656372656173656420616c6c6f77616e63652062656c6f77604482015264207a65726f60d81b60648201526084015b60405180910390fd5b61030c8286868403610455565b5f336102e88185856105f0565b6104048383836105f0565b505050565b6001600160a01b0381165f9081526020819052604081205481905b9392505050565b6001600160a01b039182165f90815260016020908152604080832093909416825291909152205490565b6001600160a01b0383166104b75760405162461bcd60e51b8152602060048201526024808201527f45524332303a20617070726f76652066726f6d20746865207a65726f206164646044820152637265737360e01b60648201526084016103d6565b6001600160a01b0382166105185760405162461bcd60e51b815260206004820152602260248201527f45524332303a20617070726f766520746f20746865207a65726f206164647265604482015261737360f01b60648201526084016103d6565b6001600160a01b038381165f8181526001602090815260408083209487168084529482529182902085905590518481527f8c5be1e5ebec7d5bd14f71427d1e84f3dd0314c0f7b2291e5b200ac8c7c3b925910160405180910390a3505050565b5f610583848461042b565b90505f1981146105ea57818110156105dd5760405162461bcd60e51b815260206004820152601d60248201527f45524332303a20696e73756666696369656e7420616c6c6f77616e636500000060448201526064016103d6565b6105ea8484848403610455565b50505050565b6001600160a01b0383166106545760405162461bcd60e51b815260206004820152602560248201527f45524332303a207472616e736665722066726f6d20746865207a65726f206164604482015264647265737360d81b60648201526084016103d6565b6001600160a01b0382166106b65760405162461bcd60e51b815260206004820152602360248201527f45524332303a207472616e7366657220746f20746865207a65726f206164647260448201526265737360e81b60648201526084016103d6565b6001600160a01b0383165f908152602081905260409020548181101561072d5760405162461bcd60e51b815260206004820152602660248201527f45524332303a207472616e7366657220616d6f756e7420657863656564732062604482015265616c616e636560d01b60648201526084016103d6565b6001600160a01b038481165f81815260208181526040808320878703905593871680835291849020805487019055925185815290927fddf252ad1be2c89b69c2b068fc378daa952ba7f163c4a11628f55a4df523b3ef910160405180910390a36105ea565b6001600160a01b0382166107e85760405162461bcd60e51b815260206004820152601f60248201527f45524332303a206d696e7420746f20746865207a65726f20616464726573730060448201526064016103d6565b8060025f8282546107f991906109ac565b90915550506001600160a01b0382165f81815260208181526040808320805486019055518481527fddf252ad1be2c89b69c2b068fc378daa952ba7f163c4a11628f55a4df523b3ef910160405180910390a35050565b5f6020808352835180828501525f5b8181101561087a5785810183015185820160400152820161085e565b505f604082860101526040601f19601f8301168501019250505092915050565b80356001600160a01b03811681146108b0575f80fd5b919050565b5f80604083850312156108c6575f80fd5b6108cf8361089a565b946020939093013593505050565b5f805f606084860312156108ef575f80fd5b6108f88461089a565b92506109066020850161089a565b9150604084013590509250925092565b5f60208284031215610926575f80fd5b6104248261089a565b5f8060408385031215610940575f80fd5b6109498361089a565b91506109576020840161089a565b90509250929050565b600181811c9082168061097457607f821691505b60208210810361099257634e487b7160e01b5f52602260045260245ffd5b50919050565b634e487b7160e01b5f52601160045260245ffd5b808201808211156102ee576102ee610998565b600181815b808511156109f957815f19048211156109df576109df610998565b808516156109ec57918102915b93841c93908002906109c4565b509250929050565b5f82610a0f575060016102ee565b81610a1b57505f6102ee565b8160018114610a315760028114610a3b57610a57565b60019150506102ee565b60ff841115610a4c57610a4c610998565b50506001821b6102ee565b5060208310610133831016604e8410600b8410161715610a7a575081810a6102ee565b610a8483836109bf565b805f1904821115610a9757610a97610998565b029392505050565b5f61042460ff841683610a01565b80820281158282048414176102ee576102ee61099856fea2646970667358221220490d672db50dfbe67d0e840399bd3547c907f8143e9ca08803b736a58cf8c71364736f6c63430008140033",
					"opcodes": "PUSH1 0x80 PUSH1 0x40 MSTORE CALLVALUE DUP1 ISZERO PUSH3 0x10 JUMPI PUSH0 DUP1 REVERT JUMPDEST POP PUSH1 0x40 MLOAD DUP1 PUSH1 0x40 ADD PUSH1 0x40 MSTORE DUP1 PUSH1 0x8 DUP2 MSTORE PUSH1 0x20 ADD PUSH8 0x43555252454E4359 PUSH1 0xC0 SHL DUP2 MSTORE POP PUSH1 0x40 MLOAD DUP1 PUSH1 0x40 ADD PUSH1 0x40 MSTORE DUP1 PUSH1 0x5 DUP2 MSTORE PUSH1 0x20 ADD PUSH5 0x4D41544943 PUSH1 0xD8 SHL DUP2 MSTORE POP DUP2 PUSH1 0x3 SWAP1 DUP2 PUSH3 0x61 SWAP2 SWAP1 PUSH3 0x12B JUMP JUMPDEST POP PUSH1 0x4 PUSH3 0x70 DUP3 DUP3 PUSH3 0x12B JUMP JUMPDEST POP POP PUSH1 0x5 DUP1 SLOAD PUSH1 0x1 PUSH1 0x1 PUSH1 0xA0 SHL SUB NOT AND CALLER OR SWAP1 SSTORE POP PUSH3 0x1F3 JUMP JUMPDEST PUSH4 0x4E487B71 PUSH1 0xE0 SHL PUSH0 MSTORE PUSH1 0x41 PUSH1 0x4 MSTORE PUSH1 0x24 PUSH0 REVERT JUMPDEST PUSH1 0x1 DUP2 DUP2 SHR SWAP1 DUP3 AND DUP1 PUSH3 0xB4 JUMPI PUSH1 0x7F DUP3 AND SWAP2 POP JUMPDEST PUSH1 0x20 DUP3 LT DUP2 SUB PUSH3 0xD3 JUMPI PUSH4 0x4E487B71 PUSH1 0xE0 SHL PUSH0 MSTORE PUSH1 0x22 PUSH1 0x4 MSTORE PUSH1 0x24 PUSH0 REVERT JUMPDEST POP SWAP2 SWAP1 POP JUMP JUMPDEST PUSH1 0x1F DUP3 GT ISZERO PUSH3 0x126 JUMPI PUSH0 DUP2 DUP2 MSTORE PUSH1 0x20 DUP2 KECCAK256 PUSH1 0x1F DUP6 ADD PUSH1 0x5 SHR DUP2 ADD PUSH1 0x20 DUP7 LT ISZERO PUSH3 0x101 JUMPI POP DUP1 JUMPDEST PUSH1 0x1F DUP6 ADD PUSH1 0x5 SHR DUP3 ADD SWAP2 POP JUMPDEST DUP2 DUP2 LT ISZERO PUSH3 0x122 JUMPI DUP3 DUP2 SSTORE PUSH1 0x1 ADD PUSH3 0x10D JUMP JUMPDEST POP POP POP JUMPDEST POP POP POP JUMP JUMPDEST DUP2 MLOAD PUSH1 0x1 PUSH1 0x1 PUSH1 0x40 SHL SUB DUP2 GT ISZERO PUSH3 0x147 JUMPI PUSH3 0x147 PUSH3 0x8B JUMP JUMPDEST PUSH3 0x15F DUP2 PUSH3 0x158 DUP5 SLOAD PUSH3 0x9F JUMP JUMPDEST DUP5 PUSH3 0xD9 JUMP JUMPDEST PUSH1 0x20 DUP1 PUSH1 0x1F DUP4 GT PUSH1 0x1 DUP2 EQ PUSH3 0x195 JUMPI PUSH0 DUP5 ISZERO PUSH3 0x17D JUMPI POP DUP6 DUP4 ADD MLOAD JUMPDEST PUSH0 NOT PUSH1 0x3 DUP7 SWAP1 SHL SHR NOT AND PUSH1 0x1 DUP6 SWAP1 SHL OR DUP6 SSTORE PUSH3 0x122 JUMP JUMPDEST PUSH0 DUP6 DUP2 MSTORE PUSH1 0x20 DUP2 KECCAK256 PUSH1 0x1F NOT DUP7 AND SWAP2 JUMPDEST DUP3 DUP2 LT ISZERO PUSH3 0x1C5 JUMPI DUP9 DUP7 ADD MLOAD DUP3 SSTORE SWAP5 DUP5 ADD SWAP5 PUSH1 0x1 SWAP1 SWAP2 ADD SWAP1 DUP5 ADD PUSH3 0x1A4 JUMP JUMPDEST POP DUP6 DUP3 LT ISZERO PUSH3 0x1E3 JUMPI DUP8 DUP6 ADD MLOAD PUSH0 NOT PUSH1 0x3 DUP9 SWAP1 SHL PUSH1 0xF8 AND SHR NOT AND DUP2 SSTORE JUMPDEST POP POP POP POP POP PUSH1 0x1 SWAP1 DUP2 SHL ADD SWAP1 SSTORE POP JUMP JUMPDEST PUSH2 0xAFA DUP1 PUSH3 0x201 PUSH0 CODECOPY PUSH0 RETURN INVALID PUSH1 0x80 PUSH1 0x40 MSTORE CALLVALUE DUP1 ISZERO PUSH2 0xF JUMPI PUSH0 DUP1 REVERT JUMPDEST POP PUSH1 0x4 CALLDATASIZE LT PUSH2 0xF0 JUMPI PUSH0 CALLDATALOAD PUSH1 0xE0 SHR DUP1 PUSH4 0x70A08231 GT PUSH2 0x93 JUMPI DUP1 PUSH4 0xA9059CBB GT PUSH2 0x63 JUMPI DUP1 PUSH4 0xA9059CBB EQ PUSH2 0x1FF JUMPI DUP1 PUSH4 0xBEABACC8 EQ PUSH2 0x212 JUMPI DUP1 PUSH4 0xCFBA4FE0 EQ PUSH2 0x225 JUMPI DUP1 PUSH4 0xDD62ED3E EQ PUSH2 0x238 JUMPI PUSH0 DUP1 REVERT JUMPDEST DUP1 PUSH4 0x70A08231 EQ PUSH2 0x191 JUMPI DUP1 PUSH4 0x95D89B41 EQ PUSH2 0x1B9 JUMPI DUP1 PUSH4 0xA457C2D7 EQ PUSH2 0x1C1 JUMPI DUP1 PUSH4 0xA5DE3619 EQ PUSH2 0x1D4 JUMPI PUSH0 DUP1 REVERT JUMPDEST DUP1 PUSH4 0x23B872DD GT PUSH2 0xCE JUMPI DUP1 PUSH4 0x23B872DD EQ PUSH2 0x147 JUMPI DUP1 PUSH4 0x313CE567 EQ PUSH2 0x15A JUMPI DUP1 PUSH4 0x39509351 EQ PUSH2 0x169 JUMPI DUP1 PUSH4 0x6A627842 EQ PUSH2 0x17C JUMPI PUSH0 DUP1 REVERT JUMPDEST DUP1 PUSH4 0x6FDDE03 EQ PUSH2 0xF4 JUMPI DUP1 PUSH4 0x95EA7B3 EQ PUSH2 0x112 JUMPI DUP1 PUSH4 0x18160DDD EQ PUSH2 0x135 JUMPI JUMPDEST PUSH0 DUP1 REVERT JUMPDEST PUSH2 0xFC PUSH2 0x24B JUMP JUMPDEST PUSH1 0x40 MLOAD PUSH2 0x109 SWAP2 SWAP1 PUSH2 0x84F JUMP JUMPDEST PUSH1 0x40 MLOAD DUP1 SWAP2 SUB SWAP1 RETURN JUMPDEST PUSH2 0x125 PUSH2 0x120 CALLDATASIZE PUSH1 0x4 PUSH2 0x8B5 JUMP JUMPDEST PUSH2 0x2DB JUMP JUMPDEST PUSH1 0x40 MLOAD SWAP1 ISZERO ISZERO DUP2 MSTORE PUSH1 0x20 ADD PUSH2 0x109 JUMP JUMPDEST PUSH1 0x2 SLOAD JUMPDEST PUSH1 0x40 MLOAD SWAP1 DUP2 MSTORE PUSH1 0x20 ADD PUSH2 0x109 JUMP JUMPDEST PUSH2 0x125 PUSH2 0x155 CALLDATASIZE PUSH1 0x4 PUSH2 0x8DD JUMP JUMPDEST PUSH2 0x2F4 JUMP JUMPDEST PUSH1 0x40 MLOAD PUSH1 0x12 DUP2 MSTORE PUSH1 0x20 ADD PUSH2 0x109 JUMP JUMPDEST PUSH2 0x125 PUSH2 0x177 CALLDATASIZE PUSH1 0x4 PUSH2 0x8B5 JUMP JUMPDEST PUSH2 0x317 JUMP JUMPDEST PUSH2 0x18F PUSH2 0x18A CALLDATASIZE PUSH1 0x4 PUSH2 0x916 JUMP JUMPDEST PUSH2 0x338 JUMP JUMPDEST STOP JUMPDEST PUSH2 0x139 PUSH2 0x19F CALLDATASIZE PUSH1 0x4 PUSH2 0x916 JUMP JUMPDEST PUSH1 0x1 PUSH1 0x1 PUSH1 0xA0 SHL SUB AND PUSH0 SWAP1 DUP2 MSTORE PUSH1 0x20 DUP2 SWAP1 MSTORE PUSH1 0x40 SWAP1 KECCAK256 SLOAD SWAP1 JUMP JUMPDEST PUSH2 0xFC PUSH2 0x35E JUMP JUMPDEST PUSH2 0x125 PUSH2 0x1CF CALLDATASIZE PUSH1 0x4 PUSH2 0x8B5 JUMP JUMPDEST PUSH2 0x36D JUMP JUMPDEST PUSH1 0x5 SLOAD PUSH2 0x1E7 SWAP1 PUSH1 0x1 PUSH1 0x1 PUSH1 0xA0 SHL SUB AND DUP2 JUMP JUMPDEST PUSH1 0x40 MLOAD PUSH1 0x1 PUSH1 0x1 PUSH1 0xA0 SHL SUB SWAP1 SWAP2 AND DUP2 MSTORE PUSH1 0x20 ADD PUSH2 0x109 JUMP JUMPDEST PUSH2 0x125 PUSH2 0x20D CALLDATASIZE PUSH1 0x4 PUSH2 0x8B5 JUMP JUMPDEST PUSH2 0x3EC JUMP JUMPDEST PUSH2 0x18F PUSH2 0x220 CALLDATASIZE PUSH1 0x4 PUSH2 0x8DD JUMP JUMPDEST PUSH2 0x3F9 JUMP JUMPDEST PUSH2 0x139 PUSH2 0x233 CALLDATASIZE PUSH1 0x4 PUSH2 0x916 JUMP JUMPDEST PUSH2 0x409 JUMP JUMPDEST PUSH2 0x139 PUSH2 0x246 CALLDATASIZE PUSH1 0x4 PUSH2 0x92F JUMP JUMPDEST PUSH2 0x42B JUMP JUMPDEST PUSH1 0x60 PUSH1 0x3 DUP1 SLOAD PUSH2 0x25A SWAP1 PUSH2 0x960 JUMP JUMPDEST DUP1 PUSH1 0x1F ADD PUSH1 0x20 DUP1 SWAP2 DIV MUL PUSH1 0x20 ADD PUSH1 0x40 MLOAD SWAP1 DUP2 ADD PUSH1 0x40 MSTORE DUP1 SWAP3 SWAP2 SWAP1 DUP2 DUP2 MSTORE PUSH1 0x20 ADD DUP3 DUP1 SLOAD PUSH2 0x286 SWAP1 PUSH2 0x960 JUMP JUMPDEST DUP1 ISZERO PUSH2 0x2D1 JUMPI DUP1 PUSH1 0x1F LT PUSH2 0x2A8 JUMPI PUSH2 0x100 DUP1 DUP4 SLOAD DIV MUL DUP4 MSTORE SWAP2 PUSH1 0x20 ADD SWAP2 PUSH2 0x2D1 JUMP JUMPDEST DUP3 ADD SWAP2 SWAP1 PUSH0 MSTORE PUSH1 0x20 PUSH0 KECCAK256 SWAP1 JUMPDEST DUP2 SLOAD DUP2 MSTORE SWAP1 PUSH1 0x1 ADD SWAP1 PUSH1 0x20 ADD DUP1 DUP4 GT PUSH2 0x2B4 JUMPI DUP3 SWAP1 SUB PUSH1 0x1F AND DUP3 ADD SWAP2 JUMPDEST POP POP POP POP POP SWAP1 POP SWAP1 JUMP JUMPDEST PUSH0 CALLER PUSH2 0x2E8 DUP2 DUP6 DUP6 PUSH2 0x455 JUMP JUMPDEST PUSH1 0x1 SWAP2 POP POP JUMPDEST SWAP3 SWAP2 POP POP JUMP JUMPDEST PUSH0 CALLER PUSH2 0x301 DUP6 DUP3 DUP6 PUSH2 0x578 JUMP JUMPDEST PUSH2 0x30C DUP6 DUP6 DUP6 PUSH2 0x5F0 JUMP JUMPDEST POP PUSH1 0x1 SWAP5 SWAP4 POP POP POP POP JUMP JUMPDEST PUSH0 CALLER PUSH2 0x2E8 DUP2 DUP6 DUP6 PUSH2 0x329 DUP4 DUP4 PUSH2 0x42B JUMP JUMPDEST PUSH2 0x333 SWAP2 SWAP1 PUSH2 0x9AC JUMP JUMPDEST PUSH2 0x455 JUMP JUMPDEST PUSH2 0x35B DUP2 PUSH2 0x348 PUSH1 0x12 PUSH1 0xA PUSH2 0xA9F JUMP JUMPDEST PUSH2 0x356 SWAP1 PUSH4 0x42C1D80 PUSH2 0xAAD JUMP JUMPDEST PUSH2 0x792 JUMP JUMPDEST POP JUMP JUMPDEST PUSH1 0x60 PUSH1 0x4 DUP1 SLOAD PUSH2 0x25A SWAP1 PUSH2 0x960 JUMP JUMPDEST PUSH0 CALLER DUP2 PUSH2 0x37A DUP3 DUP7 PUSH2 0x42B JUMP JUMPDEST SWAP1 POP DUP4 DUP2 LT ISZERO PUSH2 0x3DF JUMPI PUSH1 0x40 MLOAD PUSH3 0x461BCD PUSH1 0xE5 SHL DUP2 MSTORE PUSH1 0x20 PUSH1 0x4 DUP3 ADD MSTORE PUSH1 0x25 PUSH1 0x24 DUP3 ADD MSTORE PUSH32 0x45524332303A2064656372656173656420616C6C6F77616E63652062656C6F77 PUSH1 0x44 DUP3 ADD MSTORE PUSH5 0x207A65726F PUSH1 0xD8 SHL PUSH1 0x64 DUP3 ADD MSTORE PUSH1 0x84 ADD JUMPDEST PUSH1 0x40 MLOAD DUP1 SWAP2 SUB SWAP1 REVERT JUMPDEST PUSH2 0x30C DUP3 DUP7 DUP7 DUP5 SUB PUSH2 0x455 JUMP JUMPDEST PUSH0 CALLER PUSH2 0x2E8 DUP2 DUP6 DUP6 PUSH2 0x5F0 JUMP JUMPDEST PUSH2 0x404 DUP4 DUP4 DUP4 PUSH2 0x5F0 JUMP JUMPDEST POP POP POP JUMP JUMPDEST PUSH1 0x1 PUSH1 0x1 PUSH1 0xA0 SHL SUB DUP2 AND PUSH0 SWAP1 DUP2 MSTORE PUSH1 0x20 DUP2 SWAP1 MSTORE PUSH1 0x40 DUP2 KECCAK256 SLOAD DUP2 SWAP1 JUMPDEST SWAP4 SWAP3 POP POP POP JUMP JUMPDEST PUSH1 0x1 PUSH1 0x1 PUSH1 0xA0 SHL SUB SWAP2 DUP3 AND PUSH0 SWAP1 DUP2 MSTORE PUSH1 0x1 PUSH1 0x20 SWAP1 DUP2 MSTORE PUSH1 0x40 DUP1 DUP4 KECCAK256 SWAP4 SWAP1 SWAP5 AND DUP3 MSTORE SWAP2 SWAP1 SWAP2 MSTORE KECCAK256 SLOAD SWAP1 JUMP JUMPDEST PUSH1 0x1 PUSH1 0x1 PUSH1 0xA0 SHL SUB DUP4 AND PUSH2 0x4B7 JUMPI PUSH1 0x40 MLOAD PUSH3 0x461BCD PUSH1 0xE5 SHL DUP2 MSTORE PUSH1 0x20 PUSH1 0x4 DUP3 ADD MSTORE PUSH1 0x24 DUP1 DUP3 ADD MSTORE PUSH32 0x45524332303A20617070726F76652066726F6D20746865207A65726F20616464 PUSH1 0x44 DUP3 ADD MSTORE PUSH4 0x72657373 PUSH1 0xE0 SHL PUSH1 0x64 DUP3 ADD MSTORE PUSH1 0x84 ADD PUSH2 0x3D6 JUMP JUMPDEST PUSH1 0x1 PUSH1 0x1 PUSH1 0xA0 SHL SUB DUP3 AND PUSH2 0x518 JUMPI PUSH1 0x40 MLOAD PUSH3 0x461BCD PUSH1 0xE5 SHL DUP2 MSTORE PUSH1 0x20 PUSH1 0x4 DUP3 ADD MSTORE PUSH1 0x22 PUSH1 0x24 DUP3 ADD MSTORE PUSH32 0x45524332303A20617070726F766520746F20746865207A65726F206164647265 PUSH1 0x44 DUP3 ADD MSTORE PUSH2 0x7373 PUSH1 0xF0 SHL PUSH1 0x64 DUP3 ADD MSTORE PUSH1 0x84 ADD PUSH2 0x3D6 JUMP JUMPDEST PUSH1 0x1 PUSH1 0x1 PUSH1 0xA0 SHL SUB DUP4 DUP2 AND PUSH0 DUP2 DUP2 MSTORE PUSH1 0x1 PUSH1 0x20 SWAP1 DUP2 MSTORE PUSH1 0x40 DUP1 DUP4 KECCAK256 SWAP5 DUP8 AND DUP1 DUP5 MSTORE SWAP5 DUP3 MSTORE SWAP2 DUP3 SWAP1 KECCAK256 DUP6 SWAP1 SSTORE SWAP1 MLOAD DUP5 DUP2 MSTORE PUSH32 0x8C5BE1E5EBEC7D5BD14F71427D1E84F3DD0314C0F7B2291E5B200AC8C7C3B925 SWAP2 ADD PUSH1 0x40 MLOAD DUP1 SWAP2 SUB SWAP1 LOG3 POP POP POP JUMP JUMPDEST PUSH0 PUSH2 0x583 DUP5 DUP5 PUSH2 0x42B JUMP JUMPDEST SWAP1 POP PUSH0 NOT DUP2 EQ PUSH2 0x5EA JUMPI DUP2 DUP2 LT ISZERO PUSH2 0x5DD JUMPI PUSH1 0x40 MLOAD PUSH3 0x461BCD PUSH1 0xE5 SHL DUP2 MSTORE PUSH1 0x20 PUSH1 0x4 DUP3 ADD MSTORE PUSH1 0x1D PUSH1 0x24 DUP3 ADD MSTORE PUSH32 0x45524332303A20696E73756666696369656E7420616C6C6F77616E6365000000 PUSH1 0x44 DUP3 ADD MSTORE PUSH1 0x64 ADD PUSH2 0x3D6 JUMP JUMPDEST PUSH2 0x5EA DUP5 DUP5 DUP5 DUP5 SUB PUSH2 0x455 JUMP JUMPDEST POP POP POP POP JUMP JUMPDEST PUSH1 0x1 PUSH1 0x1 PUSH1 0xA0 SHL SUB DUP4 AND PUSH2 0x654 JUMPI PUSH1 0x40 MLOAD PUSH3 0x461BCD PUSH1 0xE5 SHL DUP2 MSTORE PUSH1 0x20 PUSH1 0x4 DUP3 ADD MSTORE PUSH1 0x25 PUSH1 0x24 DUP3 ADD MSTORE PUSH32 0x45524332303A207472616E736665722066726F6D20746865207A65726F206164 PUSH1 0x44 DUP3 ADD MSTORE PUSH5 0x6472657373 PUSH1 0xD8 SHL PUSH1 0x64 DUP3 ADD MSTORE PUSH1 0x84 ADD PUSH2 0x3D6 JUMP JUMPDEST PUSH1 0x1 PUSH1 0x1 PUSH1 0xA0 SHL SUB DUP3 AND PUSH2 0x6B6 JUMPI PUSH1 0x40 MLOAD PUSH3 0x461BCD PUSH1 0xE5 SHL DUP2 MSTORE PUSH1 0x20 PUSH1 0x4 DUP3 ADD MSTORE PUSH1 0x23 PUSH1 0x24 DUP3 ADD MSTORE PUSH32 0x45524332303A207472616E7366657220746F20746865207A65726F2061646472 PUSH1 0x44 DUP3 ADD MSTORE PUSH3 0x657373 PUSH1 0xE8 SHL PUSH1 0x64 DUP3 ADD MSTORE PUSH1 0x84 ADD PUSH2 0x3D6 JUMP JUMPDEST PUSH1 0x1 PUSH1 0x1 PUSH1 0xA0 SHL SUB DUP4 AND PUSH0 SWAP1 DUP2 MSTORE PUSH1 0x20 DUP2 SWAP1 MSTORE PUSH1 0x40 SWAP1 KECCAK256 SLOAD DUP2 DUP2 LT ISZERO PUSH2 0x72D JUMPI PUSH1 0x40 MLOAD PUSH3 0x461BCD PUSH1 0xE5 SHL DUP2 MSTORE PUSH1 0x20 PUSH1 0x4 DUP3 ADD MSTORE PUSH1 0x26 PUSH1 0x24 DUP3 ADD MSTORE PUSH32 0x45524332303A207472616E7366657220616D6F756E7420657863656564732062 PUSH1 0x44 DUP3 ADD MSTORE PUSH6 0x616C616E6365 PUSH1 0xD0 SHL PUSH1 0x64 DUP3 ADD MSTORE PUSH1 0x84 ADD PUSH2 0x3D6 JUMP JUMPDEST PUSH1 0x1 PUSH1 0x1 PUSH1 0xA0 SHL SUB DUP5 DUP2 AND PUSH0 DUP2 DUP2 MSTORE PUSH1 0x20 DUP2 DUP2 MSTORE PUSH1 0x40 DUP1 DUP4 KECCAK256 DUP8 DUP8 SUB SWAP1 SSTORE SWAP4 DUP8 AND DUP1 DUP4 MSTORE SWAP2 DUP5 SWAP1 KECCAK256 DUP1 SLOAD DUP8 ADD SWAP1 SSTORE SWAP3 MLOAD DUP6 DUP2 MSTORE SWAP1 SWAP3 PUSH32 0xDDF252AD1BE2C89B69C2B068FC378DAA952BA7F163C4A11628F55A4DF523B3EF SWAP2 ADD PUSH1 0x40 MLOAD DUP1 SWAP2 SUB SWAP1 LOG3 PUSH2 0x5EA JUMP JUMPDEST PUSH1 0x1 PUSH1 0x1 PUSH1 0xA0 SHL SUB DUP3 AND PUSH2 0x7E8 JUMPI PUSH1 0x40 MLOAD PUSH3 0x461BCD PUSH1 0xE5 SHL DUP2 MSTORE PUSH1 0x20 PUSH1 0x4 DUP3 ADD MSTORE PUSH1 0x1F PUSH1 0x24 DUP3 ADD MSTORE PUSH32 0x45524332303A206D696E7420746F20746865207A65726F206164647265737300 PUSH1 0x44 DUP3 ADD MSTORE PUSH1 0x64 ADD PUSH2 0x3D6 JUMP JUMPDEST DUP1 PUSH1 0x2 PUSH0 DUP3 DUP3 SLOAD PUSH2 0x7F9 SWAP2 SWAP1 PUSH2 0x9AC JUMP JUMPDEST SWAP1 SWAP2 SSTORE POP POP PUSH1 0x1 PUSH1 0x1 PUSH1 0xA0 SHL SUB DUP3 AND PUSH0 DUP2 DUP2 MSTORE PUSH1 0x20 DUP2 DUP2 MSTORE PUSH1 0x40 DUP1 DUP4 KECCAK256 DUP1 SLOAD DUP7 ADD SWAP1 SSTORE MLOAD DUP5 DUP2 MSTORE PUSH32 0xDDF252AD1BE2C89B69C2B068FC378DAA952BA7F163C4A11628F55A4DF523B3EF SWAP2 ADD PUSH1 0x40 MLOAD DUP1 SWAP2 SUB SWAP1 LOG3 POP POP JUMP JUMPDEST PUSH0 PUSH1 0x20 DUP1 DUP4 MSTORE DUP4 MLOAD DUP1 DUP3 DUP6 ADD MSTORE PUSH0 JUMPDEST DUP2 DUP2 LT ISZERO PUSH2 0x87A JUMPI DUP6 DUP2 ADD DUP4 ADD MLOAD DUP6 DUP3 ADD PUSH1 0x40 ADD MSTORE DUP3 ADD PUSH2 0x85E JUMP JUMPDEST POP PUSH0 PUSH1 0x40 DUP3 DUP7 ADD ADD MSTORE PUSH1 0x40 PUSH1 0x1F NOT PUSH1 0x1F DUP4 ADD AND DUP6 ADD ADD SWAP3 POP POP POP SWAP3 SWAP2 POP POP JUMP JUMPDEST DUP1 CALLDATALOAD PUSH1 0x1 PUSH1 0x1 PUSH1 0xA0 SHL SUB DUP2 AND DUP2 EQ PUSH2 0x8B0 JUMPI PUSH0 DUP1 REVERT JUMPDEST SWAP2 SWAP1 POP JUMP JUMPDEST PUSH0 DUP1 PUSH1 0x40 DUP4 DUP6 SUB SLT ISZERO PUSH2 0x8C6 JUMPI PUSH0 DUP1 REVERT JUMPDEST PUSH2 0x8CF DUP4 PUSH2 0x89A JUMP JUMPDEST SWAP5 PUSH1 0x20 SWAP4 SWAP1 SWAP4 ADD CALLDATALOAD SWAP4 POP POP POP JUMP JUMPDEST PUSH0 DUP1 PUSH0 PUSH1 0x60 DUP5 DUP7 SUB SLT ISZERO PUSH2 0x8EF JUMPI PUSH0 DUP1 REVERT JUMPDEST PUSH2 0x8F8 DUP5 PUSH2 0x89A JUMP JUMPDEST SWAP3 POP PUSH2 0x906 PUSH1 0x20 DUP6 ADD PUSH2 0x89A JUMP JUMPDEST SWAP2 POP PUSH1 0x40 DUP5 ADD CALLDATALOAD SWAP1 POP SWAP3 POP SWAP3 POP SWAP3 JUMP JUMPDEST PUSH0 PUSH1 0x20 DUP3 DUP5 SUB SLT ISZERO PUSH2 0x926 JUMPI PUSH0 DUP1 REVERT JUMPDEST PUSH2 0x424 DUP3 PUSH2 0x89A JUMP JUMPDEST PUSH0 DUP1 PUSH1 0x40 DUP4 DUP6 SUB SLT ISZERO PUSH2 0x940 JUMPI PUSH0 DUP1 REVERT JUMPDEST PUSH2 0x949 DUP4 PUSH2 0x89A JUMP JUMPDEST SWAP2 POP PUSH2 0x957 PUSH1 0x20 DUP5 ADD PUSH2 0x89A JUMP JUMPDEST SWAP1 POP SWAP3 POP SWAP3 SWAP1 POP JUMP JUMPDEST PUSH1 0x1 DUP2 DUP2 SHR SWAP1 DUP3 AND DUP1 PUSH2 0x974 JUMPI PUSH1 0x7F DUP3 AND SWAP2 POP JUMPDEST PUSH1 0x20 DUP3 LT DUP2 SUB PUSH2 0x992 JUMPI PUSH4 0x4E487B71 PUSH1 0xE0 SHL PUSH0 MSTORE PUSH1 0x22 PUSH1 0x4 MSTORE PUSH1 0x24 PUSH0 REVERT JUMPDEST POP SWAP2 SWAP1 POP JUMP JUMPDEST PUSH4 0x4E487B71 PUSH1 0xE0 SHL PUSH0 MSTORE PUSH1 0x11 PUSH1 0x4 MSTORE PUSH1 0x24 PUSH0 REVERT JUMPDEST DUP1 DUP3 ADD DUP1 DUP3 GT ISZERO PUSH2 0x2EE JUMPI PUSH2 0x2EE PUSH2 0x998 JUMP JUMPDEST PUSH1 0x1 DUP2 DUP2 JUMPDEST DUP1 DUP6 GT ISZERO PUSH2 0x9F9 JUMPI DUP2 PUSH0 NOT DIV DUP3 GT ISZERO PUSH2 0x9DF JUMPI PUSH2 0x9DF PUSH2 0x998 JUMP JUMPDEST DUP1 DUP6 AND ISZERO PUSH2 0x9EC JUMPI SWAP2 DUP2 MUL SWAP2 JUMPDEST SWAP4 DUP5 SHR SWAP4 SWAP1 DUP1 MUL SWAP1 PUSH2 0x9C4 JUMP JUMPDEST POP SWAP3 POP SWAP3 SWAP1 POP JUMP JUMPDEST PUSH0 DUP3 PUSH2 0xA0F JUMPI POP PUSH1 0x1 PUSH2 0x2EE JUMP JUMPDEST DUP2 PUSH2 0xA1B JUMPI POP PUSH0 PUSH2 0x2EE JUMP JUMPDEST DUP2 PUSH1 0x1 DUP2 EQ PUSH2 0xA31 JUMPI PUSH1 0x2 DUP2 EQ PUSH2 0xA3B JUMPI PUSH2 0xA57 JUMP JUMPDEST PUSH1 0x1 SWAP2 POP POP PUSH2 0x2EE JUMP JUMPDEST PUSH1 0xFF DUP5 GT ISZERO PUSH2 0xA4C JUMPI PUSH2 0xA4C PUSH2 0x998 JUMP JUMPDEST POP POP PUSH1 0x1 DUP3 SHL PUSH2 0x2EE JUMP JUMPDEST POP PUSH1 0x20 DUP4 LT PUSH2 0x133 DUP4 LT AND PUSH1 0x4E DUP5 LT PUSH1 0xB DUP5 LT AND OR ISZERO PUSH2 0xA7A JUMPI POP DUP2 DUP2 EXP PUSH2 0x2EE JUMP JUMPDEST PUSH2 0xA84 DUP4 DUP4 PUSH2 0x9BF JUMP JUMPDEST DUP1 PUSH0 NOT DIV DUP3 GT ISZERO PUSH2 0xA97 JUMPI PUSH2 0xA97 PUSH2 0x998 JUMP JUMPDEST MUL SWAP4 SWAP3 POP POP POP JUMP JUMPDEST PUSH0 PUSH2 0x424 PUSH1 0xFF DUP5 AND DUP4 PUSH2 0xA01 JUMP JUMPDEST DUP1 DUP3 MUL DUP2 ISZERO DUP3 DUP3 DIV DUP5 EQ OR PUSH2 0x2EE JUMPI PUSH2 0x2EE PUSH2 0x998 JUMP INVALID LOG2 PUSH5 0x6970667358 0x22 SLT KECCAK256 0x49 0xD PUSH8 0x2DB50DFBE67D0E84 SUB SWAP10 0xBD CALLDATALOAD SELFBALANCE 0xC9 SMOD 0xF8 EQ RETURNDATACOPY SWAP13 LOG0 DUP9 SUB 0xB7 CALLDATASIZE 0xA5 DUP13 0xF8 0xC7 SGT PUSH5 0x736F6C6343 STOP ADDMOD EQ STOP CALLER "
				},
				"gasEstimates": {
					"creation": {
						"codeDepositCost": "562000",
						"executionCost": "infinite",
						"totalCost": "infinite"
					},
					"external": {
						"admins()": "2425",
						"allowance(address,address)": "infinite",
						"approve(address,uint256)": "24647",
						"balanceOf(address)": "2560",
						"decimals()": "221",
						"decreaseAllowance(address,uint256)": "27012",
						"findBalance(address)": "infinite",
						"increaseAllowance(address,uint256)": "infinite",
						"mint(address)": "infinite",
						"name()": "infinite",
						"symbol()": "infinite",
						"totalSupply()": "2348",
						"transfer(address,address,uint256)": "infinite",
						"transfer(address,uint256)": "51067",
						"transferFrom(address,address,uint256)": "infinite"
					}
				},
				"methodIdentifiers": {
					"admins()": "a5de3619",
					"allowance(address,address)": "dd62ed3e",
					"approve(address,uint256)": "095ea7b3",
					"balanceOf(address)": "70a08231",
					"decimals()": "313ce567",
					"decreaseAllowance(address,uint256)": "a457c2d7",
					"findBalance(address)": "cfba4fe0",
					"increaseAllowance(address,uint256)": "39509351",
					"mint(address)": "6a627842",
					"name()": "06fdde03",
					"symbol()": "95d89b41",
					"totalSupply()": "18160ddd",
					"transfer(address,address,uint256)": "beabacc8",
					"transfer(address,uint256)": "a9059cbb",
					"transferFrom(address,address,uint256)": "23b872dd"
				}
			},
			"storageLayout": {
				"storage": [
					{
						"astId": 133,
						"contract": "contracts/ERC20Functions_flattened.sol:tokenFunctions",
						"label": "_balances",
						"offset": 0,
						"slot": "0",
						"type": "t_mapping(t_address,t_uint256)"
					},
					{
						"astId": 139,
						"contract": "contracts/ERC20Functions_flattened.sol:tokenFunctions",
						"label": "_allowances",
						"offset": 0,
						"slot": "1",
						"type": "t_mapping(t_address,t_mapping(t_address,t_uint256))"
					},
					{
						"astId": 141,
						"contract": "contracts/ERC20Functions_flattened.sol:tokenFunctions",
						"label": "_totalSupply",
						"offset": 0,
						"slot": "2",
						"type": "t_uint256"
					},
					{
						"astId": 143,
						"contract": "contracts/ERC20Functions_flattened.sol:tokenFunctions",
						"label": "_name",
						"offset": 0,
						"slot": "3",
						"type": "t_string_storage"
					},
					{
						"astId": 145,
						"contract": "contracts/ERC20Functions_flattened.sol:tokenFunctions",
						"label": "_symbol",
						"offset": 0,
						"slot": "4",
						"type": "t_string_storage"
					},
					{
						"astId": 709,
						"contract": "contracts/ERC20Functions_flattened.sol:tokenFunctions",
						"label": "admins",
						"offset": 0,
						"slot": "5",
						"type": "t_address"
					}
				],
				"types": {
					"t_address": {
						"encoding": "inplace",
						"label": "address",
						"numberOfBytes": "20"
					},
					"t_mapping(t_address,t_mapping(t_address,t_uint256))": {
						"encoding": "mapping",
						"key": "t_address",
						"label": "mapping(address => mapping(address => uint256))",
						"numberOfBytes": "32",
						"value": "t_mapping(t_address,t_uint256)"
					},
					"t_mapping(t_address,t_uint256)": {
						"encoding": "mapping",
						"key": "t_address",
						"label": "mapping(address => uint256)",
						"numberOfBytes": "32",
						"value": "t_uint256"
					},
					"t_string_storage": {
						"encoding": "bytes",
						"label": "string",
						"numberOfBytes": "32"
					},
					"t_uint256": {
						"encoding": "inplace",
						"label": "uint256",
						"numberOfBytes": "32"
					}
				}
			},
			"userdoc": {
				"kind": "user",
				"methods": {},
				"version": 1
			}
		}
	}
}