{
	"data": {
		"bytecode": {
			"linkReferences": {},
			"object": "60806040525f600155348015610013575f80fd5b50604051610f4d380380610f4d833981016040819052610032916101fc565b600580546001600160a01b03199081166001600160a01b038416179091555f80543392168217905560028054610100600160a81b03191661010090920291909117905561007d6100fa565b335f90815260076020526040808220600301805460ff19166001179055600554915490516335313c2160e11b81526001600160a01b039182166004820152911690636a627842906024015f604051808303815f87803b1580156100de575f80fd5b505af11580156100f0573d5f803e3d5ffd5b5050505050610229565b335f9081526007602052604090206003015460ff16156101555760405162461bcd60e51b81526020600482015260126024820152711d5cd95c88185b1c9958591e48195e1a5cdd60721b604482015260640160405180910390fd5b6003546040516001600160601b03193360601b166020820152426034820152605481019190915260740160408051808303601f190181529082905280516020918201206003556004546001600160601b03193360601b1691830191909152426034830152605482015260740160408051601f1981840301815291815281516020928301206004908155600354335f9081526006909452919092209081559054600190910155565b5f6020828403121561020c575f80fd5b81516001600160a01b0381168114610222575f80fd5b9392505050565b610d17806102365f395ff3fe608060405234801561000f575f80fd5b50600436106100e5575f3560e01c80638ce8bb2911610088578063c5337ed411610063578063c5337ed414610255578063d24c5a361461025e578063ec3be66f14610267578063f13ad725146102a2575f80fd5b80638ce8bb2914610215578063a5de36191461022c578063bea1ac861461023e575f80fd5b80634d1fd27e116100c35780634d1fd27e146101405780635ea437451461016a57806360f96a8f1461017f57806382e4eda414610197575f80fd5b8063255d45d8146100e957806326c49a051461010e5780634b4521a21461012c575b5f80fd5b6100f16102b5565b6040516001600160a01b0390911681526020015b60405180910390f35b335f908152600660205260409020545b604051908152602001610105565b335f9081526007602052604090205461011e565b335f90815260076020526040902060030154610100900460ff166040519015158152602001610105565b61017d610178366004610bc3565b6102f1565b005b6002546100f19061010090046001600160a01b031681565b6101e16101a5366004610bc3565b60076020525f9081526040902080546001820154600283015460039093015491926001600160a01b039091169160ff8082169161010090041685565b604080519586526001600160a01b03909416602086015292840191909152151560608301521515608082015260a001610105565b335f9081526006602052604090206001015461011e565b5f546100f1906001600160a01b031681565b335f9081526007602052604090206002015461011e565b61011e60045481565b61011e60035481565b61028d610275366004610bc3565b60066020525f90815260409020805460019091015482565b60408051928352602083019190915201610105565b6005546100f1906001600160a01b031681565b335f9081526007602052604081206003015460ff166102d2575f80fd5b50335f908152600760205260409020600101546001600160a01b031690565b335f9081526007602052604090206003015460ff161561032c5760405162461bcd60e51b815260040161032390610bf0565b60405180910390fd5b6001600160a01b0381165f90815260076020526040902060029081015490036103885760405162461bcd60e51b815260206004820152600e60248201526d4e6f206b657920746f207061737360901b6044820152606401610323565b60055460405163067dd27f60e51b81523360048201526101f4916001600160a01b03169063cfba4fe0906024016020604051808303815f875af11580156103d1573d5f803e3d5ffd5b505050506040513d601f19601f820116820180604052508101906103f59190610c1c565b10156104435760405162461bcd60e51b815260206004820152601c60248201527f496e73756666696369656e742042616c616e636520746f206a6f696e000000006044820152606401610323565b6001600160a01b0381165f9081526006602052604090205415610594576001600160a01b0381165f90815260066020908152604080832054338085526007909352928190209290925590515f80516020610cc2833981519152916104a991849190610c33565b60405180910390a16001600160a01b0381165f908152600660209081526040808320839055600790915281206002018054600192906104e9908490610c96565b9091555050335f9081526007602052604090206001810180546001600160a01b0384166001600160a01b0319909116179055600301805461ff001916610100179055610533610645565b6040805133815260208101829052600d818301526c1ad95e4819d95b995c985d1959609a1b606082015290517f47e60af076f96712b0e8439c8ae58ab2ea4f4ba3c73dd6223fb151403e11efa89181900360800190a1610591610728565b50565b6001600160a01b0381165f9081526006602052604090206001015415610591576001600160a01b0381165f90815260066020908152604080832060010154338085526007909352928190209290925590515f80516020610cc28339815191529161060091849190610c33565b60405180910390a16001600160a01b0381165f9081526006602090815260408083206001908101849055600790925282206002018054919290916104e9908490610c96565b335f9081526007602052604090206003015460ff16156106775760405162461bcd60e51b815260040161032390610bf0565b6003546040516bffffffffffffffffffffffff193360601b166020820152426034820152605481019190915260740160408051808303601f190181529082905280516020918201206003556004546bffffffffffffffffffffffff193360601b1691830191909152426034830152605482015260740160408051601f1981840301815291815281516020928301206004908155600354335f9081526006909452919092209081559054600190910155565b335f90815260076020526040902060030154610100900460ff166107875760405162461bcd60e51b81526020600482015260166024820152754b6579206973206e6f7420617070726f70726961746560501b6044820152606401610323565b335f9081526007602052604081205490036107dc5760405162461bcd60e51b8152602060048201526015602482015274466972737420476574206120546f6b656e206b657960581b6044820152606401610323565b60018054905f6107eb83610ca9565b91905055505f6107fd336001546108b7565b90508061083f5760405162461bcd60e51b815260206004820152601060248201526f2737ba1030903b30b634b2103ab9b2b960811b6044820152606401610323565b335f81815260076020908152604091829020600301805460ff1916600117905581519283528201819052600f908201526e1858dd1a5d9948155cd95c881cd95d608a1b60608201527f47e60af076f96712b0e8439c8ae58ab2ea4f4ba3c73dd6223fb151403e11efa89060800160405180910390a150565b335f9081526007602052604081206003015460ff16156108e95760405162461bcd60e51b815260040161032390610bf0565b6002821115801561091857505f805433825260076020526040909120600101546001600160a01b039081169116145b15610a2d576005546001600160a01b038481165f8181526007602052604090819020600101549051637aa9bf6f60e11b81526004810192909252821660248201526101f4604482015291169063f5537ede906064015f604051808303815f87803b158015610984575f80fd5b505af1158015610996573d5f803e3d5ffd5b5050506001600160a01b038085165f90815260076020526040908190206001015490515f80516020610cc28339815191529350610a2092879216906001600160a01b039283168152911660208201526060604082018190526017908201527f7472616e73666572207375636365737366756c20353030000000000000000000608082015260a00190565b60405180910390a1610bb9565b6001600160a01b038381165f8181526007602052604090819020600101546005549151637aa9bf6f60e11b8152600481019390935283166024830181905261012c604484015292169063f5537ede906064015f604051808303815f87803b158015610a96575f80fd5b505af1158015610aa8573d5f803e3d5ffd5b50506005546001600160a01b038481165f9081526007602052604090819020600101549051637aa9bf6f60e11b81528983166004820152908216602482015260c860448201529116925063f5537ede91506064015f604051808303815f87803b158015610b13575f80fd5b505af1158015610b25573d5f803e3d5ffd5b5050506001600160a01b038086165f90815260076020526040908190206001015490515f80516020610cc28339815191529350610baf92889216906001600160a01b03928316815291166020820152606060408201819052601b908201527f7472616e73666572207375636365737366756c203330302c3230300000000000608082015260a00190565b60405180910390a1505b5060015b92915050565b5f60208284031215610bd3575f80fd5b81356001600160a01b0381168114610be9575f80fd5b9392505050565b6020808252601290820152711d5cd95c88185b1c9958591e48195e1a5cdd60721b604082015260600190565b5f60208284031215610c2c575f80fd5b5051919050565b6001600160a01b039283168152911660208201526060604082018190526017908201527f6b657920706173736564207375636365737366756c6c79000000000000000000608082015260a00190565b634e487b7160e01b5f52601160045260245ffd5b80820180821115610bbd57610bbd610c82565b5f60018201610cba57610cba610c82565b506001019056fe8bf617435b58faef6be9efeb8aa6d284f6d751e37bb54eecd305787eeccbd1a9a2646970667358221220aae7a8e00a5f47f161c28c9ed89896fc6db8956be321f7541bc029efc494ab7164736f6c63430008150033",
			"opcodes": "PUSH1 0x80 PUSH1 0x40 MSTORE PUSH0 PUSH1 0x1 SSTORE CALLVALUE DUP1 ISZERO PUSH2 0x13 JUMPI PUSH0 DUP1 REVERT JUMPDEST POP PUSH1 0x40 MLOAD PUSH2 0xF4D CODESIZE SUB DUP1 PUSH2 0xF4D DUP4 CODECOPY DUP2 ADD PUSH1 0x40 DUP2 SWAP1 MSTORE PUSH2 0x32 SWAP2 PUSH2 0x1FC JUMP JUMPDEST PUSH1 0x5 DUP1 SLOAD PUSH1 0x1 PUSH1 0x1 PUSH1 0xA0 SHL SUB NOT SWAP1 DUP2 AND PUSH1 0x1 PUSH1 0x1 PUSH1 0xA0 SHL SUB DUP5 AND OR SWAP1 SWAP2 SSTORE PUSH0 DUP1 SLOAD CALLER SWAP3 AND DUP3 OR SWAP1 SSTORE PUSH1 0x2 DUP1 SLOAD PUSH2 0x100 PUSH1 0x1 PUSH1 0xA8 SHL SUB NOT AND PUSH2 0x100 SWAP1 SWAP3 MUL SWAP2 SWAP1 SWAP2 OR SWAP1 SSTORE PUSH2 0x7D PUSH2 0xFA JUMP JUMPDEST CALLER PUSH0 SWAP1 DUP2 MSTORE PUSH1 0x7 PUSH1 0x20 MSTORE PUSH1 0x40 DUP1 DUP3 KECCAK256 PUSH1 0x3 ADD DUP1 SLOAD PUSH1 0xFF NOT AND PUSH1 0x1 OR SWAP1 SSTORE PUSH1 0x5 SLOAD SWAP2 SLOAD SWAP1 MLOAD PUSH4 0x35313C21 PUSH1 0xE1 SHL DUP2 MSTORE PUSH1 0x1 PUSH1 0x1 PUSH1 0xA0 SHL SUB SWAP2 DUP3 AND PUSH1 0x4 DUP3 ADD MSTORE SWAP2 AND SWAP1 PUSH4 0x6A627842 SWAP1 PUSH1 0x24 ADD PUSH0 PUSH1 0x40 MLOAD DUP1 DUP4 SUB DUP2 PUSH0 DUP8 DUP1 EXTCODESIZE ISZERO DUP1 ISZERO PUSH2 0xDE JUMPI PUSH0 DUP1 REVERT JUMPDEST POP GAS CALL ISZERO DUP1 ISZERO PUSH2 0xF0 JUMPI RETURNDATASIZE PUSH0 DUP1 RETURNDATACOPY RETURNDATASIZE PUSH0 REVERT JUMPDEST POP POP POP POP POP PUSH2 0x229 JUMP JUMPDEST CALLER PUSH0 SWAP1 DUP2 MSTORE PUSH1 0x7 PUSH1 0x20 MSTORE PUSH1 0x40 SWAP1 KECCAK256 PUSH1 0x3 ADD SLOAD PUSH1 0xFF AND ISZERO PUSH2 0x155 JUMPI PUSH1 0x40 MLOAD PUSH3 0x461BCD PUSH1 0xE5 SHL DUP2 MSTORE PUSH1 0x20 PUSH1 0x4 DUP3 ADD MSTORE PUSH1 0x12 PUSH1 0x24 DUP3 ADD MSTORE PUSH18 0x1D5CD95C88185B1C9958591E48195E1A5CDD PUSH1 0x72 SHL PUSH1 0x44 DUP3 ADD MSTORE PUSH1 0x64 ADD PUSH1 0x40 MLOAD DUP1 SWAP2 SUB SWAP1 REVERT JUMPDEST PUSH1 0x3 SLOAD PUSH1 0x40 MLOAD PUSH1 0x1 PUSH1 0x1 PUSH1 0x60 SHL SUB NOT CALLER PUSH1 0x60 SHL AND PUSH1 0x20 DUP3 ADD MSTORE TIMESTAMP PUSH1 0x34 DUP3 ADD MSTORE PUSH1 0x54 DUP2 ADD SWAP2 SWAP1 SWAP2 MSTORE PUSH1 0x74 ADD PUSH1 0x40 DUP1 MLOAD DUP1 DUP4 SUB PUSH1 0x1F NOT ADD DUP2 MSTORE SWAP1 DUP3 SWAP1 MSTORE DUP1 MLOAD PUSH1 0x20 SWAP2 DUP3 ADD KECCAK256 PUSH1 0x3 SSTORE PUSH1 0x4 SLOAD PUSH1 0x1 PUSH1 0x1 PUSH1 0x60 SHL SUB NOT CALLER PUSH1 0x60 SHL AND SWAP2 DUP4 ADD SWAP2 SWAP1 SWAP2 MSTORE TIMESTAMP PUSH1 0x34 DUP4 ADD MSTORE PUSH1 0x54 DUP3 ADD MSTORE PUSH1 0x74 ADD PUSH1 0x40 DUP1 MLOAD PUSH1 0x1F NOT DUP2 DUP5 SUB ADD DUP2 MSTORE SWAP2 DUP2 MSTORE DUP2 MLOAD PUSH1 0x20 SWAP3 DUP4 ADD KECCAK256 PUSH1 0x4 SWAP1 DUP2 SSTORE PUSH1 0x3 SLOAD CALLER PUSH0 SWAP1 DUP2 MSTORE PUSH1 0x6 SWAP1 SWAP5 MSTORE SWAP2 SWAP1 SWAP3 KECCAK256 SWAP1 DUP2 SSTORE SWAP1 SLOAD PUSH1 0x1 SWAP1 SWAP2 ADD SSTORE JUMP JUMPDEST PUSH0 PUSH1 0x20 DUP3 DUP5 SUB SLT ISZERO PUSH2 0x20C JUMPI PUSH0 DUP1 REVERT JUMPDEST DUP2 MLOAD PUSH1 0x1 PUSH1 0x1 PUSH1 0xA0 SHL SUB DUP2 AND DUP2 EQ PUSH2 0x222 JUMPI PUSH0 DUP1 REVERT JUMPDEST SWAP4 SWAP3 POP POP POP JUMP JUMPDEST PUSH2 0xD17 DUP1 PUSH2 0x236 PUSH0 CODECOPY PUSH0 RETURN INVALID PUSH1 0x80 PUSH1 0x40 MSTORE CALLVALUE DUP1 ISZERO PUSH2 0xF JUMPI PUSH0 DUP1 REVERT JUMPDEST POP PUSH1 0x4 CALLDATASIZE LT PUSH2 0xE5 JUMPI PUSH0 CALLDATALOAD PUSH1 0xE0 SHR DUP1 PUSH4 0x8CE8BB29 GT PUSH2 0x88 JUMPI DUP1 PUSH4 0xC5337ED4 GT PUSH2 0x63 JUMPI DUP1 PUSH4 0xC5337ED4 EQ PUSH2 0x255 JUMPI DUP1 PUSH4 0xD24C5A36 EQ PUSH2 0x25E JUMPI DUP1 PUSH4 0xEC3BE66F EQ PUSH2 0x267 JUMPI DUP1 PUSH4 0xF13AD725 EQ PUSH2 0x2A2 JUMPI PUSH0 DUP1 REVERT JUMPDEST DUP1 PUSH4 0x8CE8BB29 EQ PUSH2 0x215 JUMPI DUP1 PUSH4 0xA5DE3619 EQ PUSH2 0x22C JUMPI DUP1 PUSH4 0xBEA1AC86 EQ PUSH2 0x23E JUMPI PUSH0 DUP1 REVERT JUMPDEST DUP1 PUSH4 0x4D1FD27E GT PUSH2 0xC3 JUMPI DUP1 PUSH4 0x4D1FD27E EQ PUSH2 0x140 JUMPI DUP1 PUSH4 0x5EA43745 EQ PUSH2 0x16A JUMPI DUP1 PUSH4 0x60F96A8F EQ PUSH2 0x17F JUMPI DUP1 PUSH4 0x82E4EDA4 EQ PUSH2 0x197 JUMPI PUSH0 DUP1 REVERT JUMPDEST DUP1 PUSH4 0x255D45D8 EQ PUSH2 0xE9 JUMPI DUP1 PUSH4 0x26C49A05 EQ PUSH2 0x10E JUMPI DUP1 PUSH4 0x4B4521A2 EQ PUSH2 0x12C JUMPI JUMPDEST PUSH0 DUP1 REVERT JUMPDEST PUSH2 0xF1 PUSH2 0x2B5 JUMP JUMPDEST PUSH1 0x40 MLOAD PUSH1 0x1 PUSH1 0x1 PUSH1 0xA0 SHL SUB SWAP1 SWAP2 AND DUP2 MSTORE PUSH1 0x20 ADD JUMPDEST PUSH1 0x40 MLOAD DUP1 SWAP2 SUB SWAP1 RETURN JUMPDEST CALLER PUSH0 SWAP1 DUP2 MSTORE PUSH1 0x6 PUSH1 0x20 MSTORE PUSH1 0x40 SWAP1 KECCAK256 SLOAD JUMPDEST PUSH1 0x40 MLOAD SWAP1 DUP2 MSTORE PUSH1 0x20 ADD PUSH2 0x105 JUMP JUMPDEST CALLER PUSH0 SWAP1 DUP2 MSTORE PUSH1 0x7 PUSH1 0x20 MSTORE PUSH1 0x40 SWAP1 KECCAK256 SLOAD PUSH2 0x11E JUMP JUMPDEST CALLER PUSH0 SWAP1 DUP2 MSTORE PUSH1 0x7 PUSH1 0x20 MSTORE PUSH1 0x40 SWAP1 KECCAK256 PUSH1 0x3 ADD SLOAD PUSH2 0x100 SWAP1 DIV PUSH1 0xFF AND PUSH1 0x40 MLOAD SWAP1 ISZERO ISZERO DUP2 MSTORE PUSH1 0x20 ADD PUSH2 0x105 JUMP JUMPDEST PUSH2 0x17D PUSH2 0x178 CALLDATASIZE PUSH1 0x4 PUSH2 0xBC3 JUMP JUMPDEST PUSH2 0x2F1 JUMP JUMPDEST STOP JUMPDEST PUSH1 0x2 SLOAD PUSH2 0xF1 SWAP1 PUSH2 0x100 SWAP1 DIV PUSH1 0x1 PUSH1 0x1 PUSH1 0xA0 SHL SUB AND DUP2 JUMP JUMPDEST PUSH2 0x1E1 PUSH2 0x1A5 CALLDATASIZE PUSH1 0x4 PUSH2 0xBC3 JUMP JUMPDEST PUSH1 0x7 PUSH1 0x20 MSTORE PUSH0 SWAP1 DUP2 MSTORE PUSH1 0x40 SWAP1 KECCAK256 DUP1 SLOAD PUSH1 0x1 DUP3 ADD SLOAD PUSH1 0x2 DUP4 ADD SLOAD PUSH1 0x3 SWAP1 SWAP4 ADD SLOAD SWAP2 SWAP3 PUSH1 0x1 PUSH1 0x1 PUSH1 0xA0 SHL SUB SWAP1 SWAP2 AND SWAP2 PUSH1 0xFF DUP1 DUP3 AND SWAP2 PUSH2 0x100 SWAP1 DIV AND DUP6 JUMP JUMPDEST PUSH1 0x40 DUP1 MLOAD SWAP6 DUP7 MSTORE PUSH1 0x1 PUSH1 0x1 PUSH1 0xA0 SHL SUB SWAP1 SWAP5 AND PUSH1 0x20 DUP7 ADD MSTORE SWAP3 DUP5 ADD SWAP2 SWAP1 SWAP2 MSTORE ISZERO ISZERO PUSH1 0x60 DUP4 ADD MSTORE ISZERO ISZERO PUSH1 0x80 DUP3 ADD MSTORE PUSH1 0xA0 ADD PUSH2 0x105 JUMP JUMPDEST CALLER PUSH0 SWAP1 DUP2 MSTORE PUSH1 0x6 PUSH1 0x20 MSTORE PUSH1 0x40 SWAP1 KECCAK256 PUSH1 0x1 ADD SLOAD PUSH2 0x11E JUMP JUMPDEST PUSH0 SLOAD PUSH2 0xF1 SWAP1 PUSH1 0x1 PUSH1 0x1 PUSH1 0xA0 SHL SUB AND DUP2 JUMP JUMPDEST CALLER PUSH0 SWAP1 DUP2 MSTORE PUSH1 0x7 PUSH1 0x20 MSTORE PUSH1 0x40 SWAP1 KECCAK256 PUSH1 0x2 ADD SLOAD PUSH2 0x11E JUMP JUMPDEST PUSH2 0x11E PUSH1 0x4 SLOAD DUP2 JUMP JUMPDEST PUSH2 0x11E PUSH1 0x3 SLOAD DUP2 JUMP JUMPDEST PUSH2 0x28D PUSH2 0x275 CALLDATASIZE PUSH1 0x4 PUSH2 0xBC3 JUMP JUMPDEST PUSH1 0x6 PUSH1 0x20 MSTORE PUSH0 SWAP1 DUP2 MSTORE PUSH1 0x40 SWAP1 KECCAK256 DUP1 SLOAD PUSH1 0x1 SWAP1 SWAP2 ADD SLOAD DUP3 JUMP JUMPDEST PUSH1 0x40 DUP1 MLOAD SWAP3 DUP4 MSTORE PUSH1 0x20 DUP4 ADD SWAP2 SWAP1 SWAP2 MSTORE ADD PUSH2 0x105 JUMP JUMPDEST PUSH1 0x5 SLOAD PUSH2 0xF1 SWAP1 PUSH1 0x1 PUSH1 0x1 PUSH1 0xA0 SHL SUB AND DUP2 JUMP JUMPDEST CALLER PUSH0 SWAP1 DUP2 MSTORE PUSH1 0x7 PUSH1 0x20 MSTORE PUSH1 0x40 DUP2 KECCAK256 PUSH1 0x3 ADD SLOAD PUSH1 0xFF AND PUSH2 0x2D2 JUMPI PUSH0 DUP1 REVERT JUMPDEST POP CALLER PUSH0 SWAP1 DUP2 MSTORE PUSH1 0x7 PUSH1 0x20 MSTORE PUSH1 0x40 SWAP1 KECCAK256 PUSH1 0x1 ADD SLOAD PUSH1 0x1 PUSH1 0x1 PUSH1 0xA0 SHL SUB AND SWAP1 JUMP JUMPDEST CALLER PUSH0 SWAP1 DUP2 MSTORE PUSH1 0x7 PUSH1 0x20 MSTORE PUSH1 0x40 SWAP1 KECCAK256 PUSH1 0x3 ADD SLOAD PUSH1 0xFF AND ISZERO PUSH2 0x32C JUMPI PUSH1 0x40 MLOAD PUSH3 0x461BCD PUSH1 0xE5 SHL DUP2 MSTORE PUSH1 0x4 ADD PUSH2 0x323 SWAP1 PUSH2 0xBF0 JUMP JUMPDEST PUSH1 0x40 MLOAD DUP1 SWAP2 SUB SWAP1 REVERT JUMPDEST PUSH1 0x1 PUSH1 0x1 PUSH1 0xA0 SHL SUB DUP2 AND PUSH0 SWAP1 DUP2 MSTORE PUSH1 0x7 PUSH1 0x20 MSTORE PUSH1 0x40 SWAP1 KECCAK256 PUSH1 0x2 SWAP1 DUP2 ADD SLOAD SWAP1 SUB PUSH2 0x388 JUMPI PUSH1 0x40 MLOAD PUSH3 0x461BCD PUSH1 0xE5 SHL DUP2 MSTORE PUSH1 0x20 PUSH1 0x4 DUP3 ADD MSTORE PUSH1 0xE PUSH1 0x24 DUP3 ADD MSTORE PUSH14 0x4E6F206B657920746F2070617373 PUSH1 0x90 SHL PUSH1 0x44 DUP3 ADD MSTORE PUSH1 0x64 ADD PUSH2 0x323 JUMP JUMPDEST PUSH1 0x5 SLOAD PUSH1 0x40 MLOAD PUSH4 0x67DD27F PUSH1 0xE5 SHL DUP2 MSTORE CALLER PUSH1 0x4 DUP3 ADD MSTORE PUSH2 0x1F4 SWAP2 PUSH1 0x1 PUSH1 0x1 PUSH1 0xA0 SHL SUB AND SWAP1 PUSH4 0xCFBA4FE0 SWAP1 PUSH1 0x24 ADD PUSH1 0x20 PUSH1 0x40 MLOAD DUP1 DUP4 SUB DUP2 PUSH0 DUP8 GAS CALL ISZERO DUP1 ISZERO PUSH2 0x3D1 JUMPI RETURNDATASIZE PUSH0 DUP1 RETURNDATACOPY RETURNDATASIZE PUSH0 REVERT JUMPDEST POP POP POP POP PUSH1 0x40 MLOAD RETURNDATASIZE PUSH1 0x1F NOT PUSH1 0x1F DUP3 ADD AND DUP3 ADD DUP1 PUSH1 0x40 MSTORE POP DUP2 ADD SWAP1 PUSH2 0x3F5 SWAP2 SWAP1 PUSH2 0xC1C JUMP JUMPDEST LT ISZERO PUSH2 0x443 JUMPI PUSH1 0x40 MLOAD PUSH3 0x461BCD PUSH1 0xE5 SHL DUP2 MSTORE PUSH1 0x20 PUSH1 0x4 DUP3 ADD MSTORE PUSH1 0x1C PUSH1 0x24 DUP3 ADD MSTORE PUSH32 0x496E73756666696369656E742042616C616E636520746F206A6F696E00000000 PUSH1 0x44 DUP3 ADD MSTORE PUSH1 0x64 ADD PUSH2 0x323 JUMP JUMPDEST PUSH1 0x1 PUSH1 0x1 PUSH1 0xA0 SHL SUB DUP2 AND PUSH0 SWAP1 DUP2 MSTORE PUSH1 0x6 PUSH1 0x20 MSTORE PUSH1 0x40 SWAP1 KECCAK256 SLOAD ISZERO PUSH2 0x594 JUMPI PUSH1 0x1 PUSH1 0x1 PUSH1 0xA0 SHL SUB DUP2 AND PUSH0 SWAP1 DUP2 MSTORE PUSH1 0x6 PUSH1 0x20 SWAP1 DUP2 MSTORE PUSH1 0x40 DUP1 DUP4 KECCAK256 SLOAD CALLER DUP1 DUP6 MSTORE PUSH1 0x7 SWAP1 SWAP4 MSTORE SWAP3 DUP2 SWAP1 KECCAK256 SWAP3 SWAP1 SWAP3 SSTORE SWAP1 MLOAD PUSH0 DUP1 MLOAD PUSH1 0x20 PUSH2 0xCC2 DUP4 CODECOPY DUP2 MLOAD SWAP2 MSTORE SWAP2 PUSH2 0x4A9 SWAP2 DUP5 SWAP2 SWAP1 PUSH2 0xC33 JUMP JUMPDEST PUSH1 0x40 MLOAD DUP1 SWAP2 SUB SWAP1 LOG1 PUSH1 0x1 PUSH1 0x1 PUSH1 0xA0 SHL SUB DUP2 AND PUSH0 SWAP1 DUP2 MSTORE PUSH1 0x6 PUSH1 0x20 SWAP1 DUP2 MSTORE PUSH1 0x40 DUP1 DUP4 KECCAK256 DUP4 SWAP1 SSTORE PUSH1 0x7 SWAP1 SWAP2 MSTORE DUP2 KECCAK256 PUSH1 0x2 ADD DUP1 SLOAD PUSH1 0x1 SWAP3 SWAP1 PUSH2 0x4E9 SWAP1 DUP5 SWAP1 PUSH2 0xC96 JUMP JUMPDEST SWAP1 SWAP2 SSTORE POP POP CALLER PUSH0 SWAP1 DUP2 MSTORE PUSH1 0x7 PUSH1 0x20 MSTORE PUSH1 0x40 SWAP1 KECCAK256 PUSH1 0x1 DUP2 ADD DUP1 SLOAD PUSH1 0x1 PUSH1 0x1 PUSH1 0xA0 SHL SUB DUP5 AND PUSH1 0x1 PUSH1 0x1 PUSH1 0xA0 SHL SUB NOT SWAP1 SWAP2 AND OR SWAP1 SSTORE PUSH1 0x3 ADD DUP1 SLOAD PUSH2 0xFF00 NOT AND PUSH2 0x100 OR SWAP1 SSTORE PUSH2 0x533 PUSH2 0x645 JUMP JUMPDEST PUSH1 0x40 DUP1 MLOAD CALLER DUP2 MSTORE PUSH1 0x20 DUP2 ADD DUP3 SWAP1 MSTORE PUSH1 0xD DUP2 DUP4 ADD MSTORE PUSH13 0x1AD95E4819D95B995C985D1959 PUSH1 0x9A SHL PUSH1 0x60 DUP3 ADD MSTORE SWAP1 MLOAD PUSH32 0x47E60AF076F96712B0E8439C8AE58AB2EA4F4BA3C73DD6223FB151403E11EFA8 SWAP2 DUP2 SWAP1 SUB PUSH1 0x80 ADD SWAP1 LOG1 PUSH2 0x591 PUSH2 0x728 JUMP JUMPDEST POP JUMP JUMPDEST PUSH1 0x1 PUSH1 0x1 PUSH1 0xA0 SHL SUB DUP2 AND PUSH0 SWAP1 DUP2 MSTORE PUSH1 0x6 PUSH1 0x20 MSTORE PUSH1 0x40 SWAP1 KECCAK256 PUSH1 0x1 ADD SLOAD ISZERO PUSH2 0x591 JUMPI PUSH1 0x1 PUSH1 0x1 PUSH1 0xA0 SHL SUB DUP2 AND PUSH0 SWAP1 DUP2 MSTORE PUSH1 0x6 PUSH1 0x20 SWAP1 DUP2 MSTORE PUSH1 0x40 DUP1 DUP4 KECCAK256 PUSH1 0x1 ADD SLOAD CALLER DUP1 DUP6 MSTORE PUSH1 0x7 SWAP1 SWAP4 MSTORE SWAP3 DUP2 SWAP1 KECCAK256 SWAP3 SWAP1 SWAP3 SSTORE SWAP1 MLOAD PUSH0 DUP1 MLOAD PUSH1 0x20 PUSH2 0xCC2 DUP4 CODECOPY DUP2 MLOAD SWAP2 MSTORE SWAP2 PUSH2 0x600 SWAP2 DUP5 SWAP2 SWAP1 PUSH2 0xC33 JUMP JUMPDEST PUSH1 0x40 MLOAD DUP1 SWAP2 SUB SWAP1 LOG1 PUSH1 0x1 PUSH1 0x1 PUSH1 0xA0 SHL SUB DUP2 AND PUSH0 SWAP1 DUP2 MSTORE PUSH1 0x6 PUSH1 0x20 SWAP1 DUP2 MSTORE PUSH1 0x40 DUP1 DUP4 KECCAK256 PUSH1 0x1 SWAP1 DUP2 ADD DUP5 SWAP1 SSTORE PUSH1 0x7 SWAP1 SWAP3 MSTORE DUP3 KECCAK256 PUSH1 0x2 ADD DUP1 SLOAD SWAP2 SWAP3 SWAP1 SWAP2 PUSH2 0x4E9 SWAP1 DUP5 SWAP1 PUSH2 0xC96 JUMP JUMPDEST CALLER PUSH0 SWAP1 DUP2 MSTORE PUSH1 0x7 PUSH1 0x20 MSTORE PUSH1 0x40 SWAP1 KECCAK256 PUSH1 0x3 ADD SLOAD PUSH1 0xFF AND ISZERO PUSH2 0x677 JUMPI PUSH1 0x40 MLOAD PUSH3 0x461BCD PUSH1 0xE5 SHL DUP2 MSTORE PUSH1 0x4 ADD PUSH2 0x323 SWAP1 PUSH2 0xBF0 JUMP JUMPDEST PUSH1 0x3 SLOAD PUSH1 0x40 MLOAD PUSH12 0xFFFFFFFFFFFFFFFFFFFFFFFF NOT CALLER PUSH1 0x60 SHL AND PUSH1 0x20 DUP3 ADD MSTORE TIMESTAMP PUSH1 0x34 DUP3 ADD MSTORE PUSH1 0x54 DUP2 ADD SWAP2 SWAP1 SWAP2 MSTORE PUSH1 0x74 ADD PUSH1 0x40 DUP1 MLOAD DUP1 DUP4 SUB PUSH1 0x1F NOT ADD DUP2 MSTORE SWAP1 DUP3 SWAP1 MSTORE DUP1 MLOAD PUSH1 0x20 SWAP2 DUP3 ADD KECCAK256 PUSH1 0x3 SSTORE PUSH1 0x4 SLOAD PUSH12 0xFFFFFFFFFFFFFFFFFFFFFFFF NOT CALLER PUSH1 0x60 SHL AND SWAP2 DUP4 ADD SWAP2 SWAP1 SWAP2 MSTORE TIMESTAMP PUSH1 0x34 DUP4 ADD MSTORE PUSH1 0x54 DUP3 ADD MSTORE PUSH1 0x74 ADD PUSH1 0x40 DUP1 MLOAD PUSH1 0x1F NOT DUP2 DUP5 SUB ADD DUP2 MSTORE SWAP2 DUP2 MSTORE DUP2 MLOAD PUSH1 0x20 SWAP3 DUP4 ADD KECCAK256 PUSH1 0x4 SWAP1 DUP2 SSTORE PUSH1 0x3 SLOAD CALLER PUSH0 SWAP1 DUP2 MSTORE PUSH1 0x6 SWAP1 SWAP5 MSTORE SWAP2 SWAP1 SWAP3 KECCAK256 SWAP1 DUP2 SSTORE SWAP1 SLOAD PUSH1 0x1 SWAP1 SWAP2 ADD SSTORE JUMP JUMPDEST CALLER PUSH0 SWAP1 DUP2 MSTORE PUSH1 0x7 PUSH1 0x20 MSTORE PUSH1 0x40 SWAP1 KECCAK256 PUSH1 0x3 ADD SLOAD PUSH2 0x100 SWAP1 DIV PUSH1 0xFF AND PUSH2 0x787 JUMPI PUSH1 0x40 MLOAD PUSH3 0x461BCD PUSH1 0xE5 SHL DUP2 MSTORE PUSH1 0x20 PUSH1 0x4 DUP3 ADD MSTORE PUSH1 0x16 PUSH1 0x24 DUP3 ADD MSTORE PUSH22 0x4B6579206973206E6F7420617070726F707269617465 PUSH1 0x50 SHL PUSH1 0x44 DUP3 ADD MSTORE PUSH1 0x64 ADD PUSH2 0x323 JUMP JUMPDEST CALLER PUSH0 SWAP1 DUP2 MSTORE PUSH1 0x7 PUSH1 0x20 MSTORE PUSH1 0x40 DUP2 KECCAK256 SLOAD SWAP1 SUB PUSH2 0x7DC JUMPI PUSH1 0x40 MLOAD PUSH3 0x461BCD PUSH1 0xE5 SHL DUP2 MSTORE PUSH1 0x20 PUSH1 0x4 DUP3 ADD MSTORE PUSH1 0x15 PUSH1 0x24 DUP3 ADD MSTORE PUSH21 0x466972737420476574206120546F6B656E206B6579 PUSH1 0x58 SHL PUSH1 0x44 DUP3 ADD MSTORE PUSH1 0x64 ADD PUSH2 0x323 JUMP JUMPDEST PUSH1 0x1 DUP1 SLOAD SWAP1 PUSH0 PUSH2 0x7EB DUP4 PUSH2 0xCA9 JUMP JUMPDEST SWAP2 SWAP1 POP SSTORE POP PUSH0 PUSH2 0x7FD CALLER PUSH1 0x1 SLOAD PUSH2 0x8B7 JUMP JUMPDEST SWAP1 POP DUP1 PUSH2 0x83F JUMPI PUSH1 0x40 MLOAD PUSH3 0x461BCD PUSH1 0xE5 SHL DUP2 MSTORE PUSH1 0x20 PUSH1 0x4 DUP3 ADD MSTORE PUSH1 0x10 PUSH1 0x24 DUP3 ADD MSTORE PUSH16 0x2737BA1030903B30B634B2103AB9B2B9 PUSH1 0x81 SHL PUSH1 0x44 DUP3 ADD MSTORE PUSH1 0x64 ADD PUSH2 0x323 JUMP JUMPDEST CALLER PUSH0 DUP2 DUP2 MSTORE PUSH1 0x7 PUSH1 0x20 SWAP1 DUP2 MSTORE PUSH1 0x40 SWAP2 DUP3 SWAP1 KECCAK256 PUSH1 0x3 ADD DUP1 SLOAD PUSH1 0xFF NOT AND PUSH1 0x1 OR SWAP1 SSTORE DUP2 MLOAD SWAP3 DUP4 MSTORE DUP3 ADD DUP2 SWAP1 MSTORE PUSH1 0xF SWAP1 DUP3 ADD MSTORE PUSH15 0x1858DD1A5D9948155CD95C881CD95D PUSH1 0x8A SHL PUSH1 0x60 DUP3 ADD MSTORE PUSH32 0x47E60AF076F96712B0E8439C8AE58AB2EA4F4BA3C73DD6223FB151403E11EFA8 SWAP1 PUSH1 0x80 ADD PUSH1 0x40 MLOAD DUP1 SWAP2 SUB SWAP1 LOG1 POP JUMP JUMPDEST CALLER PUSH0 SWAP1 DUP2 MSTORE PUSH1 0x7 PUSH1 0x20 MSTORE PUSH1 0x40 DUP2 KECCAK256 PUSH1 0x3 ADD SLOAD PUSH1 0xFF AND ISZERO PUSH2 0x8E9 JUMPI PUSH1 0x40 MLOAD PUSH3 0x461BCD PUSH1 0xE5 SHL DUP2 MSTORE PUSH1 0x4 ADD PUSH2 0x323 SWAP1 PUSH2 0xBF0 JUMP JUMPDEST PUSH1 0x2 DUP3 GT ISZERO DUP1 ISZERO PUSH2 0x918 JUMPI POP PUSH0 DUP1 SLOAD CALLER DUP3 MSTORE PUSH1 0x7 PUSH1 0x20 MSTORE PUSH1 0x40 SWAP1 SWAP2 KECCAK256 PUSH1 0x1 ADD SLOAD PUSH1 0x1 PUSH1 0x1 PUSH1 0xA0 SHL SUB SWAP1 DUP2 AND SWAP2 AND EQ JUMPDEST ISZERO PUSH2 0xA2D JUMPI PUSH1 0x5 SLOAD PUSH1 0x1 PUSH1 0x1 PUSH1 0xA0 SHL SUB DUP5 DUP2 AND PUSH0 DUP2 DUP2 MSTORE PUSH1 0x7 PUSH1 0x20 MSTORE PUSH1 0x40 SWAP1 DUP2 SWAP1 KECCAK256 PUSH1 0x1 ADD SLOAD SWAP1 MLOAD PUSH4 0x7AA9BF6F PUSH1 0xE1 SHL DUP2 MSTORE PUSH1 0x4 DUP2 ADD SWAP3 SWAP1 SWAP3 MSTORE DUP3 AND PUSH1 0x24 DUP3 ADD MSTORE PUSH2 0x1F4 PUSH1 0x44 DUP3 ADD MSTORE SWAP2 AND SWAP1 PUSH4 0xF5537EDE SWAP1 PUSH1 0x64 ADD PUSH0 PUSH1 0x40 MLOAD DUP1 DUP4 SUB DUP2 PUSH0 DUP8 DUP1 EXTCODESIZE ISZERO DUP1 ISZERO PUSH2 0x984 JUMPI PUSH0 DUP1 REVERT JUMPDEST POP GAS CALL ISZERO DUP1 ISZERO PUSH2 0x996 JUMPI RETURNDATASIZE PUSH0 DUP1 RETURNDATACOPY RETURNDATASIZE PUSH0 REVERT JUMPDEST POP POP POP PUSH1 0x1 PUSH1 0x1 PUSH1 0xA0 SHL SUB DUP1 DUP6 AND PUSH0 SWAP1 DUP2 MSTORE PUSH1 0x7 PUSH1 0x20 MSTORE PUSH1 0x40 SWAP1 DUP2 SWAP1 KECCAK256 PUSH1 0x1 ADD SLOAD SWAP1 MLOAD PUSH0 DUP1 MLOAD PUSH1 0x20 PUSH2 0xCC2 DUP4 CODECOPY DUP2 MLOAD SWAP2 MSTORE SWAP4 POP PUSH2 0xA20 SWAP3 DUP8 SWAP3 AND SWAP1 PUSH1 0x1 PUSH1 0x1 PUSH1 0xA0 SHL SUB SWAP3 DUP4 AND DUP2 MSTORE SWAP2 AND PUSH1 0x20 DUP3 ADD MSTORE PUSH1 0x60 PUSH1 0x40 DUP3 ADD DUP2 SWAP1 MSTORE PUSH1 0x17 SWAP1 DUP3 ADD MSTORE PUSH32 0x7472616E73666572207375636365737366756C20353030000000000000000000 PUSH1 0x80 DUP3 ADD MSTORE PUSH1 0xA0 ADD SWAP1 JUMP JUMPDEST PUSH1 0x40 MLOAD DUP1 SWAP2 SUB SWAP1 LOG1 PUSH2 0xBB9 JUMP JUMPDEST PUSH1 0x1 PUSH1 0x1 PUSH1 0xA0 SHL SUB DUP4 DUP2 AND PUSH0 DUP2 DUP2 MSTORE PUSH1 0x7 PUSH1 0x20 MSTORE PUSH1 0x40 SWAP1 DUP2 SWAP1 KECCAK256 PUSH1 0x1 ADD SLOAD PUSH1 0x5 SLOAD SWAP2 MLOAD PUSH4 0x7AA9BF6F PUSH1 0xE1 SHL DUP2 MSTORE PUSH1 0x4 DUP2 ADD SWAP4 SWAP1 SWAP4 MSTORE DUP4 AND PUSH1 0x24 DUP4 ADD DUP2 SWAP1 MSTORE PUSH2 0x12C PUSH1 0x44 DUP5 ADD MSTORE SWAP3 AND SWAP1 PUSH4 0xF5537EDE SWAP1 PUSH1 0x64 ADD PUSH0 PUSH1 0x40 MLOAD DUP1 DUP4 SUB DUP2 PUSH0 DUP8 DUP1 EXTCODESIZE ISZERO DUP1 ISZERO PUSH2 0xA96 JUMPI PUSH0 DUP1 REVERT JUMPDEST POP GAS CALL ISZERO DUP1 ISZERO PUSH2 0xAA8 JUMPI RETURNDATASIZE PUSH0 DUP1 RETURNDATACOPY RETURNDATASIZE PUSH0 REVERT JUMPDEST POP POP PUSH1 0x5 SLOAD PUSH1 0x1 PUSH1 0x1 PUSH1 0xA0 SHL SUB DUP5 DUP2 AND PUSH0 SWAP1 DUP2 MSTORE PUSH1 0x7 PUSH1 0x20 MSTORE PUSH1 0x40 SWAP1 DUP2 SWAP1 KECCAK256 PUSH1 0x1 ADD SLOAD SWAP1 MLOAD PUSH4 0x7AA9BF6F PUSH1 0xE1 SHL DUP2 MSTORE DUP10 DUP4 AND PUSH1 0x4 DUP3 ADD MSTORE SWAP1 DUP3 AND PUSH1 0x24 DUP3 ADD MSTORE PUSH1 0xC8 PUSH1 0x44 DUP3 ADD MSTORE SWAP2 AND SWAP3 POP PUSH4 0xF5537EDE SWAP2 POP PUSH1 0x64 ADD PUSH0 PUSH1 0x40 MLOAD DUP1 DUP4 SUB DUP2 PUSH0 DUP8 DUP1 EXTCODESIZE ISZERO DUP1 ISZERO PUSH2 0xB13 JUMPI PUSH0 DUP1 REVERT JUMPDEST POP GAS CALL ISZERO DUP1 ISZERO PUSH2 0xB25 JUMPI RETURNDATASIZE PUSH0 DUP1 RETURNDATACOPY RETURNDATASIZE PUSH0 REVERT JUMPDEST POP POP POP PUSH1 0x1 PUSH1 0x1 PUSH1 0xA0 SHL SUB DUP1 DUP7 AND PUSH0 SWAP1 DUP2 MSTORE PUSH1 0x7 PUSH1 0x20 MSTORE PUSH1 0x40 SWAP1 DUP2 SWAP1 KECCAK256 PUSH1 0x1 ADD SLOAD SWAP1 MLOAD PUSH0 DUP1 MLOAD PUSH1 0x20 PUSH2 0xCC2 DUP4 CODECOPY DUP2 MLOAD SWAP2 MSTORE SWAP4 POP PUSH2 0xBAF SWAP3 DUP9 SWAP3 AND SWAP1 PUSH1 0x1 PUSH1 0x1 PUSH1 0xA0 SHL SUB SWAP3 DUP4 AND DUP2 MSTORE SWAP2 AND PUSH1 0x20 DUP3 ADD MSTORE PUSH1 0x60 PUSH1 0x40 DUP3 ADD DUP2 SWAP1 MSTORE PUSH1 0x1B SWAP1 DUP3 ADD MSTORE PUSH32 0x7472616E73666572207375636365737366756C203330302C3230300000000000 PUSH1 0x80 DUP3 ADD MSTORE PUSH1 0xA0 ADD SWAP1 JUMP JUMPDEST PUSH1 0x40 MLOAD DUP1 SWAP2 SUB SWAP1 LOG1 POP JUMPDEST POP PUSH1 0x1 JUMPDEST SWAP3 SWAP2 POP POP JUMP JUMPDEST PUSH0 PUSH1 0x20 DUP3 DUP5 SUB SLT ISZERO PUSH2 0xBD3 JUMPI PUSH0 DUP1 REVERT JUMPDEST DUP2 CALLDATALOAD PUSH1 0x1 PUSH1 0x1 PUSH1 0xA0 SHL SUB DUP2 AND DUP2 EQ PUSH2 0xBE9 JUMPI PUSH0 DUP1 REVERT JUMPDEST SWAP4 SWAP3 POP POP POP JUMP JUMPDEST PUSH1 0x20 DUP1 DUP3 MSTORE PUSH1 0x12 SWAP1 DUP3 ADD MSTORE PUSH18 0x1D5CD95C88185B1C9958591E48195E1A5CDD PUSH1 0x72 SHL PUSH1 0x40 DUP3 ADD MSTORE PUSH1 0x60 ADD SWAP1 JUMP JUMPDEST PUSH0 PUSH1 0x20 DUP3 DUP5 SUB SLT ISZERO PUSH2 0xC2C JUMPI PUSH0 DUP1 REVERT JUMPDEST POP MLOAD SWAP2 SWAP1 POP JUMP JUMPDEST PUSH1 0x1 PUSH1 0x1 PUSH1 0xA0 SHL SUB SWAP3 DUP4 AND DUP2 MSTORE SWAP2 AND PUSH1 0x20 DUP3 ADD MSTORE PUSH1 0x60 PUSH1 0x40 DUP3 ADD DUP2 SWAP1 MSTORE PUSH1 0x17 SWAP1 DUP3 ADD MSTORE PUSH32 0x6B657920706173736564207375636365737366756C6C79000000000000000000 PUSH1 0x80 DUP3 ADD MSTORE PUSH1 0xA0 ADD SWAP1 JUMP JUMPDEST PUSH4 0x4E487B71 PUSH1 0xE0 SHL PUSH0 MSTORE PUSH1 0x11 PUSH1 0x4 MSTORE PUSH1 0x24 PUSH0 REVERT JUMPDEST DUP1 DUP3 ADD DUP1 DUP3 GT ISZERO PUSH2 0xBBD JUMPI PUSH2 0xBBD PUSH2 0xC82 JUMP JUMPDEST PUSH0 PUSH1 0x1 DUP3 ADD PUSH2 0xCBA JUMPI PUSH2 0xCBA PUSH2 0xC82 JUMP JUMPDEST POP PUSH1 0x1 ADD SWAP1 JUMP INVALID DUP12 0xF6 OR NUMBER JUMPDEST PC STATICCALL 0xEF PUSH12 0xE9EFEB8AA6D284F6D751E37B 0xB5 0x4E 0xEC 0xD3 SDIV PUSH25 0x7EECCBD1A9A2646970667358221220AAE7A8E00A5F47F161C2 DUP13 SWAP15 0xD8 SWAP9 SWAP7 0xFC PUSH14 0xB8956BE321F7541BC029EFC494AB PUSH18 0x64736F6C6343000815003300000000000000 "
		},
		"gasEstimates": {
			"creation": {
				"codeDepositCost": "670200",
				"executionCost": "infinite",
				"totalCost": "infinite"
			},
			"external": {
				"admins()": "2369",
				"getkey1()": "2393",
				"getkey2()": "2387",
				"getkeyStatus()": "2398",
				"getkeyUsed()": "2431",
				"getparent()": "4629",
				"gettokenKey()": "2426",
				"inter()": "2413",
				"keyHolder(address)": "4686",
				"parent()": "2403",
				"passKey(address)": "infinite",
				"random1()": "2338",
				"random2()": "2316",
				"staker(address)": "9073"
			},
			"internal": {
				"generateKey()": "infinite",
				"isValidTransfer(address,uint256)": "infinite",
				"join()": "infinite"
			}
		},
		"methodIdentifiers": {
			"admins()": "a5de3619",
			"getkey1()": "26c49a05",
			"getkey2()": "8ce8bb29",
			"getkeyStatus()": "4d1fd27e",
			"getkeyUsed()": "bea1ac86",
			"getparent()": "255d45d8",
			"gettokenKey()": "4b4521a2",
			"inter()": "f13ad725",
			"keyHolder(address)": "ec3be66f",
			"parent()": "60f96a8f",
			"passKey(address)": "5ea43745",
			"random1()": "d24c5a36",
			"random2()": "c5337ed4",
			"staker(address)": "82e4eda4"
		}
	},
	"abi": [
		{
			"inputs": [
				{
					"internalType": "address",
					"name": "_ERC20address",
					"type": "address"
				}
			],
			"stateMutability": "nonpayable",
			"type": "constructor"
		},
		{
			"anonymous": false,
			"inputs": [
				{
					"indexed": false,
					"internalType": "address",
					"name": "from",
					"type": "address"
				},
				{
					"indexed": false,
					"internalType": "address",
					"name": "to",
					"type": "address"
				},
				{
					"indexed": false,
					"internalType": "string",
					"name": "message",
					"type": "string"
				}
			],
			"name": "success",
			"type": "event"
		},
		{
			"anonymous": false,
			"inputs": [
				{
					"indexed": false,
					"internalType": "address",
					"name": "user",
					"type": "address"
				},
				{
					"indexed": false,
					"internalType": "string",
					"name": "message",
					"type": "string"
				}
			],
			"name": "userJoined",
			"type": "event"
		},
		{
			"inputs": [],
			"name": "admins",
			"outputs": [
				{
					"internalType": "address",
					"name": "",
					"type": "address"
				}
			],
			"stateMutability": "view",
			"type": "function"
		},
		{
			"inputs": [],
			"name": "getkey1",
			"outputs": [
				{
					"internalType": "uint256",
					"name": "",
					"type": "uint256"
				}
			],
			"stateMutability": "view",
			"type": "function"
		},
		{
			"inputs": [],
			"name": "getkey2",
			"outputs": [
				{
					"internalType": "uint256",
					"name": "",
					"type": "uint256"
				}
			],
			"stateMutability": "view",
			"type": "function"
		},
		{
			"inputs": [],
			"name": "getkeyStatus",
			"outputs": [
				{
					"internalType": "bool",
					"name": "",
					"type": "bool"
				}
			],
			"stateMutability": "view",
			"type": "function"
		},
		{
			"inputs": [],
			"name": "getkeyUsed",
			"outputs": [
				{
					"internalType": "uint256",
					"name": "",
					"type": "uint256"
				}
			],
			"stateMutability": "view",
			"type": "function"
		},
		{
			"inputs": [],
			"name": "getparent",
			"outputs": [
				{
					"internalType": "address",
					"name": "",
					"type": "address"
				}
			],
			"stateMutability": "view",
			"type": "function"
		},
		{
			"inputs": [],
			"name": "gettokenKey",
			"outputs": [
				{
					"internalType": "uint256",
					"name": "",
					"type": "uint256"
				}
			],
			"stateMutability": "view",
			"type": "function"
		},
		{
			"inputs": [],
			"name": "inter",
			"outputs": [
				{
					"internalType": "contract InterfaceERC20",
					"name": "",
					"type": "address"
				}
			],
			"stateMutability": "view",
			"type": "function"
		},
		{
			"inputs": [
				{
					"internalType": "address",
					"name": "",
					"type": "address"
				}
			],
			"name": "keyHolder",
			"outputs": [
				{
					"internalType": "uint256",
					"name": "t1",
					"type": "uint256"
				},
				{
					"internalType": "uint256",
					"name": "t2",
					"type": "uint256"
				}
			],
			"stateMutability": "view",
			"type": "function"
		},
		{
			"inputs": [],
			"name": "parent",
			"outputs": [
				{
					"internalType": "address",
					"name": "",
					"type": "address"
				}
			],
			"stateMutability": "view",
			"type": "function"
		},
		{
			"inputs": [
				{
					"internalType": "address",
					"name": "from",
					"type": "address"
				}
			],
			"name": "passKey",
			"outputs": [],
			"stateMutability": "nonpayable",
			"type": "function"
		},
		{
			"inputs": [],
			"name": "random1",
			"outputs": [
				{
					"internalType": "uint256",
					"name": "",
					"type": "uint256"
				}
			],
			"stateMutability": "view",
			"type": "function"
		},
		{
			"inputs": [],
			"name": "random2",
			"outputs": [
				{
					"internalType": "uint256",
					"name": "",
					"type": "uint256"
				}
			],
			"stateMutability": "view",
			"type": "function"
		},
		{
			"inputs": [
				{
					"internalType": "address",
					"name": "",
					"type": "address"
				}
			],
			"name": "staker",
			"outputs": [
				{
					"internalType": "uint256",
					"name": "tokenKey",
					"type": "uint256"
				},
				{
					"internalType": "address",
					"name": "referrer",
					"type": "address"
				},
				{
					"internalType": "uint256",
					"name": "keyused",
					"type": "uint256"
				},
				{
					"internalType": "bool",
					"name": "activeUser",
					"type": "bool"
				},
				{
					"internalType": "bool",
					"name": "keystatus",
					"type": "bool"
				}
			],
			"stateMutability": "view",
			"type": "function"
		}
	]
}